{"abi":[{"type":"constructor","inputs":[{"name":"name","type":"string","internalType":"string"},{"name":"symbol","type":"string","internalType":"string"},{"name":"baseURI","type":"string","internalType":"string"},{"name":"admin","type":"address","internalType":"address"}],"stateMutability":"nonpayable"},{"type":"function","name":"DEFAULT_ADMIN_ROLE","inputs":[],"outputs":[{"name":"","type":"bytes32","internalType":"bytes32"}],"stateMutability":"view"},{"type":"function","name":"GUARDIAN_STAKE","inputs":[],"outputs":[{"name":"","type":"uint256","internalType":"uint256"}],"stateMutability":"view"},{"type":"function","name":"MINTER_ROLE","inputs":[],"outputs":[{"name":"","type":"bytes32","internalType":"bytes32"}],"stateMutability":"view"},{"type":"function","name":"ORACLE_STAKE","inputs":[],"outputs":[{"name":"","type":"uint256","internalType":"uint256"}],"stateMutability":"view"},{"type":"function","name":"VALIDATOR_STAKE","inputs":[],"outputs":[{"name":"","type":"uint256","internalType":"uint256"}],"stateMutability":"view"},{"type":"function","name":"VERIFIER_ROLE","inputs":[],"outputs":[{"name":"","type":"bytes32","internalType":"bytes32"}],"stateMutability":"view"},{"type":"function","name":"activateNode","inputs":[{"name":"tokenId","type":"uint256","internalType":"uint256"},{"name":"hardwareHash","type":"string","internalType":"string"}],"outputs":[],"stateMutability":"nonpayable"},{"type":"function","name":"approve","inputs":[{"name":"to","type":"address","internalType":"address"},{"name":"tokenId","type":"uint256","internalType":"uint256"}],"outputs":[],"stateMutability":"nonpayable"},{"type":"function","name":"approveOperator","inputs":[{"name":"operator","type":"address","internalType":"address"}],"outputs":[],"stateMutability":"nonpayable"},{"type":"function","name":"approvedOperators","inputs":[{"name":"","type":"address","internalType":"address"}],"outputs":[{"name":"","type":"bool","internalType":"bool"}],"stateMutability":"view"},{"type":"function","name":"balanceOf","inputs":[{"name":"owner","type":"address","internalType":"address"}],"outputs":[{"name":"","type":"uint256","internalType":"uint256"}],"stateMutability":"view"},{"type":"function","name":"deactivateNode","inputs":[{"name":"tokenId","type":"uint256","internalType":"uint256"}],"outputs":[],"stateMutability":"nonpayable"},{"type":"function","name":"getActiveNodesByType","inputs":[{"name":"nodeType","type":"uint8","internalType":"enum NodeNFT.NodeType"}],"outputs":[{"name":"","type":"uint256[]","internalType":"uint256[]"}],"stateMutability":"view"},{"type":"function","name":"getApproved","inputs":[{"name":"tokenId","type":"uint256","internalType":"uint256"}],"outputs":[{"name":"","type":"address","internalType":"address"}],"stateMutability":"view"},{"type":"function","name":"getNodeMetadata","inputs":[{"name":"tokenId","type":"uint256","internalType":"uint256"}],"outputs":[{"name":"","type":"tuple","internalType":"struct NodeNFT.NodeMetadata","components":[{"name":"nodeType","type":"uint8","internalType":"enum NodeNFT.NodeType"},{"name":"tier","type":"uint256","internalType":"uint256"},{"name":"stakingAmount","type":"uint256","internalType":"uint256"},{"name":"isActive","type":"bool","internalType":"bool"},{"name":"activatedAt","type":"uint256","internalType":"uint256"},{"name":"hardwareHash","type":"string","internalType":"string"}]}],"stateMutability":"view"},{"type":"function","name":"getNodesByOwner","inputs":[{"name":"owner","type":"address","internalType":"address"}],"outputs":[{"name":"","type":"uint256[]","internalType":"uint256[]"}],"stateMutability":"view"},{"type":"function","name":"getRequiredStake","inputs":[{"name":"nodeType","type":"uint8","internalType":"enum NodeNFT.NodeType"}],"outputs":[{"name":"","type":"uint256","internalType":"uint256"}],"stateMutability":"pure"},{"type":"function","name":"getRoleAdmin","inputs":[{"name":"role","type":"bytes32","internalType":"bytes32"}],"outputs":[{"name":"","type":"bytes32","internalType":"bytes32"}],"stateMutability":"view"},{"type":"function","name":"grantRole","inputs":[{"name":"role","type":"bytes32","internalType":"bytes32"},{"name":"account","type":"address","internalType":"address"}],"outputs":[],"stateMutability":"nonpayable"},{"type":"function","name":"hasRole","inputs":[{"name":"role","type":"bytes32","internalType":"bytes32"},{"name":"account","type":"address","internalType":"address"}],"outputs":[{"name":"","type":"bool","internalType":"bool"}],"stateMutability":"view"},{"type":"function","name":"isApprovedForAll","inputs":[{"name":"owner","type":"address","internalType":"address"},{"name":"operator","type":"address","internalType":"address"}],"outputs":[{"name":"","type":"bool","internalType":"bool"}],"stateMutability":"view"},{"type":"function","name":"isNodeEligible","inputs":[{"name":"tokenId","type":"uint256","internalType":"uint256"}],"outputs":[{"name":"","type":"bool","internalType":"bool"}],"stateMutability":"view"},{"type":"function","name":"mintNode","inputs":[{"name":"to","type":"address","internalType":"address"},{"name":"nodeType","type":"uint8","internalType":"enum NodeNFT.NodeType"},{"name":"tier","type":"uint256","internalType":"uint256"}],"outputs":[{"name":"tokenId","type":"uint256","internalType":"uint256"}],"stateMutability":"payable"},{"type":"function","name":"name","inputs":[],"outputs":[{"name":"","type":"string","internalType":"string"}],"stateMutability":"view"},{"type":"function","name":"nodeMetadata","inputs":[{"name":"","type":"uint256","internalType":"uint256"}],"outputs":[{"name":"nodeType","type":"uint8","internalType":"enum NodeNFT.NodeType"},{"name":"tier","type":"uint256","internalType":"uint256"},{"name":"stakingAmount","type":"uint256","internalType":"uint256"},{"name":"isActive","type":"bool","internalType":"bool"},{"name":"activatedAt","type":"uint256","internalType":"uint256"},{"name":"hardwareHash","type":"string","internalType":"string"}],"stateMutability":"view"},{"type":"function","name":"nodeTypeCount","inputs":[{"name":"","type":"uint8","internalType":"enum NodeNFT.NodeType"}],"outputs":[{"name":"","type":"uint256","internalType":"uint256"}],"stateMutability":"view"},{"type":"function","name":"ownerOf","inputs":[{"name":"tokenId","type":"uint256","internalType":"uint256"}],"outputs":[{"name":"","type":"address","internalType":"address"}],"stateMutability":"view"},{"type":"function","name":"renounceRole","inputs":[{"name":"role","type":"bytes32","internalType":"bytes32"},{"name":"callerConfirmation","type":"address","internalType":"address"}],"outputs":[],"stateMutability":"nonpayable"},{"type":"function","name":"revokeRole","inputs":[{"name":"role","type":"bytes32","internalType":"bytes32"},{"name":"account","type":"address","internalType":"address"}],"outputs":[],"stateMutability":"nonpayable"},{"type":"function","name":"safeTransferFrom","inputs":[{"name":"from","type":"address","internalType":"address"},{"name":"to","type":"address","internalType":"address"},{"name":"tokenId","type":"uint256","internalType":"uint256"}],"outputs":[],"stateMutability":"nonpayable"},{"type":"function","name":"safeTransferFrom","inputs":[{"name":"from","type":"address","internalType":"address"},{"name":"to","type":"address","internalType":"address"},{"name":"tokenId","type":"uint256","internalType":"uint256"},{"name":"data","type":"bytes","internalType":"bytes"}],"outputs":[],"stateMutability":"nonpayable"},{"type":"function","name":"setApprovalForAll","inputs":[{"name":"operator","type":"address","internalType":"address"},{"name":"approved","type":"bool","internalType":"bool"}],"outputs":[],"stateMutability":"nonpayable"},{"type":"function","name":"setBaseURI","inputs":[{"name":"baseURI","type":"string","internalType":"string"}],"outputs":[],"stateMutability":"nonpayable"},{"type":"function","name":"supportsInterface","inputs":[{"name":"interfaceId","type":"bytes4","internalType":"bytes4"}],"outputs":[{"name":"","type":"bool","internalType":"bool"}],"stateMutability":"view"},{"type":"function","name":"symbol","inputs":[],"outputs":[{"name":"","type":"string","internalType":"string"}],"stateMutability":"view"},{"type":"function","name":"tokenByIndex","inputs":[{"name":"index","type":"uint256","internalType":"uint256"}],"outputs":[{"name":"","type":"uint256","internalType":"uint256"}],"stateMutability":"view"},{"type":"function","name":"tokenOfOwnerByIndex","inputs":[{"name":"owner","type":"address","internalType":"address"},{"name":"index","type":"uint256","internalType":"uint256"}],"outputs":[{"name":"","type":"uint256","internalType":"uint256"}],"stateMutability":"view"},{"type":"function","name":"tokenURI","inputs":[{"name":"tokenId","type":"uint256","internalType":"uint256"}],"outputs":[{"name":"","type":"string","internalType":"string"}],"stateMutability":"view"},{"type":"function","name":"totalSupply","inputs":[],"outputs":[{"name":"","type":"uint256","internalType":"uint256"}],"stateMutability":"view"},{"type":"function","name":"transferFrom","inputs":[{"name":"from","type":"address","internalType":"address"},{"name":"to","type":"address","internalType":"address"},{"name":"tokenId","type":"uint256","internalType":"uint256"}],"outputs":[],"stateMutability":"nonpayable"},{"type":"event","name":"Approval","inputs":[{"name":"owner","type":"address","indexed":true,"internalType":"address"},{"name":"approved","type":"address","indexed":true,"internalType":"address"},{"name":"tokenId","type":"uint256","indexed":true,"internalType":"uint256"}],"anonymous":false},{"type":"event","name":"ApprovalForAll","inputs":[{"name":"owner","type":"address","indexed":true,"internalType":"address"},{"name":"operator","type":"address","indexed":true,"internalType":"address"},{"name":"approved","type":"bool","indexed":false,"internalType":"bool"}],"anonymous":false},{"type":"event","name":"NodeActivated","inputs":[{"name":"tokenId","type":"uint256","indexed":true,"internalType":"uint256"},{"name":"hardwareHash","type":"string","indexed":false,"internalType":"string"}],"anonymous":false},{"type":"event","name":"NodeDeactivated","inputs":[{"name":"tokenId","type":"uint256","indexed":true,"internalType":"uint256"}],"anonymous":false},{"type":"event","name":"NodeMinted","inputs":[{"name":"tokenId","type":"uint256","indexed":true,"internalType":"uint256"},{"name":"operator","type":"address","indexed":true,"internalType":"address"},{"name":"nodeType","type":"uint8","indexed":false,"internalType":"enum NodeNFT.NodeType"},{"name":"tier","type":"uint256","indexed":false,"internalType":"uint256"}],"anonymous":false},{"type":"event","name":"OperatorApproved","inputs":[{"name":"operator","type":"address","indexed":true,"internalType":"address"}],"anonymous":false},{"type":"event","name":"OperatorRevoked","inputs":[{"name":"operator","type":"address","indexed":true,"internalType":"address"}],"anonymous":false},{"type":"event","name":"RoleAdminChanged","inputs":[{"name":"role","type":"bytes32","indexed":true,"internalType":"bytes32"},{"name":"previousAdminRole","type":"bytes32","indexed":true,"internalType":"bytes32"},{"name":"newAdminRole","type":"bytes32","indexed":true,"internalType":"bytes32"}],"anonymous":false},{"type":"event","name":"RoleGranted","inputs":[{"name":"role","type":"bytes32","indexed":true,"internalType":"bytes32"},{"name":"account","type":"address","indexed":true,"internalType":"address"},{"name":"sender","type":"address","indexed":true,"internalType":"address"}],"anonymous":false},{"type":"event","name":"RoleRevoked","inputs":[{"name":"role","type":"bytes32","indexed":true,"internalType":"bytes32"},{"name":"account","type":"address","indexed":true,"internalType":"address"},{"name":"sender","type":"address","indexed":true,"internalType":"address"}],"anonymous":false},{"type":"event","name":"Transfer","inputs":[{"name":"from","type":"address","indexed":true,"internalType":"address"},{"name":"to","type":"address","indexed":true,"internalType":"address"},{"name":"tokenId","type":"uint256","indexed":true,"internalType":"uint256"}],"anonymous":false},{"type":"error","name":"AccessControlBadConfirmation","inputs":[]},{"type":"error","name":"AccessControlUnauthorizedAccount","inputs":[{"name":"account","type":"address","internalType":"address"},{"name":"neededRole","type":"bytes32","internalType":"bytes32"}]},{"type":"error","name":"ERC721EnumerableForbiddenBatchMint","inputs":[]},{"type":"error","name":"ERC721IncorrectOwner","inputs":[{"name":"sender","type":"address","internalType":"address"},{"name":"tokenId","type":"uint256","internalType":"uint256"},{"name":"owner","type":"address","internalType":"address"}]},{"type":"error","name":"ERC721InsufficientApproval","inputs":[{"name":"operator","type":"address","internalType":"address"},{"name":"tokenId","type":"uint256","internalType":"uint256"}]},{"type":"error","name":"ERC721InvalidApprover","inputs":[{"name":"approver","type":"address","internalType":"address"}]},{"type":"error","name":"ERC721InvalidOperator","inputs":[{"name":"operator","type":"address","internalType":"address"}]},{"type":"error","name":"ERC721InvalidOwner","inputs":[{"name":"owner","type":"address","internalType":"address"}]},{"type":"error","name":"ERC721InvalidReceiver","inputs":[{"name":"receiver","type":"address","internalType":"address"}]},{"type":"error","name":"ERC721InvalidSender","inputs":[{"name":"sender","type":"address","internalType":"address"}]},{"type":"error","name":"ERC721NonexistentToken","inputs":[{"name":"tokenId","type":"uint256","internalType":"uint256"}]},{"type":"error","name":"ERC721OutOfBoundsIndex","inputs":[{"name":"owner","type":"address","internalType":"address"},{"name":"index","type":"uint256","internalType":"uint256"}]}],"bytecode":{"object":"0x60806040526001600e55348015610014575f5ffd5b5060405161541b38038061541b833981810160405281019061003691906103ef565b8383815f908161004691906106b7565b50806001908161005691906106b7565b50505081600f908161006891906106b7565b5061007b5f5f1b826100e760201b60201c565b506100ac7f9f2df0fed2c77648de5860a4cc508cd0818c85b8b8a1ab4ceeef8d981c8956a6826100e760201b60201c565b506100dd7f0ce23c3e399818cfee81a7ab0880f714e53d7672b08df0fa62f2843416e1ea09826100e760201b60201c565b5050505050610786565b5f6100f883836101dd60201b60201c565b6101d3576001600a5f8581526020019081526020015f205f015f8473ffffffffffffffffffffffffffffffffffffffff1673ffffffffffffffffffffffffffffffffffffffff1681526020019081526020015f205f6101000a81548160ff02191690831515021790555061017061024160201b60201c565b73ffffffffffffffffffffffffffffffffffffffff168273ffffffffffffffffffffffffffffffffffffffff16847f2f8788117e7eff1d82e926ec794901d17c78024a50270940304540a733656f0d60405160405180910390a4600190506101d7565b5f90505b92915050565b5f600a5f8481526020019081526020015f205f015f8373ffffffffffffffffffffffffffffffffffffffff1673ffffffffffffffffffffffffffffffffffffffff1681526020019081526020015f205f9054906101000a900460ff16905092915050565b5f33905090565b5f604051905090565b5f5ffd5b5f5ffd5b5f5ffd5b5f5ffd5b5f601f19601f8301169050919050565b7f4e487b71000000000000000000000000000000000000000000000000000000005f52604160045260245ffd5b6102a782610261565b810181811067ffffffffffffffff821117156102c6576102c5610271565b5b80604052505050565b5f6102d8610248565b90506102e4828261029e565b919050565b5f67ffffffffffffffff82111561030357610302610271565b5b61030c82610261565b9050602081019050919050565b8281835e5f83830152505050565b5f610339610334846102e9565b6102cf565b9050828152602081018484840111156103555761035461025d565b5b610360848285610319565b509392505050565b5f82601f83011261037c5761037b610259565b5b815161038c848260208601610327565b91505092915050565b5f73ffffffffffffffffffffffffffffffffffffffff82169050919050565b5f6103be82610395565b9050919050565b6103ce816103b4565b81146103d8575f5ffd5b50565b5f815190506103e9816103c5565b92915050565b5f5f5f5f6080858703121561040757610406610251565b5b5f85015167ffffffffffffffff81111561042457610423610255565b5b61043087828801610368565b945050602085015167ffffffffffffffff81111561045157610450610255565b5b61045d87828801610368565b935050604085015167ffffffffffffffff81111561047e5761047d610255565b5b61048a87828801610368565b925050606061049b878288016103db565b91505092959194509250565b5f81519050919050565b7f4e487b71000000000000000000000000000000000000000000000000000000005f52602260045260245ffd5b5f60028204905060018216806104f557607f821691505b602082108103610508576105076104b1565b5b50919050565b5f819050815f5260205f209050919050565b5f6020601f8301049050919050565b5f82821b905092915050565b5f6008830261056a7fffffffffffffffffffffffffffffffffffffffffffffffffffffffffffffffff8261052f565b610574868361052f565b95508019841693508086168417925050509392505050565b5f819050919050565b5f819050919050565b5f6105b86105b36105ae8461058c565b610595565b61058c565b9050919050565b5f819050919050565b6105d18361059e565b6105e56105dd826105bf565b84845461053b565b825550505050565b5f5f905090565b6105fc6105ed565b6106078184846105c8565b505050565b5b8181101561062a5761061f5f826105f4565b60018101905061060d565b5050565b601f82111561066f576106408161050e565b61064984610520565b81016020851015610658578190505b61066c61066485610520565b83018261060c565b50505b505050565b5f82821c905092915050565b5f61068f5f1984600802610674565b1980831691505092915050565b5f6106a78383610680565b9150826002028217905092915050565b6106c0826104a7565b67ffffffffffffffff8111156106d9576106d8610271565b5b6106e382546104de565b6106ee82828561062e565b5f60209050601f83116001811461071f575f841561070d578287015190505b610717858261069c565b86555061077e565b601f19841661072d8661050e565b5f5b828110156107545784890151825560018201915060208501945060208101905061072f565b86831015610771578489015161076d601f891682610680565b8355505b6001600288020188555050505b505050505050565b614c88806107935f395ff3fe60806040526004361061023a575f3560e01c806370a082311161012d578063c87b56dd116100aa578063e7705db61161006e578063e7705db6146108ff578063e985e9c514610929578063e9d6383014610965578063eaf8652e1461098d578063ff721aba146109c95761023a565b8063c87b56dd14610806578063d539139314610842578063d547741f1461086c578063d58554bf14610894578063e6f8afe1146108d55761023a565b8063a217fddf116100f1578063a217fddf14610726578063a22cb46514610750578063b88d4fde14610778578063c23a6f5a146107a0578063c8675835146107dc5761023a565b806370a0823114610620578063728aaa7a1461065c578063783ac75e1461068457806391d14854146106c057806395d89b41146106fc5761023a565b806336568abe116101bb578063500a97d81161017f578063500a97d81461051457806355f804b31461055057806358b6d54f146105785780635b0b3062146105a85780636352211e146105e45761023a565b806336568abe146104225780633b1f29121461044a57806342842e0e1461047457806342fcf2501461049c5780634f6ccce7146104d85761023a565b806323b872dd1161020257806323b872dd14610332578063242cae9f1461035a578063248a9ca3146103825780632f2ff15d146103be5780632f745c59146103e65761023a565b806301ffc9a71461023e57806306fdde031461027a578063081812fc146102a4578063095ea7b3146102e057806318160ddd14610308575b5f5ffd5b348015610249575f5ffd5b50610264600480360381019061025f919061374b565b610a05565b6040516102719190613790565b60405180910390f35b348015610285575f5ffd5b5061028e610a16565b60405161029b9190613819565b60405180910390f35b3480156102af575f5ffd5b506102ca60048036038101906102c5919061386c565b610aa5565b6040516102d791906138d6565b60405180910390f35b3480156102eb575f5ffd5b5061030660048036038101906103019190613919565b610ac0565b005b348015610313575f5ffd5b5061031c610ad6565b6040516103299190613966565b60405180910390f35b34801561033d575f5ffd5b506103586004803603810190610353919061397f565b610ae2565b005b348015610365575f5ffd5b50610380600480360381019061037b91906139cf565b610be1565b005b34801561038d575f5ffd5b506103a860048036038101906103a39190613a2d565b610d9f565b6040516103b59190613a67565b60405180910390f35b3480156103c9575f5ffd5b506103e460048036038101906103df9190613a80565b610dbc565b005b3480156103f1575f5ffd5b5061040c60048036038101906104079190613919565b610dde565b6040516104199190613966565b60405180910390f35b34801561042d575f5ffd5b5061044860048036038101906104439190613a80565b610e82565b005b348015610455575f5ffd5b5061045e610efd565b60405161046b9190613966565b60405180910390f35b34801561047f575f5ffd5b5061049a6004803603810190610495919061397f565b610f0a565b005b3480156104a7575f5ffd5b506104c260048036038101906104bd91906139cf565b610f29565b6040516104cf9190613b75565b60405180910390f35b3480156104e3575f5ffd5b506104fe60048036038101906104f9919061386c565b610fd1565b60405161050b9190613966565b60405180910390f35b34801561051f575f5ffd5b5061053a60048036038101906105359190613bb8565b611043565b6040516105479190613966565b60405180910390f35b34801561055b575f5ffd5b5061057660048036038101906105719190613d0f565b611058565b005b610592600480360381019061058d9190613d56565b611078565b60405161059f9190613966565b60405180910390f35b3480156105b3575f5ffd5b506105ce60048036038101906105c9919061386c565b61134a565b6040516105db9190613790565b60405180910390f35b3480156105ef575f5ffd5b5061060a6004803603810190610605919061386c565b6114d7565b60405161061791906138d6565b60405180910390f35b34801561062b575f5ffd5b50610646600480360381019061064191906139cf565b6114e8565b6040516106539190613966565b60405180910390f35b348015610667575f5ffd5b50610682600480360381019061067d9190613da6565b61159e565b005b34801561068f575f5ffd5b506106aa60048036038101906106a5919061386c565b611786565b6040516106b79190613f50565b60405180910390f35b3480156106cb575f5ffd5b506106e660048036038101906106e19190613a80565b611928565b6040516106f39190613790565b60405180910390f35b348015610707575f5ffd5b5061071061198c565b60405161071d9190613819565b60405180910390f35b348015610731575f5ffd5b5061073a611a1c565b6040516107479190613a67565b60405180910390f35b34801561075b575f5ffd5b5061077660048036038101906107719190613f9a565b611a22565b005b348015610783575f5ffd5b5061079e60048036038101906107999190614076565b611a38565b005b3480156107ab575f5ffd5b506107c660048036038101906107c19190613bb8565b611a5d565b6040516107d39190613966565b60405180910390f35b3480156107e7575f5ffd5b506107f0611b53565b6040516107fd9190613966565b60405180910390f35b348015610811575f5ffd5b5061082c6004803603810190610827919061386c565b611b60565b6040516108399190613819565b60405180910390f35b34801561084d575f5ffd5b50610856611c32565b6040516108639190613a67565b60405180910390f35b348015610877575f5ffd5b50610892600480360381019061088d9190613a80565b611c56565b005b34801561089f575f5ffd5b506108ba60048036038101906108b5919061386c565b611c78565b6040516108cc96959493929190614105565b60405180910390f35b3480156108e0575f5ffd5b506108e9611d4e565b6040516108f69190613966565b60405180910390f35b34801561090a575f5ffd5b50610913611d5b565b6040516109209190613a67565b60405180910390f35b348015610934575f5ffd5b5061094f600480360381019061094a919061416b565b611d7f565b60405161095c9190613790565b60405180910390f35b348015610970575f5ffd5b5061098b6004803603810190610986919061386c565b611e0d565b005b348015610998575f5ffd5b506109b360048036038101906109ae9190613bb8565b611f6f565b6040516109c09190613b75565b60405180910390f35b3480156109d4575f5ffd5b506109ef60048036038101906109ea91906139cf565b612144565b6040516109fc9190613790565b60405180910390f35b5f610a0f82612161565b9050919050565b60605f8054610a24906141d6565b80601f0160208091040260200160405190810160405280929190818152602001828054610a50906141d6565b8015610a9b5780601f10610a7257610100808354040283529160200191610a9b565b820191905f5260205f20905b815481529060010190602001808311610a7e57829003601f168201915b5050505050905090565b5f610aaf826121da565b50610ab982612260565b9050919050565b610ad28282610acd612299565b6122a0565b5050565b5f600880549050905090565b5f73ffffffffffffffffffffffffffffffffffffffff168273ffffffffffffffffffffffffffffffffffffffff1603610b52575f6040517f64a0ae92000000000000000000000000000000000000000000000000000000008152600401610b4991906138d6565b60405180910390fd5b5f610b658383610b60612299565b6122b2565b90508373ffffffffffffffffffffffffffffffffffffffff168173ffffffffffffffffffffffffffffffffffffffff1614610bdb578382826040517f64283d7b000000000000000000000000000000000000000000000000000000008152600401610bd293929190614206565b60405180910390fd5b50505050565b7f0ce23c3e399818cfee81a7ab0880f714e53d7672b08df0fa62f2843416e1ea09610c0b816123cc565b5f73ffffffffffffffffffffffffffffffffffffffff168273ffffffffffffffffffffffffffffffffffffffff1603610c79576040517f08c379a0000000000000000000000000000000000000000000000000000000008152600401610c7090614285565b60405180910390fd5b600c5f8373ffffffffffffffffffffffffffffffffffffffff1673ffffffffffffffffffffffffffffffffffffffff1681526020019081526020015f205f9054906101000a900460ff1615610d03576040517f08c379a0000000000000000000000000000000000000000000000000000000008152600401610cfa906142ed565b60405180910390fd5b6001600c5f8473ffffffffffffffffffffffffffffffffffffffff1673ffffffffffffffffffffffffffffffffffffffff1681526020019081526020015f205f6101000a81548160ff0219169083151502179055508173ffffffffffffffffffffffffffffffffffffffff167ff338da91446072bf7ec4ea65ab28ef537a3bc388f29aa5fa6e92ded4ff67e49b60405160405180910390a25050565b5f600a5f8381526020019081526020015f20600101549050919050565b610dc582610d9f565b610dce816123cc565b610dd883836123e0565b50505050565b5f610de8836114e8565b8210610e2d5782826040517fa57d13dc000000000000000000000000000000000000000000000000000000008152600401610e2492919061430b565b60405180910390fd5b60065f8473ffffffffffffffffffffffffffffffffffffffff1673ffffffffffffffffffffffffffffffffffffffff1681526020019081526020015f205f8381526020019081526020015f2054905092915050565b610e8a612299565b73ffffffffffffffffffffffffffffffffffffffff168173ffffffffffffffffffffffffffffffffffffffff1614610eee576040517f6697b23200000000000000000000000000000000000000000000000000000000815260040160405180910390fd5b610ef882826124ca565b505050565b683635c9adc5dea0000081565b610f2483838360405180602001604052805f815250611a38565b505050565b60605f610f35836114e8565b90505f8167ffffffffffffffff811115610f5257610f51613beb565b5b604051908082528060200260200182016040528015610f805781602001602082028036833780820191505090505b5090505f5f90505b82811015610fc657610f9a8582610dde565b828281518110610fad57610fac614332565b5b6020026020010181815250508080600101915050610f88565b508092505050919050565b5f610fda610ad6565b821061101f575f826040517fa57d13dc00000000000000000000000000000000000000000000000000000000815260040161101692919061430b565b60405180910390fd5b6008828154811061103357611032614332565b5b905f5260205f2001549050919050565b600d602052805f5260405f205f915090505481565b5f5f1b611064816123cc565b81600f908161107391906144ff565b505050565b5f600c5f8573ffffffffffffffffffffffffffffffffffffffff1673ffffffffffffffffffffffffffffffffffffffff1681526020019081526020015f205f9054906101000a900460ff16611102576040517f08c379a00000000000000000000000000000000000000000000000000000000081526004016110f990614618565b60405180910390fd5b60018210158015611114575060038211155b611153576040517f08c379a000000000000000000000000000000000000000000000000000000000815260040161114a90614680565b60405180910390fd5b5f61115d84611a5d565b9050803410156111a2576040517f08c379a0000000000000000000000000000000000000000000000000000000008152600401611199906146e8565b60405180910390fd5b600e5f8154809291906111b490614733565b9190505591506111c485836125b4565b6040518060c001604052808560028111156111e2576111e1613e00565b5b81526020018481526020013481526020015f151581526020015f815260200160405180602001604052805f815250815250600b5f8481526020019081526020015f205f820151815f015f6101000a81548160ff0219169083600281111561124c5761124b613e00565b5b021790555060208201518160010155604082015181600201556060820151816003015f6101000a81548160ff0219169083151502179055506080820151816004015560a08201518160050190816112a391906144ff565b50905050600d5f8560028111156112bd576112bc613e00565b5b60028111156112cf576112ce613e00565b5b81526020019081526020015f205f8154809291906112ec90614733565b91905055508473ffffffffffffffffffffffffffffffffffffffff16827fd74451e1cfe5c243a216ecc4998677db05bb76d5b4ecdecd089a7bdadee130d5868660405161133a92919061477a565b60405180910390a3509392505050565b5f5f73ffffffffffffffffffffffffffffffffffffffff1661136b836125d1565b73ffffffffffffffffffffffffffffffffffffffff160361138e575f90506114d2565b5f600b5f8481526020019081526020015f206040518060c00160405290815f82015f9054906101000a900460ff1660028111156113ce576113cd613e00565b5b60028111156113e0576113df613e00565b5b81526020016001820154815260200160028201548152602001600382015f9054906101000a900460ff161515151581526020016004820154815260200160058201805461142c906141d6565b80601f0160208091040260200160405190810160405280929190818152602001828054611458906141d6565b80156114a35780601f1061147a576101008083540402835291602001916114a3565b820191905f5260205f20905b81548152906001019060200180831161148657829003601f168201915b5050505050815250509050806060015180156114ce57506114c6815f0151611a5d565b816040015110155b9150505b919050565b5f6114e1826121da565b9050919050565b5f5f73ffffffffffffffffffffffffffffffffffffffff168273ffffffffffffffffffffffffffffffffffffffff1603611559575f6040517f89c62b6400000000000000000000000000000000000000000000000000000000815260040161155091906138d6565b60405180910390fd5b60035f8373ffffffffffffffffffffffffffffffffffffffff1673ffffffffffffffffffffffffffffffffffffffff1681526020019081526020015f20549050919050565b7f0ce23c3e399818cfee81a7ab0880f714e53d7672b08df0fa62f2843416e1ea096115c8816123cc565b5f73ffffffffffffffffffffffffffffffffffffffff166115e8846125d1565b73ffffffffffffffffffffffffffffffffffffffff160361163e576040517f08c379a0000000000000000000000000000000000000000000000000000000008152600401611635906147eb565b60405180910390fd5b600b5f8481526020019081526020015f206003015f9054906101000a900460ff161561169f576040517f08c379a000000000000000000000000000000000000000000000000000000000815260040161169690614853565b60405180910390fd5b5f8251116116e2576040517f08c379a00000000000000000000000000000000000000000000000000000000081526004016116d9906148bb565b60405180910390fd5b6001600b5f8581526020019081526020015f206003015f6101000a81548160ff02191690831515021790555042600b5f8581526020019081526020015f206004018190555081600b5f8581526020019081526020015f20600501908161174891906144ff565b50827f57924c16b13e5ab6f6d8539f9a56b2f89cea63b0abcd0eddc6168ef1f9d897b5836040516117799190613819565b60405180910390a2505050565b61178e6136a0565b5f73ffffffffffffffffffffffffffffffffffffffff166117ae836125d1565b73ffffffffffffffffffffffffffffffffffffffff1603611804576040517f08c379a00000000000000000000000000000000000000000000000000000000081526004016117fb906147eb565b60405180910390fd5b600b5f8381526020019081526020015f206040518060c00160405290815f82015f9054906101000a900460ff16600281111561184357611842613e00565b5b600281111561185557611854613e00565b5b81526020016001820154815260200160028201548152602001600382015f9054906101000a900460ff16151515158152602001600482015481526020016005820180546118a1906141d6565b80601f01602080910402602001604051908101604052809291908181526020018280546118cd906141d6565b80156119185780601f106118ef57610100808354040283529160200191611918565b820191905f5260205f20905b8154815290600101906020018083116118fb57829003601f168201915b5050505050815250509050919050565b5f600a5f8481526020019081526020015f205f015f8373ffffffffffffffffffffffffffffffffffffffff1673ffffffffffffffffffffffffffffffffffffffff1681526020019081526020015f205f9054906101000a900460ff16905092915050565b60606001805461199b906141d6565b80601f01602080910402602001604051908101604052809291908181526020018280546119c7906141d6565b8015611a125780601f106119e957610100808354040283529160200191611a12565b820191905f5260205f20905b8154815290600101906020018083116119f557829003601f168201915b5050505050905090565b5f5f1b81565b611a34611a2d612299565b838361260a565b5050565b611a43848484610ae2565b611a57611a4e612299565b85858585612773565b50505050565b5f5f6002811115611a7157611a70613e00565b5b826002811115611a8457611a83613e00565b5b03611a9a57683635c9adc5dea000009050611b4e565b60016002811115611aae57611aad613e00565b5b826002811115611ac157611ac0613e00565b5b03611ad757681b1ae4d6e2ef5000009050611b4e565b600280811115611aea57611ae9613e00565b5b826002811115611afd57611afc613e00565b5b03611b1357680d8d726b7177a800009050611b4e565b6040517f08c379a0000000000000000000000000000000000000000000000000000000008152600401611b4590614923565b60405180910390fd5b919050565b681b1ae4d6e2ef50000081565b60605f73ffffffffffffffffffffffffffffffffffffffff16611b82836125d1565b73ffffffffffffffffffffffffffffffffffffffff1603611bd8576040517f08c379a0000000000000000000000000000000000000000000000000000000008152600401611bcf906147eb565b60405180910390fd5b5f611be161291f565b90505f815111611bff5760405180602001604052805f815250611c2a565b80611c09846129af565b604051602001611c1a9291906149c5565b6040516020818303038152906040525b915050919050565b7f9f2df0fed2c77648de5860a4cc508cd0818c85b8b8a1ab4ceeef8d981c8956a681565b611c5f82610d9f565b611c68816123cc565b611c7283836124ca565b50505050565b600b602052805f5260405f205f91509050805f015f9054906101000a900460ff1690806001015490806002015490806003015f9054906101000a900460ff1690806004015490806005018054611ccd906141d6565b80601f0160208091040260200160405190810160405280929190818152602001828054611cf9906141d6565b8015611d445780601f10611d1b57610100808354040283529160200191611d44565b820191905f5260205f20905b815481529060010190602001808311611d2757829003601f168201915b5050505050905086565b680d8d726b7177a8000081565b7f0ce23c3e399818cfee81a7ab0880f714e53d7672b08df0fa62f2843416e1ea0981565b5f60055f8473ffffffffffffffffffffffffffffffffffffffff1673ffffffffffffffffffffffffffffffffffffffff1681526020019081526020015f205f8373ffffffffffffffffffffffffffffffffffffffff1673ffffffffffffffffffffffffffffffffffffffff1681526020019081526020015f205f9054906101000a900460ff16905092915050565b3373ffffffffffffffffffffffffffffffffffffffff16611e2d826114d7565b73ffffffffffffffffffffffffffffffffffffffff161480611e755750611e747f0ce23c3e399818cfee81a7ab0880f714e53d7672b08df0fa62f2843416e1ea0933611928565b5b611eb4576040517f08c379a0000000000000000000000000000000000000000000000000000000008152600401611eab90614a3d565b60405180910390fd5b600b5f8281526020019081526020015f206003015f9054906101000a900460ff16611f14576040517f08c379a0000000000000000000000000000000000000000000000000000000008152600401611f0b90614aa5565b60405180910390fd5b5f600b5f8381526020019081526020015f206003015f6101000a81548160ff021916908315150217905550807f225b982f3f68d9ecd9aaa2ece1c491786e6e4bf7ac4028b1ce7024691475383c60405160405180910390a250565b60605f611f7a610ad6565b90505f8167ffffffffffffffff811115611f9757611f96613beb565b5b604051908082528060200260200182016040528015611fc55781602001602082028036833780820191505090505b5090505f5f90505f5f90505b83811015612096575f611fe382610fd1565b9050866002811115611ff857611ff7613e00565b5b600b5f8381526020019081526020015f205f015f9054906101000a900460ff16600281111561202a57612029613e00565b5b1480156120545750600b5f8281526020019081526020015f206003015f9054906101000a900460ff165b15612088578084848151811061206d5761206c614332565b5b602002602001018181525050828061208490614733565b9350505b508080600101915050611fd1565b505f8167ffffffffffffffff8111156120b2576120b1613beb565b5b6040519080825280602002602001820160405280156120e05781602001602082028036833780820191505090505b5090505f5f90505b828110156121375783818151811061210357612102614332565b5b602002602001015182828151811061211e5761211d614332565b5b60200260200101818152505080806001019150506120e8565b5080945050505050919050565b600c602052805f5260405f205f915054906101000a900460ff1681565b5f7f7965db0b000000000000000000000000000000000000000000000000000000007bffffffffffffffffffffffffffffffffffffffffffffffffffffffff1916827bffffffffffffffffffffffffffffffffffffffffffffffffffffffff191614806121d357506121d282612a79565b5b9050919050565b5f5f6121e5836125d1565b90505f73ffffffffffffffffffffffffffffffffffffffff168173ffffffffffffffffffffffffffffffffffffffff160361225757826040517f7e27328900000000000000000000000000000000000000000000000000000000815260040161224e9190613966565b60405180910390fd5b80915050919050565b5f60045f8381526020019081526020015f205f9054906101000a900473ffffffffffffffffffffffffffffffffffffffff169050919050565b5f33905090565b6122ad8383836001612af2565b505050565b5f5f6122bf858585612cb1565b90505f73ffffffffffffffffffffffffffffffffffffffff168173ffffffffffffffffffffffffffffffffffffffff1603612302576122fd84612ebc565b612341565b8473ffffffffffffffffffffffffffffffffffffffff168173ffffffffffffffffffffffffffffffffffffffff16146123405761233f8185612f00565b5b5b5f73ffffffffffffffffffffffffffffffffffffffff168573ffffffffffffffffffffffffffffffffffffffff16036123825761237d84612fd7565b6123c1565b8473ffffffffffffffffffffffffffffffffffffffff168173ffffffffffffffffffffffffffffffffffffffff16146123c0576123bf8585613097565b5b5b809150509392505050565b6123dd816123d8612299565b61311b565b50565b5f6123eb8383611928565b6124c0576001600a5f8581526020019081526020015f205f015f8473ffffffffffffffffffffffffffffffffffffffff1673ffffffffffffffffffffffffffffffffffffffff1681526020019081526020015f205f6101000a81548160ff02191690831515021790555061245d612299565b73ffffffffffffffffffffffffffffffffffffffff168273ffffffffffffffffffffffffffffffffffffffff16847f2f8788117e7eff1d82e926ec794901d17c78024a50270940304540a733656f0d60405160405180910390a4600190506124c4565b5f90505b92915050565b5f6124d58383611928565b156125aa575f600a5f8581526020019081526020015f205f015f8473ffffffffffffffffffffffffffffffffffffffff1673ffffffffffffffffffffffffffffffffffffffff1681526020019081526020015f205f6101000a81548160ff021916908315150217905550612547612299565b73ffffffffffffffffffffffffffffffffffffffff168273ffffffffffffffffffffffffffffffffffffffff16847ff6391f5c32d9c69d2a47ea670b442974b53935d1edc7fd64eb21e047a839171b60405160405180910390a4600190506125ae565b5f90505b92915050565b6125cd828260405180602001604052805f81525061316c565b5050565b5f60025f8381526020019081526020015f205f9054906101000a900473ffffffffffffffffffffffffffffffffffffffff169050919050565b5f73ffffffffffffffffffffffffffffffffffffffff168273ffffffffffffffffffffffffffffffffffffffff160361267a57816040517f5b08ba1800000000000000000000000000000000000000000000000000000000815260040161267191906138d6565b60405180910390fd5b8060055f8573ffffffffffffffffffffffffffffffffffffffff1673ffffffffffffffffffffffffffffffffffffffff1681526020019081526020015f205f8473ffffffffffffffffffffffffffffffffffffffff1673ffffffffffffffffffffffffffffffffffffffff1681526020019081526020015f205f6101000a81548160ff0219169083151502179055508173ffffffffffffffffffffffffffffffffffffffff168373ffffffffffffffffffffffffffffffffffffffff167f17307eab39ab6107e8899845ad3d59bd9653f200f220920489ca2b5937696c31836040516127669190613790565b60405180910390a3505050565b5f8373ffffffffffffffffffffffffffffffffffffffff163b1115612918578273ffffffffffffffffffffffffffffffffffffffff1663150b7a02868685856040518563ffffffff1660e01b81526004016127d19493929190614b15565b6020604051808303815f875af192505050801561280c57506040513d601f19601f820116820180604052508101906128099190614b73565b60015b61288d573d805f811461283a576040519150601f19603f3d011682016040523d82523d5f602084013e61283f565b606091505b505f81510361288557836040517f64a0ae9200000000000000000000000000000000000000000000000000000000815260040161287c91906138d6565b60405180910390fd5b805160208201fd5b63150b7a0260e01b7bffffffffffffffffffffffffffffffffffffffffffffffffffffffff1916817bffffffffffffffffffffffffffffffffffffffffffffffffffffffff19161461291657836040517f64a0ae9200000000000000000000000000000000000000000000000000000000815260040161290d91906138d6565b60405180910390fd5b505b5050505050565b6060600f805461292e906141d6565b80601f016020809104026020016040519081016040528092919081815260200182805461295a906141d6565b80156129a55780601f1061297c576101008083540402835291602001916129a5565b820191905f5260205f20905b81548152906001019060200180831161298857829003601f168201915b5050505050905090565b60605f60016129bd8461318f565b0190505f8167ffffffffffffffff8111156129db576129da613beb565b5b6040519080825280601f01601f191660200182016040528015612a0d5781602001600182028036833780820191505090505b5090505f82602083010190505b600115612a6e578080600190039150507f3031323334353637383961626364656600000000000000000000000000000000600a86061a8153600a8581612a6357612a62614b9e565b5b0494505f8503612a1a575b819350505050919050565b5f7f780e9d63000000000000000000000000000000000000000000000000000000007bffffffffffffffffffffffffffffffffffffffffffffffffffffffff1916827bffffffffffffffffffffffffffffffffffffffffffffffffffffffff19161480612aeb5750612aea826132e0565b5b9050919050565b8080612b2a57505f73ffffffffffffffffffffffffffffffffffffffff168273ffffffffffffffffffffffffffffffffffffffff1614155b15612c5c575f612b39846121da565b90505f73ffffffffffffffffffffffffffffffffffffffff168373ffffffffffffffffffffffffffffffffffffffff1614158015612ba357508273ffffffffffffffffffffffffffffffffffffffff168173ffffffffffffffffffffffffffffffffffffffff1614155b8015612bb65750612bb48184611d7f565b155b15612bf857826040517fa9fbf51f000000000000000000000000000000000000000000000000000000008152600401612bef91906138d6565b60405180910390fd5b8115612c5a57838573ffffffffffffffffffffffffffffffffffffffff168273ffffffffffffffffffffffffffffffffffffffff167f8c5be1e5ebec7d5bd14f71427d1e84f3dd0314c0f7b2291e5b200ac8c7c3b92560405160405180910390a45b505b8360045f8581526020019081526020015f205f6101000a81548173ffffffffffffffffffffffffffffffffffffffff021916908373ffffffffffffffffffffffffffffffffffffffff16021790555050505050565b5f5f612cbc846125d1565b90505f73ffffffffffffffffffffffffffffffffffffffff168373ffffffffffffffffffffffffffffffffffffffff1614612cfd57612cfc8184866133c1565b5b5f73ffffffffffffffffffffffffffffffffffffffff168173ffffffffffffffffffffffffffffffffffffffff1614612d8857612d3c5f855f5f612af2565b600160035f8373ffffffffffffffffffffffffffffffffffffffff1673ffffffffffffffffffffffffffffffffffffffff1681526020019081526020015f205f82825403925050819055505b5f73ffffffffffffffffffffffffffffffffffffffff168573ffffffffffffffffffffffffffffffffffffffff1614612e0757600160035f8773ffffffffffffffffffffffffffffffffffffffff1673ffffffffffffffffffffffffffffffffffffffff1681526020019081526020015f205f82825401925050819055505b8460025f8681526020019081526020015f205f6101000a81548173ffffffffffffffffffffffffffffffffffffffff021916908373ffffffffffffffffffffffffffffffffffffffff160217905550838573ffffffffffffffffffffffffffffffffffffffff168273ffffffffffffffffffffffffffffffffffffffff167fddf252ad1be2c89b69c2b068fc378daa952ba7f163c4a11628f55a4df523b3ef60405160405180910390a4809150509392505050565b60088054905060095f8381526020019081526020015f2081905550600881908060018154018082558091505060019003905f5260205f20015f909190919091505550565b5f612f0a836114e8565b90505f60075f8481526020019081526020015f205490505f60065f8673ffffffffffffffffffffffffffffffffffffffff1673ffffffffffffffffffffffffffffffffffffffff1681526020019081526020015f209050828214612fa9575f815f8581526020019081526020015f2054905080825f8581526020019081526020015f20819055508260075f8381526020019081526020015f2081905550505b60075f8581526020019081526020015f205f9055805f8481526020019081526020015f205f90555050505050565b5f6001600880549050612fea9190614bcb565b90505f60095f8481526020019081526020015f205490505f6008838154811061301657613015614332565b5b905f5260205f2001549050806008838154811061303657613035614332565b5b905f5260205f2001819055508160095f8381526020019081526020015f208190555060095f8581526020019081526020015f205f9055600880548061307e5761307d614bfe565b5b600190038181905f5260205f20015f9055905550505050565b5f60016130a3846114e8565b6130ad9190614bcb565b90508160065f8573ffffffffffffffffffffffffffffffffffffffff1673ffffffffffffffffffffffffffffffffffffffff1681526020019081526020015f205f8381526020019081526020015f20819055508060075f8481526020019081526020015f2081905550505050565b6131258282611928565b6131685780826040517fe2517d3f00000000000000000000000000000000000000000000000000000000815260040161315f929190614c2b565b60405180910390fd5b5050565b6131768383613484565b61318a613181612299565b5f858585612773565b505050565b5f5f5f90507a184f03e93ff9f4daa797ed6e38ed64bf6a1f01000000000000000083106131eb577a184f03e93ff9f4daa797ed6e38ed64bf6a1f01000000000000000083816131e1576131e0614b9e565b5b0492506040810190505b6d04ee2d6d415b85acef81000000008310613228576d04ee2d6d415b85acef8100000000838161321e5761321d614b9e565b5b0492506020810190505b662386f26fc10000831061325757662386f26fc10000838161324d5761324c614b9e565b5b0492506010810190505b6305f5e1008310613280576305f5e100838161327657613275614b9e565b5b0492506008810190505b61271083106132a557612710838161329b5761329a614b9e565b5b0492506004810190505b606483106132c857606483816132be576132bd614b9e565b5b0492506002810190505b600a83106132d7576001810190505b80915050919050565b5f7f80ac58cd000000000000000000000000000000000000000000000000000000007bffffffffffffffffffffffffffffffffffffffffffffffffffffffff1916827bffffffffffffffffffffffffffffffffffffffffffffffffffffffff191614806133aa57507f5b5e139f000000000000000000000000000000000000000000000000000000007bffffffffffffffffffffffffffffffffffffffffffffffffffffffff1916827bffffffffffffffffffffffffffffffffffffffffffffffffffffffff1916145b806133ba57506133b982613577565b5b9050919050565b6133cc8383836135e0565b61347f575f73ffffffffffffffffffffffffffffffffffffffff168373ffffffffffffffffffffffffffffffffffffffff160361344057806040517f7e2732890000000000000000000000000000000000000000000000000000000081526004016134379190613966565b60405180910390fd5b81816040517f177e802f00000000000000000000000000000000000000000000000000000000815260040161347692919061430b565b60405180910390fd5b505050565b5f73ffffffffffffffffffffffffffffffffffffffff168273ffffffffffffffffffffffffffffffffffffffff16036134f4575f6040517f64a0ae920000000000000000000000000000000000000000000000000000000081526004016134eb91906138d6565b60405180910390fd5b5f61350083835f6122b2565b90505f73ffffffffffffffffffffffffffffffffffffffff168173ffffffffffffffffffffffffffffffffffffffff1614613572575f6040517f73c6ac6e00000000000000000000000000000000000000000000000000000000815260040161356991906138d6565b60405180910390fd5b505050565b5f7f01ffc9a7000000000000000000000000000000000000000000000000000000007bffffffffffffffffffffffffffffffffffffffffffffffffffffffff1916827bffffffffffffffffffffffffffffffffffffffffffffffffffffffff1916149050919050565b5f5f73ffffffffffffffffffffffffffffffffffffffff168373ffffffffffffffffffffffffffffffffffffffff161415801561369757508273ffffffffffffffffffffffffffffffffffffffff168473ffffffffffffffffffffffffffffffffffffffff16148061365857506136578484611d7f565b5b8061369657508273ffffffffffffffffffffffffffffffffffffffff1661367e83612260565b73ffffffffffffffffffffffffffffffffffffffff16145b5b90509392505050565b6040518060c001604052805f60028111156136be576136bd613e00565b5b81526020015f81526020015f81526020015f151581526020015f8152602001606081525090565b5f604051905090565b5f5ffd5b5f5ffd5b5f7fffffffff0000000000000000000000000000000000000000000000000000000082169050919050565b61372a816136f6565b8114613734575f5ffd5b50565b5f8135905061374581613721565b92915050565b5f602082840312156137605761375f6136ee565b5b5f61376d84828501613737565b91505092915050565b5f8115159050919050565b61378a81613776565b82525050565b5f6020820190506137a35f830184613781565b92915050565b5f81519050919050565b5f82825260208201905092915050565b8281835e5f83830152505050565b5f601f19601f8301169050919050565b5f6137eb826137a9565b6137f581856137b3565b93506138058185602086016137c3565b61380e816137d1565b840191505092915050565b5f6020820190508181035f83015261383181846137e1565b905092915050565b5f819050919050565b61384b81613839565b8114613855575f5ffd5b50565b5f8135905061386681613842565b92915050565b5f60208284031215613881576138806136ee565b5b5f61388e84828501613858565b91505092915050565b5f73ffffffffffffffffffffffffffffffffffffffff82169050919050565b5f6138c082613897565b9050919050565b6138d0816138b6565b82525050565b5f6020820190506138e95f8301846138c7565b92915050565b6138f8816138b6565b8114613902575f5ffd5b50565b5f81359050613913816138ef565b92915050565b5f5f6040838503121561392f5761392e6136ee565b5b5f61393c85828601613905565b925050602061394d85828601613858565b9150509250929050565b61396081613839565b82525050565b5f6020820190506139795f830184613957565b92915050565b5f5f5f60608486031215613996576139956136ee565b5b5f6139a386828701613905565b93505060206139b486828701613905565b92505060406139c586828701613858565b9150509250925092565b5f602082840312156139e4576139e36136ee565b5b5f6139f184828501613905565b91505092915050565b5f819050919050565b613a0c816139fa565b8114613a16575f5ffd5b50565b5f81359050613a2781613a03565b92915050565b5f60208284031215613a4257613a416136ee565b5b5f613a4f84828501613a19565b91505092915050565b613a61816139fa565b82525050565b5f602082019050613a7a5f830184613a58565b92915050565b5f5f60408385031215613a9657613a956136ee565b5b5f613aa385828601613a19565b9250506020613ab485828601613905565b9150509250929050565b5f81519050919050565b5f82825260208201905092915050565b5f819050602082019050919050565b613af081613839565b82525050565b5f613b018383613ae7565b60208301905092915050565b5f602082019050919050565b5f613b2382613abe565b613b2d8185613ac8565b9350613b3883613ad8565b805f5b83811015613b68578151613b4f8882613af6565b9750613b5a83613b0d565b925050600181019050613b3b565b5085935050505092915050565b5f6020820190508181035f830152613b8d8184613b19565b905092915050565b60038110613ba1575f5ffd5b50565b5f81359050613bb281613b95565b92915050565b5f60208284031215613bcd57613bcc6136ee565b5b5f613bda84828501613ba4565b91505092915050565b5f5ffd5b5f5ffd5b7f4e487b71000000000000000000000000000000000000000000000000000000005f52604160045260245ffd5b613c21826137d1565b810181811067ffffffffffffffff82111715613c4057613c3f613beb565b5b80604052505050565b5f613c526136e5565b9050613c5e8282613c18565b919050565b5f67ffffffffffffffff821115613c7d57613c7c613beb565b5b613c86826137d1565b9050602081019050919050565b828183375f83830152505050565b5f613cb3613cae84613c63565b613c49565b905082815260208101848484011115613ccf57613cce613be7565b5b613cda848285613c93565b509392505050565b5f82601f830112613cf657613cf5613be3565b5b8135613d06848260208601613ca1565b91505092915050565b5f60208284031215613d2457613d236136ee565b5b5f82013567ffffffffffffffff811115613d4157613d406136f2565b5b613d4d84828501613ce2565b91505092915050565b5f5f5f60608486031215613d6d57613d6c6136ee565b5b5f613d7a86828701613905565b9350506020613d8b86828701613ba4565b9250506040613d9c86828701613858565b9150509250925092565b5f5f60408385031215613dbc57613dbb6136ee565b5b5f613dc985828601613858565b925050602083013567ffffffffffffffff811115613dea57613de96136f2565b5b613df685828601613ce2565b9150509250929050565b7f4e487b71000000000000000000000000000000000000000000000000000000005f52602160045260245ffd5b60038110613e3e57613e3d613e00565b5b50565b5f819050613e4e82613e2d565b919050565b5f613e5d82613e41565b9050919050565b613e6d81613e53565b82525050565b613e7c81613776565b82525050565b5f82825260208201905092915050565b5f613e9c826137a9565b613ea68185613e82565b9350613eb68185602086016137c3565b613ebf816137d1565b840191505092915050565b5f60c083015f830151613edf5f860182613e64565b506020830151613ef26020860182613ae7565b506040830151613f056040860182613ae7565b506060830151613f186060860182613e73565b506080830151613f2b6080860182613ae7565b5060a083015184820360a0860152613f438282613e92565b9150508091505092915050565b5f6020820190508181035f830152613f688184613eca565b905092915050565b613f7981613776565b8114613f83575f5ffd5b50565b5f81359050613f9481613f70565b92915050565b5f5f60408385031215613fb057613faf6136ee565b5b5f613fbd85828601613905565b9250506020613fce85828601613f86565b9150509250929050565b5f67ffffffffffffffff821115613ff257613ff1613beb565b5b613ffb826137d1565b9050602081019050919050565b5f61401a61401584613fd8565b613c49565b90508281526020810184848401111561403657614035613be7565b5b614041848285613c93565b509392505050565b5f82601f83011261405d5761405c613be3565b5b813561406d848260208601614008565b91505092915050565b5f5f5f5f6080858703121561408e5761408d6136ee565b5b5f61409b87828801613905565b94505060206140ac87828801613905565b93505060406140bd87828801613858565b925050606085013567ffffffffffffffff8111156140de576140dd6136f2565b5b6140ea87828801614049565b91505092959194509250565b6140ff81613e53565b82525050565b5f60c0820190506141185f8301896140f6565b6141256020830188613957565b6141326040830187613957565b61413f6060830186613781565b61414c6080830185613957565b81810360a083015261415e81846137e1565b9050979650505050505050565b5f5f60408385031215614181576141806136ee565b5b5f61418e85828601613905565b925050602061419f85828601613905565b9150509250929050565b7f4e487b71000000000000000000000000000000000000000000000000000000005f52602260045260245ffd5b5f60028204905060018216806141ed57607f821691505b602082108103614200576141ff6141a9565b5b50919050565b5f6060820190506142195f8301866138c7565b6142266020830185613957565b61423360408301846138c7565b949350505050565b7f496e76616c6964206f70657261746f72000000000000000000000000000000005f82015250565b5f61426f6010836137b3565b915061427a8261423b565b602082019050919050565b5f6020820190508181035f83015261429c81614263565b9050919050565b7f416c726561647920617070726f766564000000000000000000000000000000005f82015250565b5f6142d76010836137b3565b91506142e2826142a3565b602082019050919050565b5f6020820190508181035f830152614304816142cb565b9050919050565b5f60408201905061431e5f8301856138c7565b61432b6020830184613957565b9392505050565b7f4e487b71000000000000000000000000000000000000000000000000000000005f52603260045260245ffd5b5f819050815f5260205f209050919050565b5f6020601f8301049050919050565b5f82821b905092915050565b5f600883026143bb7fffffffffffffffffffffffffffffffffffffffffffffffffffffffffffffffff82614380565b6143c58683614380565b95508019841693508086168417925050509392505050565b5f819050919050565b5f6144006143fb6143f684613839565b6143dd565b613839565b9050919050565b5f819050919050565b614419836143e6565b61442d61442582614407565b84845461438c565b825550505050565b5f5f905090565b614444614435565b61444f818484614410565b505050565b5b81811015614472576144675f8261443c565b600181019050614455565b5050565b601f8211156144b7576144888161435f565b61449184614371565b810160208510156144a0578190505b6144b46144ac85614371565b830182614454565b50505b505050565b5f82821c905092915050565b5f6144d75f19846008026144bc565b1980831691505092915050565b5f6144ef83836144c8565b9150826002028217905092915050565b614508826137a9565b67ffffffffffffffff81111561452157614520613beb565b5b61452b82546141d6565b614536828285614476565b5f60209050601f831160018114614567575f8415614555578287015190505b61455f85826144e4565b8655506145c6565b601f1984166145758661435f565b5f5b8281101561459c57848901518255600182019150602085019450602081019050614577565b868310156145b957848901516145b5601f8916826144c8565b8355505b6001600288020188555050505b505050505050565b7f4f70657261746f72206e6f7420617070726f76656400000000000000000000005f82015250565b5f6146026015836137b3565b915061460d826145ce565b602082019050919050565b5f6020820190508181035f83015261462f816145f6565b9050919050565b7f496e76616c6964207469657200000000000000000000000000000000000000005f82015250565b5f61466a600c836137b3565b915061467582614636565b602082019050919050565b5f6020820190508181035f8301526146978161465e565b9050919050565b7f496e73756666696369656e74207374616b6500000000000000000000000000005f82015250565b5f6146d26012836137b3565b91506146dd8261469e565b602082019050919050565b5f6020820190508181035f8301526146ff816146c6565b9050919050565b7f4e487b71000000000000000000000000000000000000000000000000000000005f52601160045260245ffd5b5f61473d82613839565b91507fffffffffffffffffffffffffffffffffffffffffffffffffffffffffffffffff820361476f5761476e614706565b5b600182019050919050565b5f60408201905061478d5f8301856140f6565b61479a6020830184613957565b9392505050565b7f546f6b656e20646f6573206e6f742065786973740000000000000000000000005f82015250565b5f6147d56014836137b3565b91506147e0826147a1565b602082019050919050565b5f6020820190508181035f830152614802816147c9565b9050919050565b7f4e6f646520616c726561647920616374697665000000000000000000000000005f82015250565b5f61483d6013836137b3565b915061484882614809565b602082019050919050565b5f6020820190508181035f83015261486a81614831565b9050919050565b7f496e76616c6964206861726477617265206861736800000000000000000000005f82015250565b5f6148a56015836137b3565b91506148b082614871565b602082019050919050565b5f6020820190508181035f8301526148d281614899565b9050919050565b7f496e76616c6964206e6f646520747970650000000000000000000000000000005f82015250565b5f61490d6011836137b3565b9150614918826148d9565b602082019050919050565b5f6020820190508181035f83015261493a81614901565b9050919050565b5f81905092915050565b5f614955826137a9565b61495f8185614941565b935061496f8185602086016137c3565b80840191505092915050565b7f2e6a736f6e0000000000000000000000000000000000000000000000000000005f82015250565b5f6149af600583614941565b91506149ba8261497b565b600582019050919050565b5f6149d0828561494b565b91506149dc828461494b565b91506149e7826149a3565b91508190509392505050565b7f4e6f7420617574686f72697a65640000000000000000000000000000000000005f82015250565b5f614a27600e836137b3565b9150614a32826149f3565b602082019050919050565b5f6020820190508181035f830152614a5481614a1b565b9050919050565b7f4e6f6465206e6f742061637469766500000000000000000000000000000000005f82015250565b5f614a8f600f836137b3565b9150614a9a82614a5b565b602082019050919050565b5f6020820190508181035f830152614abc81614a83565b9050919050565b5f81519050919050565b5f82825260208201905092915050565b5f614ae782614ac3565b614af18185614acd565b9350614b018185602086016137c3565b614b0a816137d1565b840191505092915050565b5f608082019050614b285f8301876138c7565b614b3560208301866138c7565b614b426040830185613957565b8181036060830152614b548184614add565b905095945050505050565b5f81519050614b6d81613721565b92915050565b5f60208284031215614b8857614b876136ee565b5b5f614b9584828501614b5f565b91505092915050565b7f4e487b71000000000000000000000000000000000000000000000000000000005f52601260045260245ffd5b5f614bd582613839565b9150614be083613839565b9250828203905081811115614bf857614bf7614706565b5b92915050565b7f4e487b71000000000000000000000000000000000000000000000000000000005f52603160045260245ffd5b5f604082019050614c3e5f8301856138c7565b614c4b6020830184613a58565b939250505056fea26469706673582212207c0510c091c49c56f82fb6c6fcc521fe66b06b5d9da3ef6a773f40441bf53b9964736f6c634300081e0033","linkReferences":{}},"methodIdentifiers":{"DEFAULT_ADMIN_ROLE()":"a217fddf","GUARDIAN_STAKE()":"c8675835","MINTER_ROLE()":"d5391393","ORACLE_STAKE()":"3b1f2912","VALIDATOR_STAKE()":"e6f8afe1","VERIFIER_ROLE()":"e7705db6","activateNode(uint256,string)":"728aaa7a","approve(address,uint256)":"095ea7b3","approveOperator(address)":"242cae9f","approvedOperators(address)":"ff721aba","balanceOf(address)":"70a08231","deactivateNode(uint256)":"e9d63830","getActiveNodesByType(uint8)":"eaf8652e","getApproved(uint256)":"081812fc","getNodeMetadata(uint256)":"783ac75e","getNodesByOwner(address)":"42fcf250","getRequiredStake(uint8)":"c23a6f5a","getRoleAdmin(bytes32)":"248a9ca3","grantRole(bytes32,address)":"2f2ff15d","hasRole(bytes32,address)":"91d14854","isApprovedForAll(address,address)":"e985e9c5","isNodeEligible(uint256)":"5b0b3062","mintNode(address,uint8,uint256)":"58b6d54f","name()":"06fdde03","nodeMetadata(uint256)":"d58554bf","nodeTypeCount(uint8)":"500a97d8","ownerOf(uint256)":"6352211e","renounceRole(bytes32,address)":"36568abe","revokeRole(bytes32,address)":"d547741f","safeTransferFrom(address,address,uint256)":"42842e0e","safeTransferFrom(address,address,uint256,bytes)":"b88d4fde","setApprovalForAll(address,bool)":"a22cb465","setBaseURI(string)":"55f804b3","supportsInterface(bytes4)":"01ffc9a7","symbol()":"95d89b41","tokenByIndex(uint256)":"4f6ccce7","tokenOfOwnerByIndex(address,uint256)":"2f745c59","tokenURI(uint256)":"c87b56dd","totalSupply()":"18160ddd","transferFrom(address,address,uint256)":"23b872dd"},"id":39}