{"abi":[{"type":"constructor","inputs":[{"name":"name","type":"string","internalType":"string"},{"name":"symbol","type":"string","internalType":"string"},{"name":"baseURI","type":"string","internalType":"string"},{"name":"admin","type":"address","internalType":"address"}],"stateMutability":"nonpayable"},{"type":"function","name":"DEFAULT_ADMIN_ROLE","inputs":[],"outputs":[{"name":"","type":"bytes32","internalType":"bytes32"}],"stateMutability":"view"},{"type":"function","name":"GUARDIAN_STAKE","inputs":[],"outputs":[{"name":"","type":"uint256","internalType":"uint256"}],"stateMutability":"view"},{"type":"function","name":"MINTER_ROLE","inputs":[],"outputs":[{"name":"","type":"bytes32","internalType":"bytes32"}],"stateMutability":"view"},{"type":"function","name":"ORACLE_STAKE","inputs":[],"outputs":[{"name":"","type":"uint256","internalType":"uint256"}],"stateMutability":"view"},{"type":"function","name":"VALIDATOR_STAKE","inputs":[],"outputs":[{"name":"","type":"uint256","internalType":"uint256"}],"stateMutability":"view"},{"type":"function","name":"VERIFIER_ROLE","inputs":[],"outputs":[{"name":"","type":"bytes32","internalType":"bytes32"}],"stateMutability":"view"},{"type":"function","name":"activateNode","inputs":[{"name":"tokenId","type":"uint256","internalType":"uint256"},{"name":"hardwareHash","type":"string","internalType":"string"}],"outputs":[],"stateMutability":"nonpayable"},{"type":"function","name":"approve","inputs":[{"name":"to","type":"address","internalType":"address"},{"name":"tokenId","type":"uint256","internalType":"uint256"}],"outputs":[],"stateMutability":"nonpayable"},{"type":"function","name":"approveOperator","inputs":[{"name":"operator","type":"address","internalType":"address"}],"outputs":[],"stateMutability":"nonpayable"},{"type":"function","name":"approvedOperators","inputs":[{"name":"","type":"address","internalType":"address"}],"outputs":[{"name":"","type":"bool","internalType":"bool"}],"stateMutability":"view"},{"type":"function","name":"balanceOf","inputs":[{"name":"owner","type":"address","internalType":"address"}],"outputs":[{"name":"","type":"uint256","internalType":"uint256"}],"stateMutability":"view"},{"type":"function","name":"deactivateNode","inputs":[{"name":"tokenId","type":"uint256","internalType":"uint256"}],"outputs":[],"stateMutability":"nonpayable"},{"type":"function","name":"getActiveNodesByType","inputs":[{"name":"nodeType","type":"uint8","internalType":"enum NodeNFT.NodeType"}],"outputs":[{"name":"","type":"uint256[]","internalType":"uint256[]"}],"stateMutability":"view"},{"type":"function","name":"getApproved","inputs":[{"name":"tokenId","type":"uint256","internalType":"uint256"}],"outputs":[{"name":"","type":"address","internalType":"address"}],"stateMutability":"view"},{"type":"function","name":"getNodeMetadata","inputs":[{"name":"tokenId","type":"uint256","internalType":"uint256"}],"outputs":[{"name":"","type":"tuple","internalType":"struct NodeNFT.NodeMetadata","components":[{"name":"nodeType","type":"uint8","internalType":"enum NodeNFT.NodeType"},{"name":"tier","type":"uint256","internalType":"uint256"},{"name":"stakingAmount","type":"uint256","internalType":"uint256"},{"name":"isActive","type":"bool","internalType":"bool"},{"name":"activatedAt","type":"uint256","internalType":"uint256"},{"name":"hardwareHash","type":"string","internalType":"string"}]}],"stateMutability":"view"},{"type":"function","name":"getNodesByOwner","inputs":[{"name":"owner","type":"address","internalType":"address"}],"outputs":[{"name":"","type":"uint256[]","internalType":"uint256[]"}],"stateMutability":"view"},{"type":"function","name":"getRequiredStake","inputs":[{"name":"nodeType","type":"uint8","internalType":"enum NodeNFT.NodeType"}],"outputs":[{"name":"","type":"uint256","internalType":"uint256"}],"stateMutability":"pure"},{"type":"function","name":"getRoleAdmin","inputs":[{"name":"role","type":"bytes32","internalType":"bytes32"}],"outputs":[{"name":"","type":"bytes32","internalType":"bytes32"}],"stateMutability":"view"},{"type":"function","name":"grantRole","inputs":[{"name":"role","type":"bytes32","internalType":"bytes32"},{"name":"account","type":"address","internalType":"address"}],"outputs":[],"stateMutability":"nonpayable"},{"type":"function","name":"hasRole","inputs":[{"name":"role","type":"bytes32","internalType":"bytes32"},{"name":"account","type":"address","internalType":"address"}],"outputs":[{"name":"","type":"bool","internalType":"bool"}],"stateMutability":"view"},{"type":"function","name":"isApprovedForAll","inputs":[{"name":"owner","type":"address","internalType":"address"},{"name":"operator","type":"address","internalType":"address"}],"outputs":[{"name":"","type":"bool","internalType":"bool"}],"stateMutability":"view"},{"type":"function","name":"isNodeEligible","inputs":[{"name":"tokenId","type":"uint256","internalType":"uint256"}],"outputs":[{"name":"","type":"bool","internalType":"bool"}],"stateMutability":"view"},{"type":"function","name":"mintNode","inputs":[{"name":"to","type":"address","internalType":"address"},{"name":"nodeType","type":"uint8","internalType":"enum NodeNFT.NodeType"},{"name":"tier","type":"uint256","internalType":"uint256"}],"outputs":[{"name":"tokenId","type":"uint256","internalType":"uint256"}],"stateMutability":"payable"},{"type":"function","name":"name","inputs":[],"outputs":[{"name":"","type":"string","internalType":"string"}],"stateMutability":"view"},{"type":"function","name":"nodeMetadata","inputs":[{"name":"","type":"uint256","internalType":"uint256"}],"outputs":[{"name":"nodeType","type":"uint8","internalType":"enum NodeNFT.NodeType"},{"name":"tier","type":"uint256","internalType":"uint256"},{"name":"stakingAmount","type":"uint256","internalType":"uint256"},{"name":"isActive","type":"bool","internalType":"bool"},{"name":"activatedAt","type":"uint256","internalType":"uint256"},{"name":"hardwareHash","type":"string","internalType":"string"}],"stateMutability":"view"},{"type":"function","name":"nodeTypeCount","inputs":[{"name":"","type":"uint8","internalType":"enum NodeNFT.NodeType"}],"outputs":[{"name":"","type":"uint256","internalType":"uint256"}],"stateMutability":"view"},{"type":"function","name":"ownerOf","inputs":[{"name":"tokenId","type":"uint256","internalType":"uint256"}],"outputs":[{"name":"","type":"address","internalType":"address"}],"stateMutability":"view"},{"type":"function","name":"renounceRole","inputs":[{"name":"role","type":"bytes32","internalType":"bytes32"},{"name":"callerConfirmation","type":"address","internalType":"address"}],"outputs":[],"stateMutability":"nonpayable"},{"type":"function","name":"revokeRole","inputs":[{"name":"role","type":"bytes32","internalType":"bytes32"},{"name":"account","type":"address","internalType":"address"}],"outputs":[],"stateMutability":"nonpayable"},{"type":"function","name":"safeTransferFrom","inputs":[{"name":"from","type":"address","internalType":"address"},{"name":"to","type":"address","internalType":"address"},{"name":"tokenId","type":"uint256","internalType":"uint256"}],"outputs":[],"stateMutability":"nonpayable"},{"type":"function","name":"safeTransferFrom","inputs":[{"name":"from","type":"address","internalType":"address"},{"name":"to","type":"address","internalType":"address"},{"name":"tokenId","type":"uint256","internalType":"uint256"},{"name":"data","type":"bytes","internalType":"bytes"}],"outputs":[],"stateMutability":"nonpayable"},{"type":"function","name":"setApprovalForAll","inputs":[{"name":"operator","type":"address","internalType":"address"},{"name":"approved","type":"bool","internalType":"bool"}],"outputs":[],"stateMutability":"nonpayable"},{"type":"function","name":"setBaseURI","inputs":[{"name":"baseURI","type":"string","internalType":"string"}],"outputs":[],"stateMutability":"nonpayable"},{"type":"function","name":"supportsInterface","inputs":[{"name":"interfaceId","type":"bytes4","internalType":"bytes4"}],"outputs":[{"name":"","type":"bool","internalType":"bool"}],"stateMutability":"view"},{"type":"function","name":"symbol","inputs":[],"outputs":[{"name":"","type":"string","internalType":"string"}],"stateMutability":"view"},{"type":"function","name":"tokenByIndex","inputs":[{"name":"index","type":"uint256","internalType":"uint256"}],"outputs":[{"name":"","type":"uint256","internalType":"uint256"}],"stateMutability":"view"},{"type":"function","name":"tokenOfOwnerByIndex","inputs":[{"name":"owner","type":"address","internalType":"address"},{"name":"index","type":"uint256","internalType":"uint256"}],"outputs":[{"name":"","type":"uint256","internalType":"uint256"}],"stateMutability":"view"},{"type":"function","name":"tokenURI","inputs":[{"name":"tokenId","type":"uint256","internalType":"uint256"}],"outputs":[{"name":"","type":"string","internalType":"string"}],"stateMutability":"view"},{"type":"function","name":"totalSupply","inputs":[],"outputs":[{"name":"","type":"uint256","internalType":"uint256"}],"stateMutability":"view"},{"type":"function","name":"transferFrom","inputs":[{"name":"from","type":"address","internalType":"address"},{"name":"to","type":"address","internalType":"address"},{"name":"tokenId","type":"uint256","internalType":"uint256"}],"outputs":[],"stateMutability":"nonpayable"},{"type":"event","name":"Approval","inputs":[{"name":"owner","type":"address","indexed":true,"internalType":"address"},{"name":"approved","type":"address","indexed":true,"internalType":"address"},{"name":"tokenId","type":"uint256","indexed":true,"internalType":"uint256"}],"anonymous":false},{"type":"event","name":"ApprovalForAll","inputs":[{"name":"owner","type":"address","indexed":true,"internalType":"address"},{"name":"operator","type":"address","indexed":true,"internalType":"address"},{"name":"approved","type":"bool","indexed":false,"internalType":"bool"}],"anonymous":false},{"type":"event","name":"NodeActivated","inputs":[{"name":"tokenId","type":"uint256","indexed":true,"internalType":"uint256"},{"name":"hardwareHash","type":"string","indexed":false,"internalType":"string"}],"anonymous":false},{"type":"event","name":"NodeDeactivated","inputs":[{"name":"tokenId","type":"uint256","indexed":true,"internalType":"uint256"}],"anonymous":false},{"type":"event","name":"NodeMinted","inputs":[{"name":"tokenId","type":"uint256","indexed":true,"internalType":"uint256"},{"name":"operator","type":"address","indexed":true,"internalType":"address"},{"name":"nodeType","type":"uint8","indexed":false,"internalType":"enum NodeNFT.NodeType"},{"name":"tier","type":"uint256","indexed":false,"internalType":"uint256"}],"anonymous":false},{"type":"event","name":"OperatorApproved","inputs":[{"name":"operator","type":"address","indexed":true,"internalType":"address"}],"anonymous":false},{"type":"event","name":"OperatorRevoked","inputs":[{"name":"operator","type":"address","indexed":true,"internalType":"address"}],"anonymous":false},{"type":"event","name":"RoleAdminChanged","inputs":[{"name":"role","type":"bytes32","indexed":true,"internalType":"bytes32"},{"name":"previousAdminRole","type":"bytes32","indexed":true,"internalType":"bytes32"},{"name":"newAdminRole","type":"bytes32","indexed":true,"internalType":"bytes32"}],"anonymous":false},{"type":"event","name":"RoleGranted","inputs":[{"name":"role","type":"bytes32","indexed":true,"internalType":"bytes32"},{"name":"account","type":"address","indexed":true,"internalType":"address"},{"name":"sender","type":"address","indexed":true,"internalType":"address"}],"anonymous":false},{"type":"event","name":"RoleRevoked","inputs":[{"name":"role","type":"bytes32","indexed":true,"internalType":"bytes32"},{"name":"account","type":"address","indexed":true,"internalType":"address"},{"name":"sender","type":"address","indexed":true,"internalType":"address"}],"anonymous":false},{"type":"event","name":"Transfer","inputs":[{"name":"from","type":"address","indexed":true,"internalType":"address"},{"name":"to","type":"address","indexed":true,"internalType":"address"},{"name":"tokenId","type":"uint256","indexed":true,"internalType":"uint256"}],"anonymous":false},{"type":"error","name":"AccessControlBadConfirmation","inputs":[]},{"type":"error","name":"AccessControlUnauthorizedAccount","inputs":[{"name":"account","type":"address","internalType":"address"},{"name":"neededRole","type":"bytes32","internalType":"bytes32"}]},{"type":"error","name":"ERC721EnumerableForbiddenBatchMint","inputs":[]},{"type":"error","name":"ERC721IncorrectOwner","inputs":[{"name":"sender","type":"address","internalType":"address"},{"name":"tokenId","type":"uint256","internalType":"uint256"},{"name":"owner","type":"address","internalType":"address"}]},{"type":"error","name":"ERC721InsufficientApproval","inputs":[{"name":"operator","type":"address","internalType":"address"},{"name":"tokenId","type":"uint256","internalType":"uint256"}]},{"type":"error","name":"ERC721InvalidApprover","inputs":[{"name":"approver","type":"address","internalType":"address"}]},{"type":"error","name":"ERC721InvalidOperator","inputs":[{"name":"operator","type":"address","internalType":"address"}]},{"type":"error","name":"ERC721InvalidOwner","inputs":[{"name":"owner","type":"address","internalType":"address"}]},{"type":"error","name":"ERC721InvalidReceiver","inputs":[{"name":"receiver","type":"address","internalType":"address"}]},{"type":"error","name":"ERC721InvalidSender","inputs":[{"name":"sender","type":"address","internalType":"address"}]},{"type":"error","name":"ERC721NonexistentToken","inputs":[{"name":"tokenId","type":"uint256","internalType":"uint256"}]},{"type":"error","name":"ERC721OutOfBoundsIndex","inputs":[{"name":"owner","type":"address","internalType":"address"},{"name":"index","type":"uint256","internalType":"uint256"}]}],"bytecode":{"object":"0x60806040526001600e5534801562000015575f80fd5b50604051620054ce380380620054ce83398181016040528101906200003b919062000446565b8383815f90816200004d919062000749565b5080600190816200005f919062000749565b50505081600f908162000073919062000749565b50620000885f801b82620000f960201b60201c565b50620000bb7f9f2df0fed2c77648de5860a4cc508cd0818c85b8b8a1ab4ceeef8d981c8956a682620000f960201b60201c565b50620000ee7f0ce23c3e399818cfee81a7ab0880f714e53d7672b08df0fa62f2843416e1ea0982620000f960201b60201c565b50505050506200082d565b5f6200010c8383620001f560201b60201c565b620001eb576001600a5f8581526020019081526020015f205f015f8473ffffffffffffffffffffffffffffffffffffffff1673ffffffffffffffffffffffffffffffffffffffff1681526020019081526020015f205f6101000a81548160ff021916908315150217905550620001876200025960201b60201c565b73ffffffffffffffffffffffffffffffffffffffff168273ffffffffffffffffffffffffffffffffffffffff16847f2f8788117e7eff1d82e926ec794901d17c78024a50270940304540a733656f0d60405160405180910390a460019050620001ef565b5f90505b92915050565b5f600a5f8481526020019081526020015f205f015f8373ffffffffffffffffffffffffffffffffffffffff1673ffffffffffffffffffffffffffffffffffffffff1681526020019081526020015f205f9054906101000a900460ff16905092915050565b5f33905090565b5f604051905090565b5f80fd5b5f80fd5b5f80fd5b5f80fd5b5f601f19601f8301169050919050565b7f4e487b71000000000000000000000000000000000000000000000000000000005f52604160045260245ffd5b620002c18262000279565b810181811067ffffffffffffffff82111715620002e357620002e262000289565b5b80604052505050565b5f620002f762000260565b9050620003058282620002b6565b919050565b5f67ffffffffffffffff82111562000327576200032662000289565b5b620003328262000279565b9050602081019050919050565b5f5b838110156200035e57808201518184015260208101905062000341565b5f8484015250505050565b5f6200037f62000379846200030a565b620002ec565b9050828152602081018484840111156200039e576200039d62000275565b5b620003ab8482856200033f565b509392505050565b5f82601f830112620003ca57620003c962000271565b5b8151620003dc84826020860162000369565b91505092915050565b5f73ffffffffffffffffffffffffffffffffffffffff82169050919050565b5f6200041082620003e5565b9050919050565b620004228162000404565b81146200042d575f80fd5b50565b5f81519050620004408162000417565b92915050565b5f805f806080858703121562000461576200046062000269565b5b5f85015167ffffffffffffffff8111156200048157620004806200026d565b5b6200048f87828801620003b3565b945050602085015167ffffffffffffffff811115620004b357620004b26200026d565b5b620004c187828801620003b3565b935050604085015167ffffffffffffffff811115620004e557620004e46200026d565b5b620004f387828801620003b3565b9250506060620005068782880162000430565b91505092959194509250565b5f81519050919050565b7f4e487b71000000000000000000000000000000000000000000000000000000005f52602260045260245ffd5b5f60028204905060018216806200056157607f821691505b6020821081036200057757620005766200051c565b5b50919050565b5f819050815f5260205f209050919050565b5f6020601f8301049050919050565b5f82821b905092915050565b5f60088302620005db7fffffffffffffffffffffffffffffffffffffffffffffffffffffffffffffffff826200059e565b620005e786836200059e565b95508019841693508086168417925050509392505050565b5f819050919050565b5f819050919050565b5f620006316200062b6200062584620005ff565b62000608565b620005ff565b9050919050565b5f819050919050565b6200064c8362000611565b620006646200065b8262000638565b848454620005aa565b825550505050565b5f90565b6200067a6200066c565b6200068781848462000641565b505050565b5b81811015620006ae57620006a25f8262000670565b6001810190506200068d565b5050565b601f821115620006fd57620006c7816200057d565b620006d2846200058f565b81016020851015620006e2578190505b620006fa620006f1856200058f565b8301826200068c565b50505b505050565b5f82821c905092915050565b5f6200071f5f198460080262000702565b1980831691505092915050565b5f6200073983836200070e565b9150826002028217905092915050565b620007548262000512565b67ffffffffffffffff81111562000770576200076f62000289565b5b6200077c825462000549565b62000789828285620006b2565b5f60209050601f831160018114620007bf575f8415620007aa578287015190505b620007b685826200072c565b86555062000825565b601f198416620007cf866200057d565b5f5b82811015620007f857848901518255600182019150602085019450602081019050620007d1565b8683101562000818578489015162000814601f8916826200070e565b8355505b6001600288020188555050505b505050505050565b614c93806200083b5f395ff3fe60806040526004361061023a575f3560e01c806370a082311161012d578063c87b56dd116100aa578063e7705db61161006e578063e7705db6146108ff578063e985e9c514610929578063e9d6383014610965578063eaf8652e1461098d578063ff721aba146109c95761023a565b8063c87b56dd14610806578063d539139314610842578063d547741f1461086c578063d58554bf14610894578063e6f8afe1146108d55761023a565b8063a217fddf116100f1578063a217fddf14610726578063a22cb46514610750578063b88d4fde14610778578063c23a6f5a146107a0578063c8675835146107dc5761023a565b806370a0823114610620578063728aaa7a1461065c578063783ac75e1461068457806391d14854146106c057806395d89b41146106fc5761023a565b806336568abe116101bb578063500a97d81161017f578063500a97d81461051457806355f804b31461055057806358b6d54f146105785780635b0b3062146105a85780636352211e146105e45761023a565b806336568abe146104225780633b1f29121461044a57806342842e0e1461047457806342fcf2501461049c5780634f6ccce7146104d85761023a565b806323b872dd1161020257806323b872dd14610332578063242cae9f1461035a578063248a9ca3146103825780632f2ff15d146103be5780632f745c59146103e65761023a565b806301ffc9a71461023e57806306fdde031461027a578063081812fc146102a4578063095ea7b3146102e057806318160ddd14610308575b5f80fd5b348015610249575f80fd5b50610264600480360381019061025f919061373f565b610a05565b6040516102719190613784565b60405180910390f35b348015610285575f80fd5b5061028e610a16565b60405161029b9190613827565b60405180910390f35b3480156102af575f80fd5b506102ca60048036038101906102c5919061387a565b610aa5565b6040516102d791906138e4565b60405180910390f35b3480156102eb575f80fd5b5061030660048036038101906103019190613927565b610ac0565b005b348015610313575f80fd5b5061031c610ad6565b6040516103299190613974565b60405180910390f35b34801561033d575f80fd5b506103586004803603810190610353919061398d565b610ae2565b005b348015610365575f80fd5b50610380600480360381019061037b91906139dd565b610be1565b005b34801561038d575f80fd5b506103a860048036038101906103a39190613a3b565b610d9f565b6040516103b59190613a75565b60405180910390f35b3480156103c9575f80fd5b506103e460048036038101906103df9190613a8e565b610dbc565b005b3480156103f1575f80fd5b5061040c60048036038101906104079190613927565b610dde565b6040516104199190613974565b60405180910390f35b34801561042d575f80fd5b5061044860048036038101906104439190613a8e565b610e82565b005b348015610455575f80fd5b5061045e610efd565b60405161046b9190613974565b60405180910390f35b34801561047f575f80fd5b5061049a6004803603810190610495919061398d565b610f0a565b005b3480156104a7575f80fd5b506104c260048036038101906104bd91906139dd565b610f29565b6040516104cf9190613b83565b60405180910390f35b3480156104e3575f80fd5b506104fe60048036038101906104f9919061387a565b610fce565b60405161050b9190613974565b60405180910390f35b34801561051f575f80fd5b5061053a60048036038101906105359190613bc6565b611040565b6040516105479190613974565b60405180910390f35b34801561055b575f80fd5b5061057660048036038101906105719190613d1d565b611055565b005b610592600480360381019061058d9190613d64565b611075565b60405161059f9190613974565b60405180910390f35b3480156105b3575f80fd5b506105ce60048036038101906105c9919061387a565b611347565b6040516105db9190613784565b60405180910390f35b3480156105ef575f80fd5b5061060a6004803603810190610605919061387a565b6114d4565b60405161061791906138e4565b60405180910390f35b34801561062b575f80fd5b50610646600480360381019061064191906139dd565b6114e5565b6040516106539190613974565b60405180910390f35b348015610667575f80fd5b50610682600480360381019061067d9190613db4565b61159b565b005b34801561068f575f80fd5b506106aa60048036038101906106a5919061387a565b611783565b6040516106b79190613f5e565b60405180910390f35b3480156106cb575f80fd5b506106e660048036038101906106e19190613a8e565b611925565b6040516106f39190613784565b60405180910390f35b348015610707575f80fd5b50610710611989565b60405161071d9190613827565b60405180910390f35b348015610731575f80fd5b5061073a611a19565b6040516107479190613a75565b60405180910390f35b34801561075b575f80fd5b5061077660048036038101906107719190613fa8565b611a1f565b005b348015610783575f80fd5b5061079e60048036038101906107999190614084565b611a35565b005b3480156107ab575f80fd5b506107c660048036038101906107c19190613bc6565b611a5a565b6040516107d39190613974565b60405180910390f35b3480156107e7575f80fd5b506107f0611b50565b6040516107fd9190613974565b60405180910390f35b348015610811575f80fd5b5061082c6004803603810190610827919061387a565b611b5d565b6040516108399190613827565b60405180910390f35b34801561084d575f80fd5b50610856611c2f565b6040516108639190613a75565b60405180910390f35b348015610877575f80fd5b50610892600480360381019061088d9190613a8e565b611c53565b005b34801561089f575f80fd5b506108ba60048036038101906108b5919061387a565b611c75565b6040516108cc96959493929190614113565b60405180910390f35b3480156108e0575f80fd5b506108e9611d4b565b6040516108f69190613974565b60405180910390f35b34801561090a575f80fd5b50610913611d58565b6040516109209190613a75565b60405180910390f35b348015610934575f80fd5b5061094f600480360381019061094a9190614179565b611d7c565b60405161095c9190613784565b60405180910390f35b348015610970575f80fd5b5061098b6004803603810190610986919061387a565b611e0a565b005b348015610998575f80fd5b506109b360048036038101906109ae9190613bc6565b611f6c565b6040516109c09190613b83565b60405180910390f35b3480156109d4575f80fd5b506109ef60048036038101906109ea91906139dd565b612138565b6040516109fc9190613784565b60405180910390f35b5f610a0f82612155565b9050919050565b60605f8054610a24906141e4565b80601f0160208091040260200160405190810160405280929190818152602001828054610a50906141e4565b8015610a9b5780601f10610a7257610100808354040283529160200191610a9b565b820191905f5260205f20905b815481529060010190602001808311610a7e57829003601f168201915b5050505050905090565b5f610aaf826121ce565b50610ab982612254565b9050919050565b610ad28282610acd61228d565b612294565b5050565b5f600880549050905090565b5f73ffffffffffffffffffffffffffffffffffffffff168273ffffffffffffffffffffffffffffffffffffffff1603610b52575f6040517f64a0ae92000000000000000000000000000000000000000000000000000000008152600401610b4991906138e4565b60405180910390fd5b5f610b658383610b6061228d565b6122a6565b90508373ffffffffffffffffffffffffffffffffffffffff168173ffffffffffffffffffffffffffffffffffffffff1614610bdb578382826040517f64283d7b000000000000000000000000000000000000000000000000000000008152600401610bd293929190614214565b60405180910390fd5b50505050565b7f0ce23c3e399818cfee81a7ab0880f714e53d7672b08df0fa62f2843416e1ea09610c0b816123c0565b5f73ffffffffffffffffffffffffffffffffffffffff168273ffffffffffffffffffffffffffffffffffffffff1603610c79576040517f08c379a0000000000000000000000000000000000000000000000000000000008152600401610c7090614293565b60405180910390fd5b600c5f8373ffffffffffffffffffffffffffffffffffffffff1673ffffffffffffffffffffffffffffffffffffffff1681526020019081526020015f205f9054906101000a900460ff1615610d03576040517f08c379a0000000000000000000000000000000000000000000000000000000008152600401610cfa906142fb565b60405180910390fd5b6001600c5f8473ffffffffffffffffffffffffffffffffffffffff1673ffffffffffffffffffffffffffffffffffffffff1681526020019081526020015f205f6101000a81548160ff0219169083151502179055508173ffffffffffffffffffffffffffffffffffffffff167ff338da91446072bf7ec4ea65ab28ef537a3bc388f29aa5fa6e92ded4ff67e49b60405160405180910390a25050565b5f600a5f8381526020019081526020015f20600101549050919050565b610dc582610d9f565b610dce816123c0565b610dd883836123d4565b50505050565b5f610de8836114e5565b8210610e2d5782826040517fa57d13dc000000000000000000000000000000000000000000000000000000008152600401610e24929190614319565b60405180910390fd5b60065f8473ffffffffffffffffffffffffffffffffffffffff1673ffffffffffffffffffffffffffffffffffffffff1681526020019081526020015f205f8381526020019081526020015f2054905092915050565b610e8a61228d565b73ffffffffffffffffffffffffffffffffffffffff168173ffffffffffffffffffffffffffffffffffffffff1614610eee576040517f6697b23200000000000000000000000000000000000000000000000000000000815260040160405180910390fd5b610ef882826124be565b505050565b683635c9adc5dea0000081565b610f2483838360405180602001604052805f815250611a35565b505050565b60605f610f35836114e5565b90505f8167ffffffffffffffff811115610f5257610f51613bf9565b5b604051908082528060200260200182016040528015610f805781602001602082028036833780820191505090505b5090505f5b82811015610fc357610f978582610dde565b828281518110610faa57610fa9614340565b5b6020026020010181815250508080600101915050610f85565b508092505050919050565b5f610fd7610ad6565b821061101c575f826040517fa57d13dc000000000000000000000000000000000000000000000000000000008152600401611013929190614319565b60405180910390fd5b600882815481106110305761102f614340565b5b905f5260205f2001549050919050565b600d602052805f5260405f205f915090505481565b5f801b611061816123c0565b81600f9081611070919061450a565b505050565b5f600c5f8573ffffffffffffffffffffffffffffffffffffffff1673ffffffffffffffffffffffffffffffffffffffff1681526020019081526020015f205f9054906101000a900460ff166110ff576040517f08c379a00000000000000000000000000000000000000000000000000000000081526004016110f690614623565b60405180910390fd5b60018210158015611111575060038211155b611150576040517f08c379a00000000000000000000000000000000000000000000000000000000081526004016111479061468b565b60405180910390fd5b5f61115a84611a5a565b90508034101561119f576040517f08c379a0000000000000000000000000000000000000000000000000000000008152600401611196906146f3565b60405180910390fd5b600e5f8154809291906111b19061473e565b9190505591506111c185836125a8565b6040518060c001604052808560028111156111df576111de613e0e565b5b81526020018481526020013481526020015f151581526020015f815260200160405180602001604052805f815250815250600b5f8481526020019081526020015f205f820151815f015f6101000a81548160ff0219169083600281111561124957611248613e0e565b5b021790555060208201518160010155604082015181600201556060820151816003015f6101000a81548160ff0219169083151502179055506080820151816004015560a08201518160050190816112a0919061450a565b50905050600d5f8560028111156112ba576112b9613e0e565b5b60028111156112cc576112cb613e0e565b5b81526020019081526020015f205f8154809291906112e99061473e565b91905055508473ffffffffffffffffffffffffffffffffffffffff16827fd74451e1cfe5c243a216ecc4998677db05bb76d5b4ecdecd089a7bdadee130d58686604051611337929190614785565b60405180910390a3509392505050565b5f8073ffffffffffffffffffffffffffffffffffffffff16611368836125c5565b73ffffffffffffffffffffffffffffffffffffffff160361138b575f90506114cf565b5f600b5f8481526020019081526020015f206040518060c00160405290815f82015f9054906101000a900460ff1660028111156113cb576113ca613e0e565b5b60028111156113dd576113dc613e0e565b5b81526020016001820154815260200160028201548152602001600382015f9054906101000a900460ff1615151515815260200160048201548152602001600582018054611429906141e4565b80601f0160208091040260200160405190810160405280929190818152602001828054611455906141e4565b80156114a05780601f10611477576101008083540402835291602001916114a0565b820191905f5260205f20905b81548152906001019060200180831161148357829003601f168201915b5050505050815250509050806060015180156114cb57506114c3815f0151611a5a565b816040015110155b9150505b919050565b5f6114de826121ce565b9050919050565b5f8073ffffffffffffffffffffffffffffffffffffffff168273ffffffffffffffffffffffffffffffffffffffff1603611556575f6040517f89c62b6400000000000000000000000000000000000000000000000000000000815260040161154d91906138e4565b60405180910390fd5b60035f8373ffffffffffffffffffffffffffffffffffffffff1673ffffffffffffffffffffffffffffffffffffffff1681526020019081526020015f20549050919050565b7f0ce23c3e399818cfee81a7ab0880f714e53d7672b08df0fa62f2843416e1ea096115c5816123c0565b5f73ffffffffffffffffffffffffffffffffffffffff166115e5846125c5565b73ffffffffffffffffffffffffffffffffffffffff160361163b576040517f08c379a0000000000000000000000000000000000000000000000000000000008152600401611632906147f6565b60405180910390fd5b600b5f8481526020019081526020015f206003015f9054906101000a900460ff161561169c576040517f08c379a00000000000000000000000000000000000000000000000000000000081526004016116939061485e565b60405180910390fd5b5f8251116116df576040517f08c379a00000000000000000000000000000000000000000000000000000000081526004016116d6906148c6565b60405180910390fd5b6001600b5f8581526020019081526020015f206003015f6101000a81548160ff02191690831515021790555042600b5f8581526020019081526020015f206004018190555081600b5f8581526020019081526020015f206005019081611745919061450a565b50827f57924c16b13e5ab6f6d8539f9a56b2f89cea63b0abcd0eddc6168ef1f9d897b5836040516117769190613827565b60405180910390a2505050565b61178b613694565b5f73ffffffffffffffffffffffffffffffffffffffff166117ab836125c5565b73ffffffffffffffffffffffffffffffffffffffff1603611801576040517f08c379a00000000000000000000000000000000000000000000000000000000081526004016117f8906147f6565b60405180910390fd5b600b5f8381526020019081526020015f206040518060c00160405290815f82015f9054906101000a900460ff1660028111156118405761183f613e0e565b5b600281111561185257611851613e0e565b5b81526020016001820154815260200160028201548152602001600382015f9054906101000a900460ff161515151581526020016004820154815260200160058201805461189e906141e4565b80601f01602080910402602001604051908101604052809291908181526020018280546118ca906141e4565b80156119155780601f106118ec57610100808354040283529160200191611915565b820191905f5260205f20905b8154815290600101906020018083116118f857829003601f168201915b5050505050815250509050919050565b5f600a5f8481526020019081526020015f205f015f8373ffffffffffffffffffffffffffffffffffffffff1673ffffffffffffffffffffffffffffffffffffffff1681526020019081526020015f205f9054906101000a900460ff16905092915050565b606060018054611998906141e4565b80601f01602080910402602001604051908101604052809291908181526020018280546119c4906141e4565b8015611a0f5780601f106119e657610100808354040283529160200191611a0f565b820191905f5260205f20905b8154815290600101906020018083116119f257829003601f168201915b5050505050905090565b5f801b81565b611a31611a2a61228d565b83836125fe565b5050565b611a40848484610ae2565b611a54611a4b61228d565b85858585612767565b50505050565b5f806002811115611a6e57611a6d613e0e565b5b826002811115611a8157611a80613e0e565b5b03611a9757683635c9adc5dea000009050611b4b565b60016002811115611aab57611aaa613e0e565b5b826002811115611abe57611abd613e0e565b5b03611ad457681b1ae4d6e2ef5000009050611b4b565b600280811115611ae757611ae6613e0e565b5b826002811115611afa57611af9613e0e565b5b03611b1057680d8d726b7177a800009050611b4b565b6040517f08c379a0000000000000000000000000000000000000000000000000000000008152600401611b429061492e565b60405180910390fd5b919050565b681b1ae4d6e2ef50000081565b60605f73ffffffffffffffffffffffffffffffffffffffff16611b7f836125c5565b73ffffffffffffffffffffffffffffffffffffffff1603611bd5576040517f08c379a0000000000000000000000000000000000000000000000000000000008152600401611bcc906147f6565b60405180910390fd5b5f611bde612913565b90505f815111611bfc5760405180602001604052805f815250611c27565b80611c06846129a3565b604051602001611c179291906149d0565b6040516020818303038152906040525b915050919050565b7f9f2df0fed2c77648de5860a4cc508cd0818c85b8b8a1ab4ceeef8d981c8956a681565b611c5c82610d9f565b611c65816123c0565b611c6f83836124be565b50505050565b600b602052805f5260405f205f91509050805f015f9054906101000a900460ff1690806001015490806002015490806003015f9054906101000a900460ff1690806004015490806005018054611cca906141e4565b80601f0160208091040260200160405190810160405280929190818152602001828054611cf6906141e4565b8015611d415780601f10611d1857610100808354040283529160200191611d41565b820191905f5260205f20905b815481529060010190602001808311611d2457829003601f168201915b5050505050905086565b680d8d726b7177a8000081565b7f0ce23c3e399818cfee81a7ab0880f714e53d7672b08df0fa62f2843416e1ea0981565b5f60055f8473ffffffffffffffffffffffffffffffffffffffff1673ffffffffffffffffffffffffffffffffffffffff1681526020019081526020015f205f8373ffffffffffffffffffffffffffffffffffffffff1673ffffffffffffffffffffffffffffffffffffffff1681526020019081526020015f205f9054906101000a900460ff16905092915050565b3373ffffffffffffffffffffffffffffffffffffffff16611e2a826114d4565b73ffffffffffffffffffffffffffffffffffffffff161480611e725750611e717f0ce23c3e399818cfee81a7ab0880f714e53d7672b08df0fa62f2843416e1ea0933611925565b5b611eb1576040517f08c379a0000000000000000000000000000000000000000000000000000000008152600401611ea890614a48565b60405180910390fd5b600b5f8281526020019081526020015f206003015f9054906101000a900460ff16611f11576040517f08c379a0000000000000000000000000000000000000000000000000000000008152600401611f0890614ab0565b60405180910390fd5b5f600b5f8381526020019081526020015f206003015f6101000a81548160ff021916908315150217905550807f225b982f3f68d9ecd9aaa2ece1c491786e6e4bf7ac4028b1ce7024691475383c60405160405180910390a250565b60605f611f77610ad6565b90505f8167ffffffffffffffff811115611f9457611f93613bf9565b5b604051908082528060200260200182016040528015611fc25781602001602082028036833780820191505090505b5090505f805b8381101561208d575f611fda82610fce565b9050866002811115611fef57611fee613e0e565b5b600b5f8381526020019081526020015f205f015f9054906101000a900460ff16600281111561202157612020613e0e565b5b14801561204b5750600b5f8281526020019081526020015f206003015f9054906101000a900460ff165b1561207f578084848151811061206457612063614340565b5b602002602001018181525050828061207b9061473e565b9350505b508080600101915050611fc8565b505f8167ffffffffffffffff8111156120a9576120a8613bf9565b5b6040519080825280602002602001820160405280156120d75781602001602082028036833780820191505090505b5090505f5b8281101561212b578381815181106120f7576120f6614340565b5b602002602001015182828151811061211257612111614340565b5b60200260200101818152505080806001019150506120dc565b5080945050505050919050565b600c602052805f5260405f205f915054906101000a900460ff1681565b5f7f7965db0b000000000000000000000000000000000000000000000000000000007bffffffffffffffffffffffffffffffffffffffffffffffffffffffff1916827bffffffffffffffffffffffffffffffffffffffffffffffffffffffff191614806121c757506121c682612a6d565b5b9050919050565b5f806121d9836125c5565b90505f73ffffffffffffffffffffffffffffffffffffffff168173ffffffffffffffffffffffffffffffffffffffff160361224b57826040517f7e2732890000000000000000000000000000000000000000000000000000000081526004016122429190613974565b60405180910390fd5b80915050919050565b5f60045f8381526020019081526020015f205f9054906101000a900473ffffffffffffffffffffffffffffffffffffffff169050919050565b5f33905090565b6122a18383836001612ae6565b505050565b5f806122b3858585612ca5565b90505f73ffffffffffffffffffffffffffffffffffffffff168173ffffffffffffffffffffffffffffffffffffffff16036122f6576122f184612eb0565b612335565b8473ffffffffffffffffffffffffffffffffffffffff168173ffffffffffffffffffffffffffffffffffffffff1614612334576123338185612ef4565b5b5b5f73ffffffffffffffffffffffffffffffffffffffff168573ffffffffffffffffffffffffffffffffffffffff16036123765761237184612fcb565b6123b5565b8473ffffffffffffffffffffffffffffffffffffffff168173ffffffffffffffffffffffffffffffffffffffff16146123b4576123b3858561308b565b5b5b809150509392505050565b6123d1816123cc61228d565b61310f565b50565b5f6123df8383611925565b6124b4576001600a5f8581526020019081526020015f205f015f8473ffffffffffffffffffffffffffffffffffffffff1673ffffffffffffffffffffffffffffffffffffffff1681526020019081526020015f205f6101000a81548160ff02191690831515021790555061245161228d565b73ffffffffffffffffffffffffffffffffffffffff168273ffffffffffffffffffffffffffffffffffffffff16847f2f8788117e7eff1d82e926ec794901d17c78024a50270940304540a733656f0d60405160405180910390a4600190506124b8565b5f90505b92915050565b5f6124c98383611925565b1561259e575f600a5f8581526020019081526020015f205f015f8473ffffffffffffffffffffffffffffffffffffffff1673ffffffffffffffffffffffffffffffffffffffff1681526020019081526020015f205f6101000a81548160ff02191690831515021790555061253b61228d565b73ffffffffffffffffffffffffffffffffffffffff168273ffffffffffffffffffffffffffffffffffffffff16847ff6391f5c32d9c69d2a47ea670b442974b53935d1edc7fd64eb21e047a839171b60405160405180910390a4600190506125a2565b5f90505b92915050565b6125c1828260405180602001604052805f815250613160565b5050565b5f60025f8381526020019081526020015f205f9054906101000a900473ffffffffffffffffffffffffffffffffffffffff169050919050565b5f73ffffffffffffffffffffffffffffffffffffffff168273ffffffffffffffffffffffffffffffffffffffff160361266e57816040517f5b08ba1800000000000000000000000000000000000000000000000000000000815260040161266591906138e4565b60405180910390fd5b8060055f8573ffffffffffffffffffffffffffffffffffffffff1673ffffffffffffffffffffffffffffffffffffffff1681526020019081526020015f205f8473ffffffffffffffffffffffffffffffffffffffff1673ffffffffffffffffffffffffffffffffffffffff1681526020019081526020015f205f6101000a81548160ff0219169083151502179055508173ffffffffffffffffffffffffffffffffffffffff168373ffffffffffffffffffffffffffffffffffffffff167f17307eab39ab6107e8899845ad3d59bd9653f200f220920489ca2b5937696c318360405161275a9190613784565b60405180910390a3505050565b5f8373ffffffffffffffffffffffffffffffffffffffff163b111561290c578273ffffffffffffffffffffffffffffffffffffffff1663150b7a02868685856040518563ffffffff1660e01b81526004016127c59493929190614b20565b6020604051808303815f875af192505050801561280057506040513d601f19601f820116820180604052508101906127fd9190614b7e565b60015b612881573d805f811461282e576040519150601f19603f3d011682016040523d82523d5f602084013e612833565b606091505b505f81510361287957836040517f64a0ae9200000000000000000000000000000000000000000000000000000000815260040161287091906138e4565b60405180910390fd5b805160208201fd5b63150b7a0260e01b7bffffffffffffffffffffffffffffffffffffffffffffffffffffffff1916817bffffffffffffffffffffffffffffffffffffffffffffffffffffffff19161461290a57836040517f64a0ae9200000000000000000000000000000000000000000000000000000000815260040161290191906138e4565b60405180910390fd5b505b5050505050565b6060600f8054612922906141e4565b80601f016020809104026020016040519081016040528092919081815260200182805461294e906141e4565b80156129995780601f1061297057610100808354040283529160200191612999565b820191905f5260205f20905b81548152906001019060200180831161297c57829003601f168201915b5050505050905090565b60605f60016129b184613183565b0190505f8167ffffffffffffffff8111156129cf576129ce613bf9565b5b6040519080825280601f01601f191660200182016040528015612a015781602001600182028036833780820191505090505b5090505f82602083010190505b600115612a62578080600190039150507f3031323334353637383961626364656600000000000000000000000000000000600a86061a8153600a8581612a5757612a56614ba9565b5b0494505f8503612a0e575b819350505050919050565b5f7f780e9d63000000000000000000000000000000000000000000000000000000007bffffffffffffffffffffffffffffffffffffffffffffffffffffffff1916827bffffffffffffffffffffffffffffffffffffffffffffffffffffffff19161480612adf5750612ade826132d4565b5b9050919050565b8080612b1e57505f73ffffffffffffffffffffffffffffffffffffffff168273ffffffffffffffffffffffffffffffffffffffff1614155b15612c50575f612b2d846121ce565b90505f73ffffffffffffffffffffffffffffffffffffffff168373ffffffffffffffffffffffffffffffffffffffff1614158015612b9757508273ffffffffffffffffffffffffffffffffffffffff168173ffffffffffffffffffffffffffffffffffffffff1614155b8015612baa5750612ba88184611d7c565b155b15612bec57826040517fa9fbf51f000000000000000000000000000000000000000000000000000000008152600401612be391906138e4565b60405180910390fd5b8115612c4e57838573ffffffffffffffffffffffffffffffffffffffff168273ffffffffffffffffffffffffffffffffffffffff167f8c5be1e5ebec7d5bd14f71427d1e84f3dd0314c0f7b2291e5b200ac8c7c3b92560405160405180910390a45b505b8360045f8581526020019081526020015f205f6101000a81548173ffffffffffffffffffffffffffffffffffffffff021916908373ffffffffffffffffffffffffffffffffffffffff16021790555050505050565b5f80612cb0846125c5565b90505f73ffffffffffffffffffffffffffffffffffffffff168373ffffffffffffffffffffffffffffffffffffffff1614612cf157612cf08184866133b5565b5b5f73ffffffffffffffffffffffffffffffffffffffff168173ffffffffffffffffffffffffffffffffffffffff1614612d7c57612d305f855f80612ae6565b600160035f8373ffffffffffffffffffffffffffffffffffffffff1673ffffffffffffffffffffffffffffffffffffffff1681526020019081526020015f205f82825403925050819055505b5f73ffffffffffffffffffffffffffffffffffffffff168573ffffffffffffffffffffffffffffffffffffffff1614612dfb57600160035f8773ffffffffffffffffffffffffffffffffffffffff1673ffffffffffffffffffffffffffffffffffffffff1681526020019081526020015f205f82825401925050819055505b8460025f8681526020019081526020015f205f6101000a81548173ffffffffffffffffffffffffffffffffffffffff021916908373ffffffffffffffffffffffffffffffffffffffff160217905550838573ffffffffffffffffffffffffffffffffffffffff168273ffffffffffffffffffffffffffffffffffffffff167fddf252ad1be2c89b69c2b068fc378daa952ba7f163c4a11628f55a4df523b3ef60405160405180910390a4809150509392505050565b60088054905060095f8381526020019081526020015f2081905550600881908060018154018082558091505060019003905f5260205f20015f909190919091505550565b5f612efe836114e5565b90505f60075f8481526020019081526020015f205490505f60065f8673ffffffffffffffffffffffffffffffffffffffff1673ffffffffffffffffffffffffffffffffffffffff1681526020019081526020015f209050828214612f9d575f815f8581526020019081526020015f2054905080825f8581526020019081526020015f20819055508260075f8381526020019081526020015f2081905550505b60075f8581526020019081526020015f205f9055805f8481526020019081526020015f205f90555050505050565b5f6001600880549050612fde9190614bd6565b90505f60095f8481526020019081526020015f205490505f6008838154811061300a57613009614340565b5b905f5260205f2001549050806008838154811061302a57613029614340565b5b905f5260205f2001819055508160095f8381526020019081526020015f208190555060095f8581526020019081526020015f205f9055600880548061307257613071614c09565b5b600190038181905f5260205f20015f9055905550505050565b5f6001613097846114e5565b6130a19190614bd6565b90508160065f8573ffffffffffffffffffffffffffffffffffffffff1673ffffffffffffffffffffffffffffffffffffffff1681526020019081526020015f205f8381526020019081526020015f20819055508060075f8481526020019081526020015f2081905550505050565b6131198282611925565b61315c5780826040517fe2517d3f000000000000000000000000000000000000000000000000000000008152600401613153929190614c36565b60405180910390fd5b5050565b61316a8383613478565b61317e61317561228d565b5f858585612767565b505050565b5f805f90507a184f03e93ff9f4daa797ed6e38ed64bf6a1f01000000000000000083106131df577a184f03e93ff9f4daa797ed6e38ed64bf6a1f01000000000000000083816131d5576131d4614ba9565b5b0492506040810190505b6d04ee2d6d415b85acef8100000000831061321c576d04ee2d6d415b85acef8100000000838161321257613211614ba9565b5b0492506020810190505b662386f26fc10000831061324b57662386f26fc10000838161324157613240614ba9565b5b0492506010810190505b6305f5e1008310613274576305f5e100838161326a57613269614ba9565b5b0492506008810190505b612710831061329957612710838161328f5761328e614ba9565b5b0492506004810190505b606483106132bc57606483816132b2576132b1614ba9565b5b0492506002810190505b600a83106132cb576001810190505b80915050919050565b5f7f80ac58cd000000000000000000000000000000000000000000000000000000007bffffffffffffffffffffffffffffffffffffffffffffffffffffffff1916827bffffffffffffffffffffffffffffffffffffffffffffffffffffffff1916148061339e57507f5b5e139f000000000000000000000000000000000000000000000000000000007bffffffffffffffffffffffffffffffffffffffffffffffffffffffff1916827bffffffffffffffffffffffffffffffffffffffffffffffffffffffff1916145b806133ae57506133ad8261356b565b5b9050919050565b6133c08383836135d4565b613473575f73ffffffffffffffffffffffffffffffffffffffff168373ffffffffffffffffffffffffffffffffffffffff160361343457806040517f7e27328900000000000000000000000000000000000000000000000000000000815260040161342b9190613974565b60405180910390fd5b81816040517f177e802f00000000000000000000000000000000000000000000000000000000815260040161346a929190614319565b60405180910390fd5b505050565b5f73ffffffffffffffffffffffffffffffffffffffff168273ffffffffffffffffffffffffffffffffffffffff16036134e8575f6040517f64a0ae920000000000000000000000000000000000000000000000000000000081526004016134df91906138e4565b60405180910390fd5b5f6134f483835f6122a6565b90505f73ffffffffffffffffffffffffffffffffffffffff168173ffffffffffffffffffffffffffffffffffffffff1614613566575f6040517f73c6ac6e00000000000000000000000000000000000000000000000000000000815260040161355d91906138e4565b60405180910390fd5b505050565b5f7f01ffc9a7000000000000000000000000000000000000000000000000000000007bffffffffffffffffffffffffffffffffffffffffffffffffffffffff1916827bffffffffffffffffffffffffffffffffffffffffffffffffffffffff1916149050919050565b5f8073ffffffffffffffffffffffffffffffffffffffff168373ffffffffffffffffffffffffffffffffffffffff161415801561368b57508273ffffffffffffffffffffffffffffffffffffffff168473ffffffffffffffffffffffffffffffffffffffff16148061364c575061364b8484611d7c565b5b8061368a57508273ffffffffffffffffffffffffffffffffffffffff1661367283612254565b73ffffffffffffffffffffffffffffffffffffffff16145b5b90509392505050565b6040518060c001604052805f60028111156136b2576136b1613e0e565b5b81526020015f81526020015f81526020015f151581526020015f8152602001606081525090565b5f604051905090565b5f80fd5b5f80fd5b5f7fffffffff0000000000000000000000000000000000000000000000000000000082169050919050565b61371e816136ea565b8114613728575f80fd5b50565b5f8135905061373981613715565b92915050565b5f60208284031215613754576137536136e2565b5b5f6137618482850161372b565b91505092915050565b5f8115159050919050565b61377e8161376a565b82525050565b5f6020820190506137975f830184613775565b92915050565b5f81519050919050565b5f82825260208201905092915050565b5f5b838110156137d45780820151818401526020810190506137b9565b5f8484015250505050565b5f601f19601f8301169050919050565b5f6137f98261379d565b61380381856137a7565b93506138138185602086016137b7565b61381c816137df565b840191505092915050565b5f6020820190508181035f83015261383f81846137ef565b905092915050565b5f819050919050565b61385981613847565b8114613863575f80fd5b50565b5f8135905061387481613850565b92915050565b5f6020828403121561388f5761388e6136e2565b5b5f61389c84828501613866565b91505092915050565b5f73ffffffffffffffffffffffffffffffffffffffff82169050919050565b5f6138ce826138a5565b9050919050565b6138de816138c4565b82525050565b5f6020820190506138f75f8301846138d5565b92915050565b613906816138c4565b8114613910575f80fd5b50565b5f81359050613921816138fd565b92915050565b5f806040838503121561393d5761393c6136e2565b5b5f61394a85828601613913565b925050602061395b85828601613866565b9150509250929050565b61396e81613847565b82525050565b5f6020820190506139875f830184613965565b92915050565b5f805f606084860312156139a4576139a36136e2565b5b5f6139b186828701613913565b93505060206139c286828701613913565b92505060406139d386828701613866565b9150509250925092565b5f602082840312156139f2576139f16136e2565b5b5f6139ff84828501613913565b91505092915050565b5f819050919050565b613a1a81613a08565b8114613a24575f80fd5b50565b5f81359050613a3581613a11565b92915050565b5f60208284031215613a5057613a4f6136e2565b5b5f613a5d84828501613a27565b91505092915050565b613a6f81613a08565b82525050565b5f602082019050613a885f830184613a66565b92915050565b5f8060408385031215613aa457613aa36136e2565b5b5f613ab185828601613a27565b9250506020613ac285828601613913565b9150509250929050565b5f81519050919050565b5f82825260208201905092915050565b5f819050602082019050919050565b613afe81613847565b82525050565b5f613b0f8383613af5565b60208301905092915050565b5f602082019050919050565b5f613b3182613acc565b613b3b8185613ad6565b9350613b4683613ae6565b805f5b83811015613b76578151613b5d8882613b04565b9750613b6883613b1b565b925050600181019050613b49565b5085935050505092915050565b5f6020820190508181035f830152613b9b8184613b27565b905092915050565b60038110613baf575f80fd5b50565b5f81359050613bc081613ba3565b92915050565b5f60208284031215613bdb57613bda6136e2565b5b5f613be884828501613bb2565b91505092915050565b5f80fd5b5f80fd5b7f4e487b71000000000000000000000000000000000000000000000000000000005f52604160045260245ffd5b613c2f826137df565b810181811067ffffffffffffffff82111715613c4e57613c4d613bf9565b5b80604052505050565b5f613c606136d9565b9050613c6c8282613c26565b919050565b5f67ffffffffffffffff821115613c8b57613c8a613bf9565b5b613c94826137df565b9050602081019050919050565b828183375f83830152505050565b5f613cc1613cbc84613c71565b613c57565b905082815260208101848484011115613cdd57613cdc613bf5565b5b613ce8848285613ca1565b509392505050565b5f82601f830112613d0457613d03613bf1565b5b8135613d14848260208601613caf565b91505092915050565b5f60208284031215613d3257613d316136e2565b5b5f82013567ffffffffffffffff811115613d4f57613d4e6136e6565b5b613d5b84828501613cf0565b91505092915050565b5f805f60608486031215613d7b57613d7a6136e2565b5b5f613d8886828701613913565b9350506020613d9986828701613bb2565b9250506040613daa86828701613866565b9150509250925092565b5f8060408385031215613dca57613dc96136e2565b5b5f613dd785828601613866565b925050602083013567ffffffffffffffff811115613df857613df76136e6565b5b613e0485828601613cf0565b9150509250929050565b7f4e487b71000000000000000000000000000000000000000000000000000000005f52602160045260245ffd5b60038110613e4c57613e4b613e0e565b5b50565b5f819050613e5c82613e3b565b919050565b5f613e6b82613e4f565b9050919050565b613e7b81613e61565b82525050565b613e8a8161376a565b82525050565b5f82825260208201905092915050565b5f613eaa8261379d565b613eb48185613e90565b9350613ec48185602086016137b7565b613ecd816137df565b840191505092915050565b5f60c083015f830151613eed5f860182613e72565b506020830151613f006020860182613af5565b506040830151613f136040860182613af5565b506060830151613f266060860182613e81565b506080830151613f396080860182613af5565b5060a083015184820360a0860152613f518282613ea0565b9150508091505092915050565b5f6020820190508181035f830152613f768184613ed8565b905092915050565b613f878161376a565b8114613f91575f80fd5b50565b5f81359050613fa281613f7e565b92915050565b5f8060408385031215613fbe57613fbd6136e2565b5b5f613fcb85828601613913565b9250506020613fdc85828601613f94565b9150509250929050565b5f67ffffffffffffffff82111561400057613fff613bf9565b5b614009826137df565b9050602081019050919050565b5f61402861402384613fe6565b613c57565b90508281526020810184848401111561404457614043613bf5565b5b61404f848285613ca1565b509392505050565b5f82601f83011261406b5761406a613bf1565b5b813561407b848260208601614016565b91505092915050565b5f805f806080858703121561409c5761409b6136e2565b5b5f6140a987828801613913565b94505060206140ba87828801613913565b93505060406140cb87828801613866565b925050606085013567ffffffffffffffff8111156140ec576140eb6136e6565b5b6140f887828801614057565b91505092959194509250565b61410d81613e61565b82525050565b5f60c0820190506141265f830189614104565b6141336020830188613965565b6141406040830187613965565b61414d6060830186613775565b61415a6080830185613965565b81810360a083015261416c81846137ef565b9050979650505050505050565b5f806040838503121561418f5761418e6136e2565b5b5f61419c85828601613913565b92505060206141ad85828601613913565b9150509250929050565b7f4e487b71000000000000000000000000000000000000000000000000000000005f52602260045260245ffd5b5f60028204905060018216806141fb57607f821691505b60208210810361420e5761420d6141b7565b5b50919050565b5f6060820190506142275f8301866138d5565b6142346020830185613965565b61424160408301846138d5565b949350505050565b7f496e76616c6964206f70657261746f72000000000000000000000000000000005f82015250565b5f61427d6010836137a7565b915061428882614249565b602082019050919050565b5f6020820190508181035f8301526142aa81614271565b9050919050565b7f416c726561647920617070726f766564000000000000000000000000000000005f82015250565b5f6142e56010836137a7565b91506142f0826142b1565b602082019050919050565b5f6020820190508181035f830152614312816142d9565b9050919050565b5f60408201905061432c5f8301856138d5565b6143396020830184613965565b9392505050565b7f4e487b71000000000000000000000000000000000000000000000000000000005f52603260045260245ffd5b5f819050815f5260205f209050919050565b5f6020601f8301049050919050565b5f82821b905092915050565b5f600883026143c97fffffffffffffffffffffffffffffffffffffffffffffffffffffffffffffffff8261438e565b6143d3868361438e565b95508019841693508086168417925050509392505050565b5f819050919050565b5f61440e61440961440484613847565b6143eb565b613847565b9050919050565b5f819050919050565b614427836143f4565b61443b61443382614415565b84845461439a565b825550505050565b5f90565b61444f614443565b61445a81848461441e565b505050565b5b8181101561447d576144725f82614447565b600181019050614460565b5050565b601f8211156144c2576144938161436d565b61449c8461437f565b810160208510156144ab578190505b6144bf6144b78561437f565b83018261445f565b50505b505050565b5f82821c905092915050565b5f6144e25f19846008026144c7565b1980831691505092915050565b5f6144fa83836144d3565b9150826002028217905092915050565b6145138261379d565b67ffffffffffffffff81111561452c5761452b613bf9565b5b61453682546141e4565b614541828285614481565b5f60209050601f831160018114614572575f8415614560578287015190505b61456a85826144ef565b8655506145d1565b601f1984166145808661436d565b5f5b828110156145a757848901518255600182019150602085019450602081019050614582565b868310156145c457848901516145c0601f8916826144d3565b8355505b6001600288020188555050505b505050505050565b7f4f70657261746f72206e6f7420617070726f76656400000000000000000000005f82015250565b5f61460d6015836137a7565b9150614618826145d9565b602082019050919050565b5f6020820190508181035f83015261463a81614601565b9050919050565b7f496e76616c6964207469657200000000000000000000000000000000000000005f82015250565b5f614675600c836137a7565b915061468082614641565b602082019050919050565b5f6020820190508181035f8301526146a281614669565b9050919050565b7f496e73756666696369656e74207374616b6500000000000000000000000000005f82015250565b5f6146dd6012836137a7565b91506146e8826146a9565b602082019050919050565b5f6020820190508181035f83015261470a816146d1565b9050919050565b7f4e487b71000000000000000000000000000000000000000000000000000000005f52601160045260245ffd5b5f61474882613847565b91507fffffffffffffffffffffffffffffffffffffffffffffffffffffffffffffffff820361477a57614779614711565b5b600182019050919050565b5f6040820190506147985f830185614104565b6147a56020830184613965565b9392505050565b7f546f6b656e20646f6573206e6f742065786973740000000000000000000000005f82015250565b5f6147e06014836137a7565b91506147eb826147ac565b602082019050919050565b5f6020820190508181035f83015261480d816147d4565b9050919050565b7f4e6f646520616c726561647920616374697665000000000000000000000000005f82015250565b5f6148486013836137a7565b915061485382614814565b602082019050919050565b5f6020820190508181035f8301526148758161483c565b9050919050565b7f496e76616c6964206861726477617265206861736800000000000000000000005f82015250565b5f6148b06015836137a7565b91506148bb8261487c565b602082019050919050565b5f6020820190508181035f8301526148dd816148a4565b9050919050565b7f496e76616c6964206e6f646520747970650000000000000000000000000000005f82015250565b5f6149186011836137a7565b9150614923826148e4565b602082019050919050565b5f6020820190508181035f8301526149458161490c565b9050919050565b5f81905092915050565b5f6149608261379d565b61496a818561494c565b935061497a8185602086016137b7565b80840191505092915050565b7f2e6a736f6e0000000000000000000000000000000000000000000000000000005f82015250565b5f6149ba60058361494c565b91506149c582614986565b600582019050919050565b5f6149db8285614956565b91506149e78284614956565b91506149f2826149ae565b91508190509392505050565b7f4e6f7420617574686f72697a65640000000000000000000000000000000000005f82015250565b5f614a32600e836137a7565b9150614a3d826149fe565b602082019050919050565b5f6020820190508181035f830152614a5f81614a26565b9050919050565b7f4e6f6465206e6f742061637469766500000000000000000000000000000000005f82015250565b5f614a9a600f836137a7565b9150614aa582614a66565b602082019050919050565b5f6020820190508181035f830152614ac781614a8e565b9050919050565b5f81519050919050565b5f82825260208201905092915050565b5f614af282614ace565b614afc8185614ad8565b9350614b0c8185602086016137b7565b614b15816137df565b840191505092915050565b5f608082019050614b335f8301876138d5565b614b4060208301866138d5565b614b4d6040830185613965565b8181036060830152614b5f8184614ae8565b905095945050505050565b5f81519050614b7881613715565b92915050565b5f60208284031215614b9357614b926136e2565b5b5f614ba084828501614b6a565b91505092915050565b7f4e487b71000000000000000000000000000000000000000000000000000000005f52601260045260245ffd5b5f614be082613847565b9150614beb83613847565b9250828203905081811115614c0357614c02614711565b5b92915050565b7f4e487b71000000000000000000000000000000000000000000000000000000005f52603160045260245ffd5b5f604082019050614c495f8301856138d5565b614c566020830184613a66565b939250505056fea2646970667358221220b0e97850d2cb6eabcbaa82c9efa5cecf7c0be57ebe5c9a0ad246adda8da1cab164736f6c63430008180033","linkReferences":{}},"methodIdentifiers":{"DEFAULT_ADMIN_ROLE()":"a217fddf","GUARDIAN_STAKE()":"c8675835","MINTER_ROLE()":"d5391393","ORACLE_STAKE()":"3b1f2912","VALIDATOR_STAKE()":"e6f8afe1","VERIFIER_ROLE()":"e7705db6","activateNode(uint256,string)":"728aaa7a","approve(address,uint256)":"095ea7b3","approveOperator(address)":"242cae9f","approvedOperators(address)":"ff721aba","balanceOf(address)":"70a08231","deactivateNode(uint256)":"e9d63830","getActiveNodesByType(uint8)":"eaf8652e","getApproved(uint256)":"081812fc","getNodeMetadata(uint256)":"783ac75e","getNodesByOwner(address)":"42fcf250","getRequiredStake(uint8)":"c23a6f5a","getRoleAdmin(bytes32)":"248a9ca3","grantRole(bytes32,address)":"2f2ff15d","hasRole(bytes32,address)":"91d14854","isApprovedForAll(address,address)":"e985e9c5","isNodeEligible(uint256)":"5b0b3062","mintNode(address,uint8,uint256)":"58b6d54f","name()":"06fdde03","nodeMetadata(uint256)":"d58554bf","nodeTypeCount(uint8)":"500a97d8","ownerOf(uint256)":"6352211e","renounceRole(bytes32,address)":"36568abe","revokeRole(bytes32,address)":"d547741f","safeTransferFrom(address,address,uint256)":"42842e0e","safeTransferFrom(address,address,uint256,bytes)":"b88d4fde","setApprovalForAll(address,bool)":"a22cb465","setBaseURI(string)":"55f804b3","supportsInterface(bytes4)":"01ffc9a7","symbol()":"95d89b41","tokenByIndex(uint256)":"4f6ccce7","tokenOfOwnerByIndex(address,uint256)":"2f745c59","tokenURI(uint256)":"c87b56dd","totalSupply()":"18160ddd","transferFrom(address,address,uint256)":"23b872dd"},"id":53}