{"abi":[{"type":"constructor","inputs":[{"name":"admin","type":"address","internalType":"address"}],"stateMutability":"nonpayable"},{"type":"function","name":"DEFAULT_ADMIN_ROLE","inputs":[],"outputs":[{"name":"","type":"bytes32","internalType":"bytes32"}],"stateMutability":"view"},{"type":"function","name":"GUARDIAN_ROLE","inputs":[],"outputs":[{"name":"","type":"bytes32","internalType":"bytes32"}],"stateMutability":"view"},{"type":"function","name":"MAX_SIGNAL_AGE","inputs":[],"outputs":[{"name":"","type":"uint256","internalType":"uint256"}],"stateMutability":"view"},{"type":"function","name":"MIN_CONSENSUS_THRESHOLD","inputs":[],"outputs":[{"name":"","type":"uint256","internalType":"uint256"}],"stateMutability":"view"},{"type":"function","name":"ORACLE_ROLE","inputs":[],"outputs":[{"name":"","type":"bytes32","internalType":"bytes32"}],"stateMutability":"view"},{"type":"function","name":"activeOracleCount","inputs":[],"outputs":[{"name":"","type":"uint256","internalType":"uint256"}],"stateMutability":"view"},{"type":"function","name":"emergencyPause","inputs":[],"outputs":[],"stateMutability":"nonpayable"},{"type":"function","name":"getOracleInfo","inputs":[{"name":"oracle","type":"address","internalType":"address"}],"outputs":[{"name":"weight","type":"uint256","internalType":"uint256"},{"name":"stake","type":"uint256","internalType":"uint256"},{"name":"isActive","type":"bool","internalType":"bool"}],"stateMutability":"view"},{"type":"function","name":"getRoleAdmin","inputs":[{"name":"role","type":"bytes32","internalType":"bytes32"}],"outputs":[{"name":"","type":"bytes32","internalType":"bytes32"}],"stateMutability":"view"},{"type":"function","name":"grantRole","inputs":[{"name":"role","type":"bytes32","internalType":"bytes32"},{"name":"account","type":"address","internalType":"address"}],"outputs":[],"stateMutability":"nonpayable"},{"type":"function","name":"hasRole","inputs":[{"name":"role","type":"bytes32","internalType":"bytes32"},{"name":"account","type":"address","internalType":"address"}],"outputs":[{"name":"","type":"bool","internalType":"bool"}],"stateMutability":"view"},{"type":"function","name":"isSignalVerified","inputs":[{"name":"signalHash","type":"bytes32","internalType":"bytes32"}],"outputs":[{"name":"","type":"bool","internalType":"bool"}],"stateMutability":"view"},{"type":"function","name":"minStakeRequired","inputs":[],"outputs":[{"name":"","type":"uint256","internalType":"uint256"}],"stateMutability":"view"},{"type":"function","name":"oracleStake","inputs":[{"name":"","type":"address","internalType":"address"}],"outputs":[{"name":"","type":"uint256","internalType":"uint256"}],"stateMutability":"view"},{"type":"function","name":"oracleWeights","inputs":[{"name":"","type":"address","internalType":"address"}],"outputs":[{"name":"","type":"uint256","internalType":"uint256"}],"stateMutability":"view"},{"type":"function","name":"registerOracle","inputs":[{"name":"oracle","type":"address","internalType":"address"},{"name":"weight","type":"uint256","internalType":"uint256"}],"outputs":[],"stateMutability":"payable"},{"type":"function","name":"removeOracle","inputs":[{"name":"oracle","type":"address","internalType":"address"}],"outputs":[],"stateMutability":"nonpayable"},{"type":"function","name":"renounceRole","inputs":[{"name":"role","type":"bytes32","internalType":"bytes32"},{"name":"callerConfirmation","type":"address","internalType":"address"}],"outputs":[],"stateMutability":"nonpayable"},{"type":"function","name":"revokeRole","inputs":[{"name":"role","type":"bytes32","internalType":"bytes32"},{"name":"account","type":"address","internalType":"address"}],"outputs":[],"stateMutability":"nonpayable"},{"type":"function","name":"slashOracle","inputs":[{"name":"oracle","type":"address","internalType":"address"},{"name":"amount","type":"uint256","internalType":"uint256"},{"name":"reason","type":"string","internalType":"string"}],"outputs":[],"stateMutability":"nonpayable"},{"type":"function","name":"supportsInterface","inputs":[{"name":"interfaceId","type":"bytes4","internalType":"bytes4"}],"outputs":[{"name":"","type":"bool","internalType":"bool"}],"stateMutability":"view"},{"type":"function","name":"totalOracleWeight","inputs":[],"outputs":[{"name":"","type":"uint256","internalType":"uint256"}],"stateMutability":"view"},{"type":"function","name":"updateMinStake","inputs":[{"name":"newMinStake","type":"uint256","internalType":"uint256"}],"outputs":[],"stateMutability":"nonpayable"},{"type":"function","name":"verifiedSignals","inputs":[{"name":"","type":"bytes32","internalType":"bytes32"}],"outputs":[{"name":"","type":"bool","internalType":"bool"}],"stateMutability":"view"},{"type":"function","name":"verifyConsensus","inputs":[{"name":"signal","type":"tuple","internalType":"struct OracleVerifier.OracleSignal","components":[{"name":"symbol","type":"string","internalType":"string"},{"name":"prediction","type":"int256","internalType":"int256"},{"name":"confidence","type":"uint256","internalType":"uint256"},{"name":"timestamp","type":"uint256","internalType":"uint256"},{"name":"modelHash","type":"bytes32","internalType":"bytes32"}]},{"name":"signers","type":"address[]","internalType":"address[]"},{"name":"signatures","type":"bytes[]","internalType":"bytes[]"}],"outputs":[{"name":"signalHash","type":"bytes32","internalType":"bytes32"}],"stateMutability":"nonpayable"},{"type":"event","name":"ConsensusReached","inputs":[{"name":"signalHash","type":"bytes32","indexed":true,"internalType":"bytes32"},{"name":"signerCount","type":"uint256","indexed":false,"internalType":"uint256"},{"name":"totalWeight","type":"uint256","indexed":false,"internalType":"uint256"}],"anonymous":false},{"type":"event","name":"OracleRegistered","inputs":[{"name":"oracle","type":"address","indexed":true,"internalType":"address"},{"name":"weight","type":"uint256","indexed":false,"internalType":"uint256"},{"name":"stake","type":"uint256","indexed":false,"internalType":"uint256"}],"anonymous":false},{"type":"event","name":"OracleRemoved","inputs":[{"name":"oracle","type":"address","indexed":true,"internalType":"address"}],"anonymous":false},{"type":"event","name":"RoleAdminChanged","inputs":[{"name":"role","type":"bytes32","indexed":true,"internalType":"bytes32"},{"name":"previousAdminRole","type":"bytes32","indexed":true,"internalType":"bytes32"},{"name":"newAdminRole","type":"bytes32","indexed":true,"internalType":"bytes32"}],"anonymous":false},{"type":"event","name":"RoleGranted","inputs":[{"name":"role","type":"bytes32","indexed":true,"internalType":"bytes32"},{"name":"account","type":"address","indexed":true,"internalType":"address"},{"name":"sender","type":"address","indexed":true,"internalType":"address"}],"anonymous":false},{"type":"event","name":"RoleRevoked","inputs":[{"name":"role","type":"bytes32","indexed":true,"internalType":"bytes32"},{"name":"account","type":"address","indexed":true,"internalType":"address"},{"name":"sender","type":"address","indexed":true,"internalType":"address"}],"anonymous":false},{"type":"event","name":"SignalVerified","inputs":[{"name":"signalHash","type":"bytes32","indexed":true,"internalType":"bytes32"},{"name":"symbol","type":"string","indexed":false,"internalType":"string"},{"name":"prediction","type":"int256","indexed":false,"internalType":"int256"},{"name":"confidence","type":"uint256","indexed":false,"internalType":"uint256"}],"anonymous":false},{"type":"event","name":"SlashingExecuted","inputs":[{"name":"oracle","type":"address","indexed":true,"internalType":"address"},{"name":"amount","type":"uint256","indexed":false,"internalType":"uint256"},{"name":"reason","type":"string","indexed":false,"internalType":"string"}],"anonymous":false},{"type":"error","name":"AccessControlBadConfirmation","inputs":[]},{"type":"error","name":"AccessControlUnauthorizedAccount","inputs":[{"name":"account","type":"address","internalType":"address"},{"name":"neededRole","type":"bytes32","internalType":"bytes32"}]},{"type":"error","name":"ECDSAInvalidSignature","inputs":[]},{"type":"error","name":"ECDSAInvalidSignatureLength","inputs":[{"name":"length","type":"uint256","internalType":"uint256"}]},{"type":"error","name":"ECDSAInvalidSignatureS","inputs":[{"name":"s","type":"bytes32","internalType":"bytes32"}]}],"bytecode":{"object":"0x6080604052683635c9adc5dea0000060065534801561001c575f5ffd5b50604051612dc7380380612dc7833981810160405281019061003e9190610245565b6100505f5f1b8261008860201b60201c565b506100817f55435dd261a4b9b3364963f7738a7a662ad9c84396d64be3365284bb7f0a50418261008860201b60201c565b5050610270565b5f610099838361017d60201b60201c565b6101735760015f5f8581526020019081526020015f205f015f8473ffffffffffffffffffffffffffffffffffffffff1673ffffffffffffffffffffffffffffffffffffffff1681526020019081526020015f205f6101000a81548160ff0219169083151502179055506101106101e060201b60201c565b73ffffffffffffffffffffffffffffffffffffffff168273ffffffffffffffffffffffffffffffffffffffff16847f2f8788117e7eff1d82e926ec794901d17c78024a50270940304540a733656f0d60405160405180910390a460019050610177565b5f90505b92915050565b5f5f5f8481526020019081526020015f205f015f8373ffffffffffffffffffffffffffffffffffffffff1673ffffffffffffffffffffffffffffffffffffffff1681526020019081526020015f205f9054906101000a900460ff16905092915050565b5f33905090565b5f5ffd5b5f73ffffffffffffffffffffffffffffffffffffffff82169050919050565b5f610214826101eb565b9050919050565b6102248161020a565b811461022e575f5ffd5b50565b5f8151905061023f8161021b565b92915050565b5f6020828403121561025a576102596101e7565b5b5f61026784828501610231565b91505092915050565b612b4a8061027d5f395ff3fe608060405260043610610165575f3560e01c806371b9a0db116100d0578063a49d6d8011610089578063bfdb6b0411610063578063bfdb6b0414610541578063d547741f1461057f578063e6305234146105a7578063fdc85fc4146105d157610165565b8063a49d6d80146104b1578063bca86af8146104db578063bdab4d6c1461050557610165565b806371b9a0db146103a35780638cdb442f146103df57806391d148541461040757806392b3ad9b1461044357806396e9f9f71461046b578063a217fddf1461048757610165565b806336568abe1161012257806336568abe1461028757806343b769fd146102af578063502f6826146102eb57806351858e27146103155780636dfb0ac41461032b57806371115ce81461036757610165565b806301ffc9a71461016957806307e2cea5146101a557806318ad689e146101cf578063248a9ca3146101f957806324ea54f4146102355780632f2ff15d1461025f575b5f5ffd5b348015610174575f5ffd5b5061018f600480360381019061018a9190611b95565b6105f9565b60405161019c9190611bda565b60405180910390f35b3480156101b0575f5ffd5b506101b9610672565b6040516101c69190611c0b565b60405180910390f35b3480156101da575f5ffd5b506101e3610696565b6040516101f09190611c3c565b60405180910390f35b348015610204575f5ffd5b5061021f600480360381019061021a9190611c7f565b61069b565b60405161022c9190611c0b565b60405180910390f35b348015610240575f5ffd5b506102496106b7565b6040516102569190611c0b565b60405180910390f35b34801561026a575f5ffd5b5061028560048036038101906102809190611d04565b6106db565b005b348015610292575f5ffd5b506102ad60048036038101906102a89190611d04565b6106fd565b005b3480156102ba575f5ffd5b506102d560048036038101906102d09190611d42565b610778565b6040516102e29190611c3c565b60405180910390f35b3480156102f6575f5ffd5b506102ff61078d565b60405161030c9190611c3c565b60405180910390f35b348015610320575f5ffd5b50610329610793565b005b348015610336575f5ffd5b50610351600480360381019061034c9190611e45565b6107a9565b60405161035e9190611c0b565b60405180910390f35b348015610372575f5ffd5b5061038d60048036038101906103889190611c7f565b610ccf565b60405161039a9190611bda565b60405180910390f35b3480156103ae575f5ffd5b506103c960048036038101906103c49190611d42565b610cec565b6040516103d69190611c3c565b60405180910390f35b3480156103ea575f5ffd5b5061040560048036038101906104009190611f1c565b610d01565b005b348015610412575f5ffd5b5061042d60048036038101906104289190611d04565b610d18565b60405161043a9190611bda565b60405180910390f35b34801561044e575f5ffd5b5061046960048036038101906104649190611f9c565b610d7b565b005b6104856004803603810190610480919061200d565b610f15565b005b348015610492575f5ffd5b5061049b6111e6565b6040516104a89190611c0b565b60405180910390f35b3480156104bc575f5ffd5b506104c56111ec565b6040516104d29190611c3c565b60405180910390f35b3480156104e6575f5ffd5b506104ef6111f1565b6040516104fc9190611c3c565b60405180910390f35b348015610510575f5ffd5b5061052b60048036038101906105269190611c7f565b6111f7565b6040516105389190611bda565b60405180910390f35b34801561054c575f5ffd5b5061056760048036038101906105629190611d42565b61121d565b6040516105769392919061204b565b60405180910390f35b34801561058a575f5ffd5b506105a560048036038101906105a09190611d04565b6112d3565b005b3480156105b2575f5ffd5b506105bb6112f5565b6040516105c89190611c3c565b60405180910390f35b3480156105dc575f5ffd5b506105f760048036038101906105f29190611d42565b6112fb565b005b5f7f7965db0b000000000000000000000000000000000000000000000000000000007bffffffffffffffffffffffffffffffffffffffffffffffffffffffff1916827bffffffffffffffffffffffffffffffffffffffffffffffffffffffff1916148061066b575061066a82611596565b5b9050919050565b7f68e79a7bf1e0bc45d0a330c573bc367f9cf464fd326078812f301165fbda4ef181565b604381565b5f5f5f8381526020019081526020015f20600101549050919050565b7f55435dd261a4b9b3364963f7738a7a662ad9c84396d64be3365284bb7f0a504181565b6106e48261069b565b6106ed816115ff565b6106f78383611613565b50505050565b6107056116fc565b73ffffffffffffffffffffffffffffffffffffffff168173ffffffffffffffffffffffffffffffffffffffff1614610769576040517f6697b23200000000000000000000000000000000000000000000000000000000815260040160405180910390fd5b6107738282611703565b505050565b6001602052805f5260405f205f915090505481565b60065481565b5f5f1b61079f816115ff565b5f60058190555050565b5f8282905085859050146107f2576040517f08c379a00000000000000000000000000000000000000000000000000000000081526004016107e9906120da565b60405180910390fd5b6003858590501015610839576040517f08c379a000000000000000000000000000000000000000000000000000000000815260040161083090612142565b60405180910390fd5b603c86606001354261084b919061218d565b111561088c576040517f08c379a00000000000000000000000000000000000000000000000000000000081526004016108839061220a565b60405180910390fd5b85805f019061089b9190612234565b8760200135886040013589606001358a608001356040516020016108c4969594939291906122f8565b60405160208183030381529060405280519060200120905060025f8281526020019081526020015f205f9054906101000a900460ff161561093a576040517f08c379a00000000000000000000000000000000000000000000000000000000081526004016109319061239c565b60405180910390fd5b5f5f90505f5f90505f5f90505b87879050811015610ba8575f888883818110610966576109656123ba565b5b905060200201602081019061097b9190611d42565b90508273ffffffffffffffffffffffffffffffffffffffff168173ffffffffffffffffffffffffffffffffffffffff16116109eb576040517f08c379a00000000000000000000000000000000000000000000000000000000081526004016109e290612457565b60405180910390fd5b809250610a187f68e79a7bf1e0bc45d0a330c573bc367f9cf464fd326078812f301165fbda4ef182610d18565b610a57576040517f08c379a0000000000000000000000000000000000000000000000000000000008152600401610a4e906124bf565b60405180910390fd5b5f610a61866117ec565b90505f610add898986818110610a7a57610a796123ba565b5b9050602002810190610a8c91906124dd565b8080601f0160208091040260200160405190810160405280939291908181526020018383808284375f81840152601f19601f820116905080830192505050505050508361181f90919063ffffffff16565b90508273ffffffffffffffffffffffffffffffffffffffff168173ffffffffffffffffffffffffffffffffffffffff1614610b4d576040517f08c379a0000000000000000000000000000000000000000000000000000000008152600401610b4490612589565b60405180910390fd5b60015f8473ffffffffffffffffffffffffffffffffffffffff1673ffffffffffffffffffffffffffffffffffffffff1681526020019081526020015f205486610b9691906125a7565b95505050508080600101915050610947565b505f600454606484610bba91906125da565b610bc49190612648565b90506043811015610c0a576040517f08c379a0000000000000000000000000000000000000000000000000000000008152600401610c01906126c2565b60405180910390fd5b600160025f8681526020019081526020015f205f6101000a81548160ff021916908315150217905550837f71c41c8c26be69c8d84d44608d92a8a6c31398883af0ed1480592619d0214dcc8989905085604051610c689291906126e0565b60405180910390a2837f5f1d5aebc5191955e81f6ec2b658bcda150e96f9fd439c82bb13ec3194dc32848a805f0190610ca19190612234565b8c602001358d60400135604051610cbb9493929190612707565b60405180910390a250505095945050505050565b6002602052805f5260405f205f915054906101000a900460ff1681565b6003602052805f5260405f205f915090505481565b5f5f1b610d0d816115ff565b816006819055505050565b5f5f5f8481526020019081526020015f205f015f8373ffffffffffffffffffffffffffffffffffffffff1673ffffffffffffffffffffffffffffffffffffffff1681526020019081526020015f205f9054906101000a900460ff16905092915050565b7f55435dd261a4b9b3364963f7738a7a662ad9c84396d64be3365284bb7f0a5041610da5816115ff565b8360035f8773ffffffffffffffffffffffffffffffffffffffff1673ffffffffffffffffffffffffffffffffffffffff1681526020019081526020015f20541015610e25576040517f08c379a0000000000000000000000000000000000000000000000000000000008152600401610e1c9061278f565b60405180910390fd5b8360035f8773ffffffffffffffffffffffffffffffffffffffff1673ffffffffffffffffffffffffffffffffffffffff1681526020019081526020015f205f828254610e71919061218d565b925050819055503373ffffffffffffffffffffffffffffffffffffffff166108fc8590811502906040515f60405180830381858888f19350505050158015610ebb573d5f5f3e3d5ffd5b508473ffffffffffffffffffffffffffffffffffffffff167f4d75deb3f5ad7a848ba8ac501adca756ab641eafb2bf980aa6fb93ce47980a22858585604051610f06939291906127ad565b60405180910390a25050505050565b7f55435dd261a4b9b3364963f7738a7a662ad9c84396d64be3365284bb7f0a5041610f3f816115ff565b5f73ffffffffffffffffffffffffffffffffffffffff168373ffffffffffffffffffffffffffffffffffffffff1603610fad576040517f08c379a0000000000000000000000000000000000000000000000000000000008152600401610fa490612827565b60405180910390fd5b5f8211610fef576040517f08c379a0000000000000000000000000000000000000000000000000000000008152600401610fe69061288f565b60405180910390fd5b600654341015611034576040517f08c379a000000000000000000000000000000000000000000000000000000000815260040161102b906128f7565b60405180910390fd5b5f60015f8573ffffffffffffffffffffffffffffffffffffffff1673ffffffffffffffffffffffffffffffffffffffff1681526020019081526020015f2054146110b3576040517f08c379a00000000000000000000000000000000000000000000000000000000081526004016110aa9061295f565b60405180910390fd5b8160015f8573ffffffffffffffffffffffffffffffffffffffff1673ffffffffffffffffffffffffffffffffffffffff1681526020019081526020015f20819055503460035f8573ffffffffffffffffffffffffffffffffffffffff1673ffffffffffffffffffffffffffffffffffffffff1681526020019081526020015f20819055508160045f82825461114891906125a7565b9250508190555060055f8154809291906111619061297d565b91905055506111907f68e79a7bf1e0bc45d0a330c573bc367f9cf464fd326078812f301165fbda4ef184611613565b508273ffffffffffffffffffffffffffffffffffffffff167f346ecb460b5d4e3b0101a70de7997e16dde8d87036eb6fb8bede66a56f27051a83346040516111d99291906126e0565b60405180910390a2505050565b5f5f1b81565b603c81565b60055481565b5f60025f8381526020019081526020015f205f9054906101000a900460ff169050919050565b5f5f5f60015f8573ffffffffffffffffffffffffffffffffffffffff1673ffffffffffffffffffffffffffffffffffffffff1681526020019081526020015f205460035f8673ffffffffffffffffffffffffffffffffffffffff1673ffffffffffffffffffffffffffffffffffffffff1681526020019081526020015f20546112c67f68e79a7bf1e0bc45d0a330c573bc367f9cf464fd326078812f301165fbda4ef187610d18565b9250925092509193909250565b6112dc8261069b565b6112e5816115ff565b6112ef8383611703565b50505050565b60045481565b7f55435dd261a4b9b3364963f7738a7a662ad9c84396d64be3365284bb7f0a5041611325816115ff565b5f60015f8473ffffffffffffffffffffffffffffffffffffffff1673ffffffffffffffffffffffffffffffffffffffff1681526020019081526020015f2054116113a4576040517f08c379a000000000000000000000000000000000000000000000000000000000815260040161139b90612a0e565b60405180910390fd5b5f60015f8473ffffffffffffffffffffffffffffffffffffffff1673ffffffffffffffffffffffffffffffffffffffff1681526020019081526020015f205490505f60035f8573ffffffffffffffffffffffffffffffffffffffff1673ffffffffffffffffffffffffffffffffffffffff1681526020019081526020015f205490508160045f828254611437919061218d565b9250508190555060055f81548092919061145090612a2c565b919050555060015f8573ffffffffffffffffffffffffffffffffffffffff1673ffffffffffffffffffffffffffffffffffffffff1681526020019081526020015f205f905560035f8573ffffffffffffffffffffffffffffffffffffffff1673ffffffffffffffffffffffffffffffffffffffff1681526020019081526020015f205f90556114ff7f68e79a7bf1e0bc45d0a330c573bc367f9cf464fd326078812f301165fbda4ef185611703565b505f81111561154d578373ffffffffffffffffffffffffffffffffffffffff166108fc8290811502906040515f60405180830381858888f1935050505015801561154b573d5f5f3e3d5ffd5b505b8373ffffffffffffffffffffffffffffffffffffffff167f9c8e7d83025bef8a04c664b2f753f64b8814bdb7e27291d7e50935f18cc3c71260405160405180910390a250505050565b5f7f01ffc9a7000000000000000000000000000000000000000000000000000000007bffffffffffffffffffffffffffffffffffffffffffffffffffffffff1916827bffffffffffffffffffffffffffffffffffffffffffffffffffffffff1916149050919050565b6116108161160b6116fc565b611849565b50565b5f61161e8383610d18565b6116f25760015f5f8581526020019081526020015f205f015f8473ffffffffffffffffffffffffffffffffffffffff1673ffffffffffffffffffffffffffffffffffffffff1681526020019081526020015f205f6101000a81548160ff02191690831515021790555061168f6116fc565b73ffffffffffffffffffffffffffffffffffffffff168273ffffffffffffffffffffffffffffffffffffffff16847f2f8788117e7eff1d82e926ec794901d17c78024a50270940304540a733656f0d60405160405180910390a4600190506116f6565b5f90505b92915050565b5f33905090565b5f61170e8383610d18565b156117e2575f5f5f8581526020019081526020015f205f015f8473ffffffffffffffffffffffffffffffffffffffff1673ffffffffffffffffffffffffffffffffffffffff1681526020019081526020015f205f6101000a81548160ff02191690831515021790555061177f6116fc565b73ffffffffffffffffffffffffffffffffffffffff168273ffffffffffffffffffffffffffffffffffffffff16847ff6391f5c32d9c69d2a47ea670b442974b53935d1edc7fd64eb21e047a839171b60405160405180910390a4600190506117e6565b5f90505b92915050565b5f7f19457468657265756d205369676e6564204d6573736167653a0a3332000000005f5281601c52603c5f209050919050565b5f5f5f5f61182d868661189a565b92509250925061183d82826118ef565b82935050505092915050565b6118538282610d18565b6118965780826040517fe2517d3f00000000000000000000000000000000000000000000000000000000815260040161188d929190612a62565b60405180910390fd5b5050565b5f5f5f60418451036118da575f5f5f602087015192506040870151915060608701515f1a90506118cc88828585611a51565b9550955095505050506118e8565b5f600285515f1b9250925092505b9250925092565b5f600381111561190257611901612a89565b5b82600381111561191557611914612a89565b5b0315611a4d576001600381111561192f5761192e612a89565b5b82600381111561194257611941612a89565b5b03611979576040517ff645eedf00000000000000000000000000000000000000000000000000000000815260040160405180910390fd5b6002600381111561198d5761198c612a89565b5b8260038111156119a05761199f612a89565b5b036119e457805f1c6040517ffce698f70000000000000000000000000000000000000000000000000000000081526004016119db9190611c3c565b60405180910390fd5b6003808111156119f7576119f6612a89565b5b826003811115611a0a57611a09612a89565b5b03611a4c57806040517fd78bce0c000000000000000000000000000000000000000000000000000000008152600401611a439190611c0b565b60405180910390fd5b5b5050565b5f5f5f7f7fffffffffffffffffffffffffffffff5d576e7357a4501ddfe92f46681b20a0845f1c1115611a8d575f600385925092509250611b2e565b5f6001888888886040515f8152602001604052604051611ab09493929190612ad1565b6020604051602081039080840390855afa158015611ad0573d5f5f3e3d5ffd5b5050506020604051035190505f73ffffffffffffffffffffffffffffffffffffffff168173ffffffffffffffffffffffffffffffffffffffff1603611b21575f60015f5f1b93509350935050611b2e565b805f5f5f1b935093509350505b9450945094915050565b5f5ffd5b5f5ffd5b5f7fffffffff0000000000000000000000000000000000000000000000000000000082169050919050565b611b7481611b40565b8114611b7e575f5ffd5b50565b5f81359050611b8f81611b6b565b92915050565b5f60208284031215611baa57611ba9611b38565b5b5f611bb784828501611b81565b91505092915050565b5f8115159050919050565b611bd481611bc0565b82525050565b5f602082019050611bed5f830184611bcb565b92915050565b5f819050919050565b611c0581611bf3565b82525050565b5f602082019050611c1e5f830184611bfc565b92915050565b5f819050919050565b611c3681611c24565b82525050565b5f602082019050611c4f5f830184611c2d565b92915050565b611c5e81611bf3565b8114611c68575f5ffd5b50565b5f81359050611c7981611c55565b92915050565b5f60208284031215611c9457611c93611b38565b5b5f611ca184828501611c6b565b91505092915050565b5f73ffffffffffffffffffffffffffffffffffffffff82169050919050565b5f611cd382611caa565b9050919050565b611ce381611cc9565b8114611ced575f5ffd5b50565b5f81359050611cfe81611cda565b92915050565b5f5f60408385031215611d1a57611d19611b38565b5b5f611d2785828601611c6b565b9250506020611d3885828601611cf0565b9150509250929050565b5f60208284031215611d5757611d56611b38565b5b5f611d6484828501611cf0565b91505092915050565b5f5ffd5b5f60a08284031215611d8657611d85611d6d565b5b81905092915050565b5f5ffd5b5f5ffd5b5f5ffd5b5f5f83601f840112611db057611daf611d8f565b5b8235905067ffffffffffffffff811115611dcd57611dcc611d93565b5b602083019150836020820283011115611de957611de8611d97565b5b9250929050565b5f5f83601f840112611e0557611e04611d8f565b5b8235905067ffffffffffffffff811115611e2257611e21611d93565b5b602083019150836020820283011115611e3e57611e3d611d97565b5b9250929050565b5f5f5f5f5f60608688031215611e5e57611e5d611b38565b5b5f86013567ffffffffffffffff811115611e7b57611e7a611b3c565b5b611e8788828901611d71565b955050602086013567ffffffffffffffff811115611ea857611ea7611b3c565b5b611eb488828901611d9b565b9450945050604086013567ffffffffffffffff811115611ed757611ed6611b3c565b5b611ee388828901611df0565b92509250509295509295909350565b611efb81611c24565b8114611f05575f5ffd5b50565b5f81359050611f1681611ef2565b92915050565b5f60208284031215611f3157611f30611b38565b5b5f611f3e84828501611f08565b91505092915050565b5f5f83601f840112611f5c57611f5b611d8f565b5b8235905067ffffffffffffffff811115611f7957611f78611d93565b5b602083019150836001820283011115611f9557611f94611d97565b5b9250929050565b5f5f5f5f60608587031215611fb457611fb3611b38565b5b5f611fc187828801611cf0565b9450506020611fd287828801611f08565b935050604085013567ffffffffffffffff811115611ff357611ff2611b3c565b5b611fff87828801611f47565b925092505092959194509250565b5f5f6040838503121561202357612022611b38565b5b5f61203085828601611cf0565b925050602061204185828601611f08565b9150509250929050565b5f60608201905061205e5f830186611c2d565b61206b6020830185611c2d565b6120786040830184611bcb565b949350505050565b5f82825260208201905092915050565b7f4d69736d617463686564206172726179730000000000000000000000000000005f82015250565b5f6120c4601183612080565b91506120cf82612090565b602082019050919050565b5f6020820190508181035f8301526120f1816120b8565b9050919050565b7f4d696e696d756d2033207369676e6572732072657175697265640000000000005f82015250565b5f61212c601a83612080565b9150612137826120f8565b602082019050919050565b5f6020820190508181035f83015261215981612120565b9050919050565b7f4e487b71000000000000000000000000000000000000000000000000000000005f52601160045260245ffd5b5f61219782611c24565b91506121a283611c24565b92508282039050818111156121ba576121b9612160565b5b92915050565b7f5369676e616c20746f6f206f6c640000000000000000000000000000000000005f82015250565b5f6121f4600e83612080565b91506121ff826121c0565b602082019050919050565b5f6020820190508181035f830152612221816121e8565b9050919050565b5f5ffd5b5f5ffd5b5f5ffd5b5f5f833560016020038436030381126122505761224f612228565b5b80840192508235915067ffffffffffffffff8211156122725761227161222c565b5b60208301925060018202360383131561228e5761228d612230565b5b509250929050565b828183375f83830152505050565b5f601f19601f8301169050919050565b5f6122bf8385612080565b93506122cc838584612296565b6122d5836122a4565b840190509392505050565b5f819050919050565b6122f2816122e0565b82525050565b5f60a0820190508181035f83015261231181888a6122b4565b905061232060208301876122e9565b61232d6040830186611c2d565b61233a6060830185611c2d565b6123476080830184611bfc565b979650505050505050565b7f5369676e616c20616c72656164792076657269666965640000000000000000005f82015250565b5f612386601783612080565b915061239182612352565b602082019050919050565b5f6020820190508181035f8301526123b38161237a565b9050919050565b7f4e487b71000000000000000000000000000000000000000000000000000000005f52603260045260245ffd5b7f5369676e657273206d75737420626520736f7274656420616e6420756e6971755f8201527f6500000000000000000000000000000000000000000000000000000000000000602082015250565b5f612441602183612080565b915061244c826123e7565b604082019050919050565b5f6020820190508181035f83015261246e81612435565b9050919050565b7f5369676e6572206e6f742072656769737465726564206f7261636c65000000005f82015250565b5f6124a9601c83612080565b91506124b482612475565b602082019050919050565b5f6020820190508181035f8301526124d68161249d565b9050919050565b5f5f833560016020038436030381126124f9576124f8612228565b5b80840192508235915067ffffffffffffffff82111561251b5761251a61222c565b5b60208301925060018202360383131561253757612536612230565b5b509250929050565b7f496e76616c6964207369676e61747572650000000000000000000000000000005f82015250565b5f612573601183612080565b915061257e8261253f565b602082019050919050565b5f6020820190508181035f8301526125a081612567565b9050919050565b5f6125b182611c24565b91506125bc83611c24565b92508282019050808211156125d4576125d3612160565b5b92915050565b5f6125e482611c24565b91506125ef83611c24565b92508282026125fd81611c24565b9150828204841483151761261457612613612160565b5b5092915050565b7f4e487b71000000000000000000000000000000000000000000000000000000005f52601260045260245ffd5b5f61265282611c24565b915061265d83611c24565b92508261266d5761266c61261b565b5b828204905092915050565b7f436f6e73656e737573207468726573686f6c64206e6f74206d657400000000005f82015250565b5f6126ac601b83612080565b91506126b782612678565b602082019050919050565b5f6020820190508181035f8301526126d9816126a0565b9050919050565b5f6040820190506126f35f830185611c2d565b6127006020830184611c2d565b9392505050565b5f6060820190508181035f8301526127208186886122b4565b905061272f60208301856122e9565b61273c6040830184611c2d565b95945050505050565b7f496e73756666696369656e74207374616b6520746f20736c61736800000000005f82015250565b5f612779601b83612080565b915061278482612745565b602082019050919050565b5f6020820190508181035f8301526127a68161276d565b9050919050565b5f6040820190506127c05f830186611c2d565b81810360208301526127d38184866122b4565b9050949350505050565b7f496e76616c6964206f7261636c652061646472657373000000000000000000005f82015250565b5f612811601683612080565b915061281c826127dd565b602082019050919050565b5f6020820190508181035f83015261283e81612805565b9050919050565b7f576569676874206d75737420626520706f7369746976650000000000000000005f82015250565b5f612879601783612080565b915061288482612845565b602082019050919050565b5f6020820190508181035f8301526128a68161286d565b9050919050565b7f496e73756666696369656e74207374616b6500000000000000000000000000005f82015250565b5f6128e1601283612080565b91506128ec826128ad565b602082019050919050565b5f6020820190508181035f83015261290e816128d5565b9050919050565b7f4f7261636c6520616c72656164792072656769737465726564000000000000005f82015250565b5f612949601983612080565b915061295482612915565b602082019050919050565b5f6020820190508181035f8301526129768161293d565b9050919050565b5f61298782611c24565b91507fffffffffffffffffffffffffffffffffffffffffffffffffffffffffffffffff82036129b9576129b8612160565b5b600182019050919050565b7f4f7261636c65206e6f74207265676973746572656400000000000000000000005f82015250565b5f6129f8601583612080565b9150612a03826129c4565b602082019050919050565b5f6020820190508181035f830152612a25816129ec565b9050919050565b5f612a3682611c24565b91505f8203612a4857612a47612160565b5b600182039050919050565b612a5c81611cc9565b82525050565b5f604082019050612a755f830185612a53565b612a826020830184611bfc565b9392505050565b7f4e487b71000000000000000000000000000000000000000000000000000000005f52602160045260245ffd5b5f60ff82169050919050565b612acb81612ab6565b82525050565b5f608082019050612ae45f830187611bfc565b612af16020830186612ac2565b612afe6040830185611bfc565b612b0b6060830184611bfc565b9594505050505056fea264697066735822122008a73fac20fe60fa577521fc2b7c35354794585ebda0751bc39a1a166f535e6764736f6c634300081e0033","linkReferences":{}},"methodIdentifiers":{"DEFAULT_ADMIN_ROLE()":"a217fddf","GUARDIAN_ROLE()":"24ea54f4","MAX_SIGNAL_AGE()":"a49d6d80","MIN_CONSENSUS_THRESHOLD()":"18ad689e","ORACLE_ROLE()":"07e2cea5","activeOracleCount()":"bca86af8","emergencyPause()":"51858e27","getOracleInfo(address)":"bfdb6b04","getRoleAdmin(bytes32)":"248a9ca3","grantRole(bytes32,address)":"2f2ff15d","hasRole(bytes32,address)":"91d14854","isSignalVerified(bytes32)":"bdab4d6c","minStakeRequired()":"502f6826","oracleStake(address)":"71b9a0db","oracleWeights(address)":"43b769fd","registerOracle(address,uint256)":"96e9f9f7","removeOracle(address)":"fdc85fc4","renounceRole(bytes32,address)":"36568abe","revokeRole(bytes32,address)":"d547741f","slashOracle(address,uint256,string)":"92b3ad9b","supportsInterface(bytes4)":"01ffc9a7","totalOracleWeight()":"e6305234","updateMinStake(uint256)":"8cdb442f","verifiedSignals(bytes32)":"71115ce8","verifyConsensus((string,int256,uint256,uint256,bytes32),address[],bytes[])":"6dfb0ac4"},"id":40}