{"abi":[{"type":"constructor","inputs":[{"name":"admin","type":"address","internalType":"address"}],"stateMutability":"nonpayable"},{"type":"function","name":"DEFAULT_ADMIN_ROLE","inputs":[],"outputs":[{"name":"","type":"bytes32","internalType":"bytes32"}],"stateMutability":"view"},{"type":"function","name":"GUARDIAN_ROLE","inputs":[],"outputs":[{"name":"","type":"bytes32","internalType":"bytes32"}],"stateMutability":"view"},{"type":"function","name":"MAX_SIGNAL_AGE","inputs":[],"outputs":[{"name":"","type":"uint256","internalType":"uint256"}],"stateMutability":"view"},{"type":"function","name":"MIN_CONSENSUS_THRESHOLD","inputs":[],"outputs":[{"name":"","type":"uint256","internalType":"uint256"}],"stateMutability":"view"},{"type":"function","name":"ORACLE_ROLE","inputs":[],"outputs":[{"name":"","type":"bytes32","internalType":"bytes32"}],"stateMutability":"view"},{"type":"function","name":"activeOracleCount","inputs":[],"outputs":[{"name":"","type":"uint256","internalType":"uint256"}],"stateMutability":"view"},{"type":"function","name":"emergencyPause","inputs":[],"outputs":[],"stateMutability":"nonpayable"},{"type":"function","name":"getOracleInfo","inputs":[{"name":"oracle","type":"address","internalType":"address"}],"outputs":[{"name":"weight","type":"uint256","internalType":"uint256"},{"name":"stake","type":"uint256","internalType":"uint256"},{"name":"isActive","type":"bool","internalType":"bool"}],"stateMutability":"view"},{"type":"function","name":"getRoleAdmin","inputs":[{"name":"role","type":"bytes32","internalType":"bytes32"}],"outputs":[{"name":"","type":"bytes32","internalType":"bytes32"}],"stateMutability":"view"},{"type":"function","name":"grantRole","inputs":[{"name":"role","type":"bytes32","internalType":"bytes32"},{"name":"account","type":"address","internalType":"address"}],"outputs":[],"stateMutability":"nonpayable"},{"type":"function","name":"hasRole","inputs":[{"name":"role","type":"bytes32","internalType":"bytes32"},{"name":"account","type":"address","internalType":"address"}],"outputs":[{"name":"","type":"bool","internalType":"bool"}],"stateMutability":"view"},{"type":"function","name":"isSignalVerified","inputs":[{"name":"signalHash","type":"bytes32","internalType":"bytes32"}],"outputs":[{"name":"","type":"bool","internalType":"bool"}],"stateMutability":"view"},{"type":"function","name":"minStakeRequired","inputs":[],"outputs":[{"name":"","type":"uint256","internalType":"uint256"}],"stateMutability":"view"},{"type":"function","name":"oracleStake","inputs":[{"name":"","type":"address","internalType":"address"}],"outputs":[{"name":"","type":"uint256","internalType":"uint256"}],"stateMutability":"view"},{"type":"function","name":"oracleWeights","inputs":[{"name":"","type":"address","internalType":"address"}],"outputs":[{"name":"","type":"uint256","internalType":"uint256"}],"stateMutability":"view"},{"type":"function","name":"registerOracle","inputs":[{"name":"oracle","type":"address","internalType":"address"},{"name":"weight","type":"uint256","internalType":"uint256"}],"outputs":[],"stateMutability":"payable"},{"type":"function","name":"removeOracle","inputs":[{"name":"oracle","type":"address","internalType":"address"}],"outputs":[],"stateMutability":"nonpayable"},{"type":"function","name":"renounceRole","inputs":[{"name":"role","type":"bytes32","internalType":"bytes32"},{"name":"callerConfirmation","type":"address","internalType":"address"}],"outputs":[],"stateMutability":"nonpayable"},{"type":"function","name":"revokeRole","inputs":[{"name":"role","type":"bytes32","internalType":"bytes32"},{"name":"account","type":"address","internalType":"address"}],"outputs":[],"stateMutability":"nonpayable"},{"type":"function","name":"slashOracle","inputs":[{"name":"oracle","type":"address","internalType":"address"},{"name":"amount","type":"uint256","internalType":"uint256"},{"name":"reason","type":"string","internalType":"string"}],"outputs":[],"stateMutability":"nonpayable"},{"type":"function","name":"supportsInterface","inputs":[{"name":"interfaceId","type":"bytes4","internalType":"bytes4"}],"outputs":[{"name":"","type":"bool","internalType":"bool"}],"stateMutability":"view"},{"type":"function","name":"totalOracleWeight","inputs":[],"outputs":[{"name":"","type":"uint256","internalType":"uint256"}],"stateMutability":"view"},{"type":"function","name":"updateMinStake","inputs":[{"name":"newMinStake","type":"uint256","internalType":"uint256"}],"outputs":[],"stateMutability":"nonpayable"},{"type":"function","name":"verifiedSignals","inputs":[{"name":"","type":"bytes32","internalType":"bytes32"}],"outputs":[{"name":"","type":"bool","internalType":"bool"}],"stateMutability":"view"},{"type":"function","name":"verifyConsensus","inputs":[{"name":"signal","type":"tuple","internalType":"struct OracleVerifier.OracleSignal","components":[{"name":"symbol","type":"string","internalType":"string"},{"name":"prediction","type":"int256","internalType":"int256"},{"name":"confidence","type":"uint256","internalType":"uint256"},{"name":"timestamp","type":"uint256","internalType":"uint256"},{"name":"modelHash","type":"bytes32","internalType":"bytes32"}]},{"name":"signers","type":"address[]","internalType":"address[]"},{"name":"signatures","type":"bytes[]","internalType":"bytes[]"}],"outputs":[{"name":"signalHash","type":"bytes32","internalType":"bytes32"}],"stateMutability":"nonpayable"},{"type":"event","name":"ConsensusReached","inputs":[{"name":"signalHash","type":"bytes32","indexed":true,"internalType":"bytes32"},{"name":"signerCount","type":"uint256","indexed":false,"internalType":"uint256"},{"name":"totalWeight","type":"uint256","indexed":false,"internalType":"uint256"}],"anonymous":false},{"type":"event","name":"OracleRegistered","inputs":[{"name":"oracle","type":"address","indexed":true,"internalType":"address"},{"name":"weight","type":"uint256","indexed":false,"internalType":"uint256"},{"name":"stake","type":"uint256","indexed":false,"internalType":"uint256"}],"anonymous":false},{"type":"event","name":"OracleRemoved","inputs":[{"name":"oracle","type":"address","indexed":true,"internalType":"address"}],"anonymous":false},{"type":"event","name":"RoleAdminChanged","inputs":[{"name":"role","type":"bytes32","indexed":true,"internalType":"bytes32"},{"name":"previousAdminRole","type":"bytes32","indexed":true,"internalType":"bytes32"},{"name":"newAdminRole","type":"bytes32","indexed":true,"internalType":"bytes32"}],"anonymous":false},{"type":"event","name":"RoleGranted","inputs":[{"name":"role","type":"bytes32","indexed":true,"internalType":"bytes32"},{"name":"account","type":"address","indexed":true,"internalType":"address"},{"name":"sender","type":"address","indexed":true,"internalType":"address"}],"anonymous":false},{"type":"event","name":"RoleRevoked","inputs":[{"name":"role","type":"bytes32","indexed":true,"internalType":"bytes32"},{"name":"account","type":"address","indexed":true,"internalType":"address"},{"name":"sender","type":"address","indexed":true,"internalType":"address"}],"anonymous":false},{"type":"event","name":"SignalVerified","inputs":[{"name":"signalHash","type":"bytes32","indexed":true,"internalType":"bytes32"},{"name":"symbol","type":"string","indexed":false,"internalType":"string"},{"name":"prediction","type":"int256","indexed":false,"internalType":"int256"},{"name":"confidence","type":"uint256","indexed":false,"internalType":"uint256"}],"anonymous":false},{"type":"event","name":"SlashingExecuted","inputs":[{"name":"oracle","type":"address","indexed":true,"internalType":"address"},{"name":"amount","type":"uint256","indexed":false,"internalType":"uint256"},{"name":"reason","type":"string","indexed":false,"internalType":"string"}],"anonymous":false},{"type":"error","name":"AccessControlBadConfirmation","inputs":[]},{"type":"error","name":"AccessControlUnauthorizedAccount","inputs":[{"name":"account","type":"address","internalType":"address"},{"name":"neededRole","type":"bytes32","internalType":"bytes32"}]},{"type":"error","name":"ECDSAInvalidSignature","inputs":[]},{"type":"error","name":"ECDSAInvalidSignatureLength","inputs":[{"name":"length","type":"uint256","internalType":"uint256"}]},{"type":"error","name":"ECDSAInvalidSignatureS","inputs":[{"name":"s","type":"bytes32","internalType":"bytes32"}]}],"bytecode":{"object":"0x6080604052683635c9adc5dea000006006553480156200001d575f80fd5b5060405162002ddb38038062002ddb83398181016040528101906200004391906200025c565b620000575f801b826200009260201b60201c565b506200008a7f55435dd261a4b9b3364963f7738a7a662ad9c84396d64be3365284bb7f0a5041826200009260201b60201c565b50506200028c565b5f620000a583836200018d60201b60201c565b620001835760015f808581526020019081526020015f205f015f8473ffffffffffffffffffffffffffffffffffffffff1673ffffffffffffffffffffffffffffffffffffffff1681526020019081526020015f205f6101000a81548160ff0219169083151502179055506200011f620001f060201b60201c565b73ffffffffffffffffffffffffffffffffffffffff168273ffffffffffffffffffffffffffffffffffffffff16847f2f8788117e7eff1d82e926ec794901d17c78024a50270940304540a733656f0d60405160405180910390a46001905062000187565b5f90505b92915050565b5f805f8481526020019081526020015f205f015f8373ffffffffffffffffffffffffffffffffffffffff1673ffffffffffffffffffffffffffffffffffffffff1681526020019081526020015f205f9054906101000a900460ff16905092915050565b5f33905090565b5f80fd5b5f73ffffffffffffffffffffffffffffffffffffffff82169050919050565b5f6200022682620001fb565b9050919050565b62000238816200021a565b811462000243575f80fd5b50565b5f8151905062000256816200022d565b92915050565b5f60208284031215620002745762000273620001f7565b5b5f620002838482850162000246565b91505092915050565b612b41806200029a5f395ff3fe608060405260043610610165575f3560e01c806371b9a0db116100d0578063a49d6d8011610089578063bfdb6b0411610063578063bfdb6b0414610541578063d547741f1461057f578063e6305234146105a7578063fdc85fc4146105d157610165565b8063a49d6d80146104b1578063bca86af8146104db578063bdab4d6c1461050557610165565b806371b9a0db146103a35780638cdb442f146103df57806391d148541461040757806392b3ad9b1461044357806396e9f9f71461046b578063a217fddf1461048757610165565b806336568abe1161012257806336568abe1461028757806343b769fd146102af578063502f6826146102eb57806351858e27146103155780636dfb0ac41461032b57806371115ce81461036757610165565b806301ffc9a71461016957806307e2cea5146101a557806318ad689e146101cf578063248a9ca3146101f957806324ea54f4146102355780632f2ff15d1461025f575b5f80fd5b348015610174575f80fd5b5061018f600480360381019061018a9190611b8c565b6105f9565b60405161019c9190611bd1565b60405180910390f35b3480156101b0575f80fd5b506101b9610672565b6040516101c69190611c02565b60405180910390f35b3480156101da575f80fd5b506101e3610696565b6040516101f09190611c33565b60405180910390f35b348015610204575f80fd5b5061021f600480360381019061021a9190611c76565b61069b565b60405161022c9190611c02565b60405180910390f35b348015610240575f80fd5b506102496106b7565b6040516102569190611c02565b60405180910390f35b34801561026a575f80fd5b5061028560048036038101906102809190611cfb565b6106db565b005b348015610292575f80fd5b506102ad60048036038101906102a89190611cfb565b6106fd565b005b3480156102ba575f80fd5b506102d560048036038101906102d09190611d39565b610778565b6040516102e29190611c33565b60405180910390f35b3480156102f6575f80fd5b506102ff61078d565b60405161030c9190611c33565b60405180910390f35b348015610320575f80fd5b50610329610793565b005b348015610336575f80fd5b50610351600480360381019061034c9190611e3c565b6107a9565b60405161035e9190611c02565b60405180910390f35b348015610372575f80fd5b5061038d60048036038101906103889190611c76565b610cc6565b60405161039a9190611bd1565b60405180910390f35b3480156103ae575f80fd5b506103c960048036038101906103c49190611d39565b610ce3565b6040516103d69190611c33565b60405180910390f35b3480156103ea575f80fd5b5061040560048036038101906104009190611f13565b610cf8565b005b348015610412575f80fd5b5061042d60048036038101906104289190611cfb565b610d0f565b60405161043a9190611bd1565b60405180910390f35b34801561044e575f80fd5b5061046960048036038101906104649190611f93565b610d72565b005b61048560048036038101906104809190612004565b610f0c565b005b348015610492575f80fd5b5061049b6111dd565b6040516104a89190611c02565b60405180910390f35b3480156104bc575f80fd5b506104c56111e3565b6040516104d29190611c33565b60405180910390f35b3480156104e6575f80fd5b506104ef6111e8565b6040516104fc9190611c33565b60405180910390f35b348015610510575f80fd5b5061052b60048036038101906105269190611c76565b6111ee565b6040516105389190611bd1565b60405180910390f35b34801561054c575f80fd5b5061056760048036038101906105629190611d39565b611214565b60405161057693929190612042565b60405180910390f35b34801561058a575f80fd5b506105a560048036038101906105a09190611cfb565b6112ca565b005b3480156105b2575f80fd5b506105bb6112ec565b6040516105c89190611c33565b60405180910390f35b3480156105dc575f80fd5b506105f760048036038101906105f29190611d39565b6112f2565b005b5f7f7965db0b000000000000000000000000000000000000000000000000000000007bffffffffffffffffffffffffffffffffffffffffffffffffffffffff1916827bffffffffffffffffffffffffffffffffffffffffffffffffffffffff1916148061066b575061066a8261158d565b5b9050919050565b7f68e79a7bf1e0bc45d0a330c573bc367f9cf464fd326078812f301165fbda4ef181565b604381565b5f805f8381526020019081526020015f20600101549050919050565b7f55435dd261a4b9b3364963f7738a7a662ad9c84396d64be3365284bb7f0a504181565b6106e48261069b565b6106ed816115f6565b6106f7838361160a565b50505050565b6107056116f3565b73ffffffffffffffffffffffffffffffffffffffff168173ffffffffffffffffffffffffffffffffffffffff1614610769576040517f6697b23200000000000000000000000000000000000000000000000000000000815260040160405180910390fd5b61077382826116fa565b505050565b6001602052805f5260405f205f915090505481565b60065481565b5f801b61079f816115f6565b5f60058190555050565b5f8282905085859050146107f2576040517f08c379a00000000000000000000000000000000000000000000000000000000081526004016107e9906120d1565b60405180910390fd5b6003858590501015610839576040517f08c379a000000000000000000000000000000000000000000000000000000000815260040161083090612139565b60405180910390fd5b603c86606001354261084b9190612184565b111561088c576040517f08c379a000000000000000000000000000000000000000000000000000000000815260040161088390612201565b60405180910390fd5b85805f019061089b919061222b565b8760200135886040013589606001358a608001356040516020016108c4969594939291906122ef565b60405160208183030381529060405280519060200120905060025f8281526020019081526020015f205f9054906101000a900460ff161561093a576040517f08c379a000000000000000000000000000000000000000000000000000000000815260040161093190612393565b60405180910390fd5b5f805f5b87879050811015610b9f575f88888381811061095d5761095c6123b1565b5b90506020020160208101906109729190611d39565b90508273ffffffffffffffffffffffffffffffffffffffff168173ffffffffffffffffffffffffffffffffffffffff16116109e2576040517f08c379a00000000000000000000000000000000000000000000000000000000081526004016109d99061244e565b60405180910390fd5b809250610a0f7f68e79a7bf1e0bc45d0a330c573bc367f9cf464fd326078812f301165fbda4ef182610d0f565b610a4e576040517f08c379a0000000000000000000000000000000000000000000000000000000008152600401610a45906124b6565b60405180910390fd5b5f610a58866117e3565b90505f610ad4898986818110610a7157610a706123b1565b5b9050602002810190610a8391906124d4565b8080601f0160208091040260200160405190810160405280939291908181526020018383808284375f81840152601f19601f820116905080830192505050505050508361181690919063ffffffff16565b90508273ffffffffffffffffffffffffffffffffffffffff168173ffffffffffffffffffffffffffffffffffffffff1614610b44576040517f08c379a0000000000000000000000000000000000000000000000000000000008152600401610b3b90612580565b60405180910390fd5b60015f8473ffffffffffffffffffffffffffffffffffffffff1673ffffffffffffffffffffffffffffffffffffffff1681526020019081526020015f205486610b8d919061259e565b9550505050808060010191505061093e565b505f600454606484610bb191906125d1565b610bbb919061263f565b90506043811015610c01576040517f08c379a0000000000000000000000000000000000000000000000000000000008152600401610bf8906126b9565b60405180910390fd5b600160025f8681526020019081526020015f205f6101000a81548160ff021916908315150217905550837f71c41c8c26be69c8d84d44608d92a8a6c31398883af0ed1480592619d0214dcc8989905085604051610c5f9291906126d7565b60405180910390a2837f5f1d5aebc5191955e81f6ec2b658bcda150e96f9fd439c82bb13ec3194dc32848a805f0190610c98919061222b565b8c602001358d60400135604051610cb294939291906126fe565b60405180910390a250505095945050505050565b6002602052805f5260405f205f915054906101000a900460ff1681565b6003602052805f5260405f205f915090505481565b5f801b610d04816115f6565b816006819055505050565b5f805f8481526020019081526020015f205f015f8373ffffffffffffffffffffffffffffffffffffffff1673ffffffffffffffffffffffffffffffffffffffff1681526020019081526020015f205f9054906101000a900460ff16905092915050565b7f55435dd261a4b9b3364963f7738a7a662ad9c84396d64be3365284bb7f0a5041610d9c816115f6565b8360035f8773ffffffffffffffffffffffffffffffffffffffff1673ffffffffffffffffffffffffffffffffffffffff1681526020019081526020015f20541015610e1c576040517f08c379a0000000000000000000000000000000000000000000000000000000008152600401610e1390612786565b60405180910390fd5b8360035f8773ffffffffffffffffffffffffffffffffffffffff1673ffffffffffffffffffffffffffffffffffffffff1681526020019081526020015f205f828254610e689190612184565b925050819055503373ffffffffffffffffffffffffffffffffffffffff166108fc8590811502906040515f60405180830381858888f19350505050158015610eb2573d5f803e3d5ffd5b508473ffffffffffffffffffffffffffffffffffffffff167f4d75deb3f5ad7a848ba8ac501adca756ab641eafb2bf980aa6fb93ce47980a22858585604051610efd939291906127a4565b60405180910390a25050505050565b7f55435dd261a4b9b3364963f7738a7a662ad9c84396d64be3365284bb7f0a5041610f36816115f6565b5f73ffffffffffffffffffffffffffffffffffffffff168373ffffffffffffffffffffffffffffffffffffffff1603610fa4576040517f08c379a0000000000000000000000000000000000000000000000000000000008152600401610f9b9061281e565b60405180910390fd5b5f8211610fe6576040517f08c379a0000000000000000000000000000000000000000000000000000000008152600401610fdd90612886565b60405180910390fd5b60065434101561102b576040517f08c379a0000000000000000000000000000000000000000000000000000000008152600401611022906128ee565b60405180910390fd5b5f60015f8573ffffffffffffffffffffffffffffffffffffffff1673ffffffffffffffffffffffffffffffffffffffff1681526020019081526020015f2054146110aa576040517f08c379a00000000000000000000000000000000000000000000000000000000081526004016110a190612956565b60405180910390fd5b8160015f8573ffffffffffffffffffffffffffffffffffffffff1673ffffffffffffffffffffffffffffffffffffffff1681526020019081526020015f20819055503460035f8573ffffffffffffffffffffffffffffffffffffffff1673ffffffffffffffffffffffffffffffffffffffff1681526020019081526020015f20819055508160045f82825461113f919061259e565b9250508190555060055f81548092919061115890612974565b91905055506111877f68e79a7bf1e0bc45d0a330c573bc367f9cf464fd326078812f301165fbda4ef18461160a565b508273ffffffffffffffffffffffffffffffffffffffff167f346ecb460b5d4e3b0101a70de7997e16dde8d87036eb6fb8bede66a56f27051a83346040516111d09291906126d7565b60405180910390a2505050565b5f801b81565b603c81565b60055481565b5f60025f8381526020019081526020015f205f9054906101000a900460ff169050919050565b5f805f60015f8573ffffffffffffffffffffffffffffffffffffffff1673ffffffffffffffffffffffffffffffffffffffff1681526020019081526020015f205460035f8673ffffffffffffffffffffffffffffffffffffffff1673ffffffffffffffffffffffffffffffffffffffff1681526020019081526020015f20546112bd7f68e79a7bf1e0bc45d0a330c573bc367f9cf464fd326078812f301165fbda4ef187610d0f565b9250925092509193909250565b6112d38261069b565b6112dc816115f6565b6112e683836116fa565b50505050565b60045481565b7f55435dd261a4b9b3364963f7738a7a662ad9c84396d64be3365284bb7f0a504161131c816115f6565b5f60015f8473ffffffffffffffffffffffffffffffffffffffff1673ffffffffffffffffffffffffffffffffffffffff1681526020019081526020015f20541161139b576040517f08c379a000000000000000000000000000000000000000000000000000000000815260040161139290612a05565b60405180910390fd5b5f60015f8473ffffffffffffffffffffffffffffffffffffffff1673ffffffffffffffffffffffffffffffffffffffff1681526020019081526020015f205490505f60035f8573ffffffffffffffffffffffffffffffffffffffff1673ffffffffffffffffffffffffffffffffffffffff1681526020019081526020015f205490508160045f82825461142e9190612184565b9250508190555060055f81548092919061144790612a23565b919050555060015f8573ffffffffffffffffffffffffffffffffffffffff1673ffffffffffffffffffffffffffffffffffffffff1681526020019081526020015f205f905560035f8573ffffffffffffffffffffffffffffffffffffffff1673ffffffffffffffffffffffffffffffffffffffff1681526020019081526020015f205f90556114f67f68e79a7bf1e0bc45d0a330c573bc367f9cf464fd326078812f301165fbda4ef1856116fa565b505f811115611544578373ffffffffffffffffffffffffffffffffffffffff166108fc8290811502906040515f60405180830381858888f19350505050158015611542573d5f803e3d5ffd5b505b8373ffffffffffffffffffffffffffffffffffffffff167f9c8e7d83025bef8a04c664b2f753f64b8814bdb7e27291d7e50935f18cc3c71260405160405180910390a250505050565b5f7f01ffc9a7000000000000000000000000000000000000000000000000000000007bffffffffffffffffffffffffffffffffffffffffffffffffffffffff1916827bffffffffffffffffffffffffffffffffffffffffffffffffffffffff1916149050919050565b611607816116026116f3565b611840565b50565b5f6116158383610d0f565b6116e95760015f808581526020019081526020015f205f015f8473ffffffffffffffffffffffffffffffffffffffff1673ffffffffffffffffffffffffffffffffffffffff1681526020019081526020015f205f6101000a81548160ff0219169083151502179055506116866116f3565b73ffffffffffffffffffffffffffffffffffffffff168273ffffffffffffffffffffffffffffffffffffffff16847f2f8788117e7eff1d82e926ec794901d17c78024a50270940304540a733656f0d60405160405180910390a4600190506116ed565b5f90505b92915050565b5f33905090565b5f6117058383610d0f565b156117d9575f805f8581526020019081526020015f205f015f8473ffffffffffffffffffffffffffffffffffffffff1673ffffffffffffffffffffffffffffffffffffffff1681526020019081526020015f205f6101000a81548160ff0219169083151502179055506117766116f3565b73ffffffffffffffffffffffffffffffffffffffff168273ffffffffffffffffffffffffffffffffffffffff16847ff6391f5c32d9c69d2a47ea670b442974b53935d1edc7fd64eb21e047a839171b60405160405180910390a4600190506117dd565b5f90505b92915050565b5f7f19457468657265756d205369676e6564204d6573736167653a0a3332000000005f5281601c52603c5f209050919050565b5f805f806118248686611891565b92509250925061183482826118e6565b82935050505092915050565b61184a8282610d0f565b61188d5780826040517fe2517d3f000000000000000000000000000000000000000000000000000000008152600401611884929190612a59565b60405180910390fd5b5050565b5f805f60418451036118d1575f805f602087015192506040870151915060608701515f1a90506118c388828585611a48565b9550955095505050506118df565b5f600285515f1b9250925092505b9250925092565b5f60038111156118f9576118f8612a80565b5b82600381111561190c5761190b612a80565b5b0315611a44576001600381111561192657611925612a80565b5b82600381111561193957611938612a80565b5b03611970576040517ff645eedf00000000000000000000000000000000000000000000000000000000815260040160405180910390fd5b6002600381111561198457611983612a80565b5b82600381111561199757611996612a80565b5b036119db57805f1c6040517ffce698f70000000000000000000000000000000000000000000000000000000081526004016119d29190611c33565b60405180910390fd5b6003808111156119ee576119ed612a80565b5b826003811115611a0157611a00612a80565b5b03611a4357806040517fd78bce0c000000000000000000000000000000000000000000000000000000008152600401611a3a9190611c02565b60405180910390fd5b5b5050565b5f805f7f7fffffffffffffffffffffffffffffff5d576e7357a4501ddfe92f46681b20a0845f1c1115611a84575f600385925092509250611b25565b5f6001888888886040515f8152602001604052604051611aa79493929190612ac8565b6020604051602081039080840390855afa158015611ac7573d5f803e3d5ffd5b5050506020604051035190505f73ffffffffffffffffffffffffffffffffffffffff168173ffffffffffffffffffffffffffffffffffffffff1603611b18575f60015f801b93509350935050611b25565b805f805f1b935093509350505b9450945094915050565b5f80fd5b5f80fd5b5f7fffffffff0000000000000000000000000000000000000000000000000000000082169050919050565b611b6b81611b37565b8114611b75575f80fd5b50565b5f81359050611b8681611b62565b92915050565b5f60208284031215611ba157611ba0611b2f565b5b5f611bae84828501611b78565b91505092915050565b5f8115159050919050565b611bcb81611bb7565b82525050565b5f602082019050611be45f830184611bc2565b92915050565b5f819050919050565b611bfc81611bea565b82525050565b5f602082019050611c155f830184611bf3565b92915050565b5f819050919050565b611c2d81611c1b565b82525050565b5f602082019050611c465f830184611c24565b92915050565b611c5581611bea565b8114611c5f575f80fd5b50565b5f81359050611c7081611c4c565b92915050565b5f60208284031215611c8b57611c8a611b2f565b5b5f611c9884828501611c62565b91505092915050565b5f73ffffffffffffffffffffffffffffffffffffffff82169050919050565b5f611cca82611ca1565b9050919050565b611cda81611cc0565b8114611ce4575f80fd5b50565b5f81359050611cf581611cd1565b92915050565b5f8060408385031215611d1157611d10611b2f565b5b5f611d1e85828601611c62565b9250506020611d2f85828601611ce7565b9150509250929050565b5f60208284031215611d4e57611d4d611b2f565b5b5f611d5b84828501611ce7565b91505092915050565b5f80fd5b5f60a08284031215611d7d57611d7c611d64565b5b81905092915050565b5f80fd5b5f80fd5b5f80fd5b5f8083601f840112611da757611da6611d86565b5b8235905067ffffffffffffffff811115611dc457611dc3611d8a565b5b602083019150836020820283011115611de057611ddf611d8e565b5b9250929050565b5f8083601f840112611dfc57611dfb611d86565b5b8235905067ffffffffffffffff811115611e1957611e18611d8a565b5b602083019150836020820283011115611e3557611e34611d8e565b5b9250929050565b5f805f805f60608688031215611e5557611e54611b2f565b5b5f86013567ffffffffffffffff811115611e7257611e71611b33565b5b611e7e88828901611d68565b955050602086013567ffffffffffffffff811115611e9f57611e9e611b33565b5b611eab88828901611d92565b9450945050604086013567ffffffffffffffff811115611ece57611ecd611b33565b5b611eda88828901611de7565b92509250509295509295909350565b611ef281611c1b565b8114611efc575f80fd5b50565b5f81359050611f0d81611ee9565b92915050565b5f60208284031215611f2857611f27611b2f565b5b5f611f3584828501611eff565b91505092915050565b5f8083601f840112611f5357611f52611d86565b5b8235905067ffffffffffffffff811115611f7057611f6f611d8a565b5b602083019150836001820283011115611f8c57611f8b611d8e565b5b9250929050565b5f805f8060608587031215611fab57611faa611b2f565b5b5f611fb887828801611ce7565b9450506020611fc987828801611eff565b935050604085013567ffffffffffffffff811115611fea57611fe9611b33565b5b611ff687828801611f3e565b925092505092959194509250565b5f806040838503121561201a57612019611b2f565b5b5f61202785828601611ce7565b925050602061203885828601611eff565b9150509250929050565b5f6060820190506120555f830186611c24565b6120626020830185611c24565b61206f6040830184611bc2565b949350505050565b5f82825260208201905092915050565b7f4d69736d617463686564206172726179730000000000000000000000000000005f82015250565b5f6120bb601183612077565b91506120c682612087565b602082019050919050565b5f6020820190508181035f8301526120e8816120af565b9050919050565b7f4d696e696d756d2033207369676e6572732072657175697265640000000000005f82015250565b5f612123601a83612077565b915061212e826120ef565b602082019050919050565b5f6020820190508181035f83015261215081612117565b9050919050565b7f4e487b71000000000000000000000000000000000000000000000000000000005f52601160045260245ffd5b5f61218e82611c1b565b915061219983611c1b565b92508282039050818111156121b1576121b0612157565b5b92915050565b7f5369676e616c20746f6f206f6c640000000000000000000000000000000000005f82015250565b5f6121eb600e83612077565b91506121f6826121b7565b602082019050919050565b5f6020820190508181035f830152612218816121df565b9050919050565b5f80fd5b5f80fd5b5f80fd5b5f80833560016020038436030381126122475761224661221f565b5b80840192508235915067ffffffffffffffff82111561226957612268612223565b5b60208301925060018202360383131561228557612284612227565b5b509250929050565b828183375f83830152505050565b5f601f19601f8301169050919050565b5f6122b68385612077565b93506122c383858461228d565b6122cc8361229b565b840190509392505050565b5f819050919050565b6122e9816122d7565b82525050565b5f60a0820190508181035f83015261230881888a6122ab565b905061231760208301876122e0565b6123246040830186611c24565b6123316060830185611c24565b61233e6080830184611bf3565b979650505050505050565b7f5369676e616c20616c72656164792076657269666965640000000000000000005f82015250565b5f61237d601783612077565b915061238882612349565b602082019050919050565b5f6020820190508181035f8301526123aa81612371565b9050919050565b7f4e487b71000000000000000000000000000000000000000000000000000000005f52603260045260245ffd5b7f5369676e657273206d75737420626520736f7274656420616e6420756e6971755f8201527f6500000000000000000000000000000000000000000000000000000000000000602082015250565b5f612438602183612077565b9150612443826123de565b604082019050919050565b5f6020820190508181035f8301526124658161242c565b9050919050565b7f5369676e6572206e6f742072656769737465726564206f7261636c65000000005f82015250565b5f6124a0601c83612077565b91506124ab8261246c565b602082019050919050565b5f6020820190508181035f8301526124cd81612494565b9050919050565b5f80833560016020038436030381126124f0576124ef61221f565b5b80840192508235915067ffffffffffffffff82111561251257612511612223565b5b60208301925060018202360383131561252e5761252d612227565b5b509250929050565b7f496e76616c6964207369676e61747572650000000000000000000000000000005f82015250565b5f61256a601183612077565b915061257582612536565b602082019050919050565b5f6020820190508181035f8301526125978161255e565b9050919050565b5f6125a882611c1b565b91506125b383611c1b565b92508282019050808211156125cb576125ca612157565b5b92915050565b5f6125db82611c1b565b91506125e683611c1b565b92508282026125f481611c1b565b9150828204841483151761260b5761260a612157565b5b5092915050565b7f4e487b71000000000000000000000000000000000000000000000000000000005f52601260045260245ffd5b5f61264982611c1b565b915061265483611c1b565b92508261266457612663612612565b5b828204905092915050565b7f436f6e73656e737573207468726573686f6c64206e6f74206d657400000000005f82015250565b5f6126a3601b83612077565b91506126ae8261266f565b602082019050919050565b5f6020820190508181035f8301526126d081612697565b9050919050565b5f6040820190506126ea5f830185611c24565b6126f76020830184611c24565b9392505050565b5f6060820190508181035f8301526127178186886122ab565b905061272660208301856122e0565b6127336040830184611c24565b95945050505050565b7f496e73756666696369656e74207374616b6520746f20736c61736800000000005f82015250565b5f612770601b83612077565b915061277b8261273c565b602082019050919050565b5f6020820190508181035f83015261279d81612764565b9050919050565b5f6040820190506127b75f830186611c24565b81810360208301526127ca8184866122ab565b9050949350505050565b7f496e76616c6964206f7261636c652061646472657373000000000000000000005f82015250565b5f612808601683612077565b9150612813826127d4565b602082019050919050565b5f6020820190508181035f830152612835816127fc565b9050919050565b7f576569676874206d75737420626520706f7369746976650000000000000000005f82015250565b5f612870601783612077565b915061287b8261283c565b602082019050919050565b5f6020820190508181035f83015261289d81612864565b9050919050565b7f496e73756666696369656e74207374616b6500000000000000000000000000005f82015250565b5f6128d8601283612077565b91506128e3826128a4565b602082019050919050565b5f6020820190508181035f830152612905816128cc565b9050919050565b7f4f7261636c6520616c72656164792072656769737465726564000000000000005f82015250565b5f612940601983612077565b915061294b8261290c565b602082019050919050565b5f6020820190508181035f83015261296d81612934565b9050919050565b5f61297e82611c1b565b91507fffffffffffffffffffffffffffffffffffffffffffffffffffffffffffffffff82036129b0576129af612157565b5b600182019050919050565b7f4f7261636c65206e6f74207265676973746572656400000000000000000000005f82015250565b5f6129ef601583612077565b91506129fa826129bb565b602082019050919050565b5f6020820190508181035f830152612a1c816129e3565b9050919050565b5f612a2d82611c1b565b91505f8203612a3f57612a3e612157565b5b600182039050919050565b612a5381611cc0565b82525050565b5f604082019050612a6c5f830185612a4a565b612a796020830184611bf3565b9392505050565b7f4e487b71000000000000000000000000000000000000000000000000000000005f52602160045260245ffd5b5f60ff82169050919050565b612ac281612aad565b82525050565b5f608082019050612adb5f830187611bf3565b612ae86020830186612ab9565b612af56040830185611bf3565b612b026060830184611bf3565b9594505050505056fea264697066735822122019d07991f5b8c2a2937f9afad2590b48123857255ccca2260cb0367144561cfb64736f6c63430008180033","linkReferences":{}},"methodIdentifiers":{"DEFAULT_ADMIN_ROLE()":"a217fddf","GUARDIAN_ROLE()":"24ea54f4","MAX_SIGNAL_AGE()":"a49d6d80","MIN_CONSENSUS_THRESHOLD()":"18ad689e","ORACLE_ROLE()":"07e2cea5","activeOracleCount()":"bca86af8","emergencyPause()":"51858e27","getOracleInfo(address)":"bfdb6b04","getRoleAdmin(bytes32)":"248a9ca3","grantRole(bytes32,address)":"2f2ff15d","hasRole(bytes32,address)":"91d14854","isSignalVerified(bytes32)":"bdab4d6c","minStakeRequired()":"502f6826","oracleStake(address)":"71b9a0db","oracleWeights(address)":"43b769fd","registerOracle(address,uint256)":"96e9f9f7","removeOracle(address)":"fdc85fc4","renounceRole(bytes32,address)":"36568abe","revokeRole(bytes32,address)":"d547741f","slashOracle(address,uint256,string)":"92b3ad9b","supportsInterface(bytes4)":"01ffc9a7","totalOracleWeight()":"e6305234","updateMinStake(uint256)":"8cdb442f","verifiedSignals(bytes32)":"71115ce8","verifyConsensus((string,int256,uint256,uint256,bytes32),address[],bytes[])":"6dfb0ac4"},"id":54}