{"abi":[{"type":"constructor","inputs":[{"name":"_nodeNFT","type":"address","internalType":"address"},{"name":"admin","type":"address","internalType":"address"}],"stateMutability":"nonpayable"},{"type":"function","name":"DEFAULT_ADMIN_ROLE","inputs":[],"outputs":[{"name":"","type":"bytes32","internalType":"bytes32"}],"stateMutability":"view"},{"type":"function","name":"GUARDIAN_ROLE","inputs":[],"outputs":[{"name":"","type":"bytes32","internalType":"bytes32"}],"stateMutability":"view"},{"type":"function","name":"PROPOSER_ROLE","inputs":[],"outputs":[{"name":"","type":"bytes32","internalType":"bytes32"}],"stateMutability":"view"},{"type":"function","name":"cancel","inputs":[{"name":"proposalId","type":"uint256","internalType":"uint256"}],"outputs":[],"stateMutability":"nonpayable"},{"type":"function","name":"castVote","inputs":[{"name":"proposalId","type":"uint256","internalType":"uint256"},{"name":"support","type":"bool","internalType":"bool"}],"outputs":[],"stateMutability":"nonpayable"},{"type":"function","name":"execute","inputs":[{"name":"proposalId","type":"uint256","internalType":"uint256"}],"outputs":[],"stateMutability":"nonpayable"},{"type":"function","name":"getProposal","inputs":[{"name":"proposalId","type":"uint256","internalType":"uint256"}],"outputs":[{"name":"info","type":"tuple","internalType":"struct GovernanceVoting.ProposalInfo","components":[{"name":"id","type":"uint256","internalType":"uint256"},{"name":"proposer","type":"address","internalType":"address"},{"name":"proposalType","type":"uint8","internalType":"enum GovernanceVoting.ProposalType"},{"name":"description","type":"string","internalType":"string"},{"name":"startBlock","type":"uint256","internalType":"uint256"},{"name":"endBlock","type":"uint256","internalType":"uint256"},{"name":"forVotes","type":"uint256","internalType":"uint256"},{"name":"againstVotes","type":"uint256","internalType":"uint256"},{"name":"abstainVotes","type":"uint256","internalType":"uint256"},{"name":"status","type":"uint8","internalType":"enum GovernanceVoting.ProposalStatus"}]}],"stateMutability":"view"},{"type":"function","name":"getRoleAdmin","inputs":[{"name":"role","type":"bytes32","internalType":"bytes32"}],"outputs":[{"name":"","type":"bytes32","internalType":"bytes32"}],"stateMutability":"view"},{"type":"function","name":"getTotalVotingPower","inputs":[],"outputs":[{"name":"","type":"uint256","internalType":"uint256"}],"stateMutability":"view"},{"type":"function","name":"grantRole","inputs":[{"name":"role","type":"bytes32","internalType":"bytes32"},{"name":"account","type":"address","internalType":"address"}],"outputs":[],"stateMutability":"nonpayable"},{"type":"function","name":"hasRole","inputs":[{"name":"role","type":"bytes32","internalType":"bytes32"},{"name":"account","type":"address","internalType":"address"}],"outputs":[{"name":"","type":"bool","internalType":"bool"}],"stateMutability":"view"},{"type":"function","name":"hasVoted","inputs":[{"name":"proposalId","type":"uint256","internalType":"uint256"},{"name":"voter","type":"address","internalType":"address"}],"outputs":[{"name":"","type":"bool","internalType":"bool"}],"stateMutability":"view"},{"type":"function","name":"nftHoldings","inputs":[{"name":"","type":"address","internalType":"address"}],"outputs":[{"name":"","type":"uint256","internalType":"uint256"}],"stateMutability":"view"},{"type":"function","name":"nodeNFT","inputs":[],"outputs":[{"name":"","type":"address","internalType":"contract IERC721"}],"stateMutability":"view"},{"type":"function","name":"proposalCount","inputs":[],"outputs":[{"name":"","type":"uint256","internalType":"uint256"}],"stateMutability":"view"},{"type":"function","name":"proposalThreshold","inputs":[],"outputs":[{"name":"","type":"uint256","internalType":"uint256"}],"stateMutability":"view"},{"type":"function","name":"proposals","inputs":[{"name":"","type":"uint256","internalType":"uint256"}],"outputs":[{"name":"id","type":"uint256","internalType":"uint256"},{"name":"proposer","type":"address","internalType":"address"},{"name":"proposalType","type":"uint8","internalType":"enum GovernanceVoting.ProposalType"},{"name":"description","type":"string","internalType":"string"},{"name":"callData","type":"bytes","internalType":"bytes"},{"name":"startBlock","type":"uint256","internalType":"uint256"},{"name":"endBlock","type":"uint256","internalType":"uint256"},{"name":"forVotes","type":"uint256","internalType":"uint256"},{"name":"againstVotes","type":"uint256","internalType":"uint256"},{"name":"abstainVotes","type":"uint256","internalType":"uint256"},{"name":"status","type":"uint8","internalType":"enum GovernanceVoting.ProposalStatus"}],"stateMutability":"view"},{"type":"function","name":"propose","inputs":[{"name":"proposalType","type":"uint8","internalType":"enum GovernanceVoting.ProposalType"},{"name":"description","type":"string","internalType":"string"},{"name":"callData","type":"bytes","internalType":"bytes"}],"outputs":[{"name":"proposalId","type":"uint256","internalType":"uint256"}],"stateMutability":"nonpayable"},{"type":"function","name":"quorumPercentage","inputs":[],"outputs":[{"name":"","type":"uint256","internalType":"uint256"}],"stateMutability":"view"},{"type":"function","name":"renounceRole","inputs":[{"name":"role","type":"bytes32","internalType":"bytes32"},{"name":"callerConfirmation","type":"address","internalType":"address"}],"outputs":[],"stateMutability":"nonpayable"},{"type":"function","name":"revokeRole","inputs":[{"name":"role","type":"bytes32","internalType":"bytes32"},{"name":"account","type":"address","internalType":"address"}],"outputs":[],"stateMutability":"nonpayable"},{"type":"function","name":"supportsInterface","inputs":[{"name":"interfaceId","type":"bytes4","internalType":"bytes4"}],"outputs":[{"name":"","type":"bool","internalType":"bool"}],"stateMutability":"view"},{"type":"function","name":"updateNFTHoldings","inputs":[{"name":"voter","type":"address","internalType":"address"},{"name":"amount","type":"uint256","internalType":"uint256"}],"outputs":[],"stateMutability":"nonpayable"},{"type":"function","name":"updateQuorum","inputs":[{"name":"newQuorum","type":"uint256","internalType":"uint256"}],"outputs":[],"stateMutability":"nonpayable"},{"type":"function","name":"updateVotingPeriod","inputs":[{"name":"newPeriod","type":"uint256","internalType":"uint256"}],"outputs":[],"stateMutability":"nonpayable"},{"type":"function","name":"votingDelay","inputs":[],"outputs":[{"name":"","type":"uint256","internalType":"uint256"}],"stateMutability":"view"},{"type":"function","name":"votingPeriod","inputs":[],"outputs":[{"name":"","type":"uint256","internalType":"uint256"}],"stateMutability":"view"},{"type":"event","name":"ProposalCancelled","inputs":[{"name":"proposalId","type":"uint256","indexed":true,"internalType":"uint256"}],"anonymous":false},{"type":"event","name":"ProposalCreated","inputs":[{"name":"proposalId","type":"uint256","indexed":true,"internalType":"uint256"},{"name":"proposer","type":"address","indexed":true,"internalType":"address"},{"name":"proposalType","type":"uint8","indexed":false,"internalType":"enum GovernanceVoting.ProposalType"},{"name":"description","type":"string","indexed":false,"internalType":"string"},{"name":"startBlock","type":"uint256","indexed":false,"internalType":"uint256"},{"name":"endBlock","type":"uint256","indexed":false,"internalType":"uint256"}],"anonymous":false},{"type":"event","name":"ProposalExecuted","inputs":[{"name":"proposalId","type":"uint256","indexed":true,"internalType":"uint256"}],"anonymous":false},{"type":"event","name":"QuorumUpdated","inputs":[{"name":"newQuorum","type":"uint256","indexed":false,"internalType":"uint256"}],"anonymous":false},{"type":"event","name":"RoleAdminChanged","inputs":[{"name":"role","type":"bytes32","indexed":true,"internalType":"bytes32"},{"name":"previousAdminRole","type":"bytes32","indexed":true,"internalType":"bytes32"},{"name":"newAdminRole","type":"bytes32","indexed":true,"internalType":"bytes32"}],"anonymous":false},{"type":"event","name":"RoleGranted","inputs":[{"name":"role","type":"bytes32","indexed":true,"internalType":"bytes32"},{"name":"account","type":"address","indexed":true,"internalType":"address"},{"name":"sender","type":"address","indexed":true,"internalType":"address"}],"anonymous":false},{"type":"event","name":"RoleRevoked","inputs":[{"name":"role","type":"bytes32","indexed":true,"internalType":"bytes32"},{"name":"account","type":"address","indexed":true,"internalType":"address"},{"name":"sender","type":"address","indexed":true,"internalType":"address"}],"anonymous":false},{"type":"event","name":"VoteCast","inputs":[{"name":"voter","type":"address","indexed":true,"internalType":"address"},{"name":"proposalId","type":"uint256","indexed":true,"internalType":"uint256"},{"name":"support","type":"bool","indexed":false,"internalType":"bool"},{"name":"weight","type":"uint256","indexed":false,"internalType":"uint256"}],"anonymous":false},{"type":"event","name":"VotingPeriodUpdated","inputs":[{"name":"newPeriod","type":"uint256","indexed":false,"internalType":"uint256"}],"anonymous":false},{"type":"error","name":"AccessControlBadConfirmation","inputs":[]},{"type":"error","name":"AccessControlUnauthorizedAccount","inputs":[{"name":"account","type":"address","internalType":"address"},{"name":"neededRole","type":"bytes32","internalType":"bytes32"}]}],"bytecode":{"object":"0x608060405261c4e0600355600160045560016005556028600655348015610024575f5ffd5b506040516135d63803806135d68339818101604052810190610046919061032d565b5f73ffffffffffffffffffffffffffffffffffffffff168273ffffffffffffffffffffffffffffffffffffffff16036100b4576040517f08c379a00000000000000000000000000000000000000000000000000000000081526004016100ab906103c5565b60405180910390fd5b8160015f6101000a81548173ffffffffffffffffffffffffffffffffffffffff021916908373ffffffffffffffffffffffffffffffffffffffff1602179055506101065f5f1b8261017060201b60201c565b506101377f55435dd261a4b9b3364963f7738a7a662ad9c84396d64be3365284bb7f0a50418261017060201b60201c565b506101687fb09aa5aeb3702cfd50b6b62bc4532604938f21248a27a1d5ca736082b6819cc18261017060201b60201c565b5050506103e3565b5f610181838361026560201b60201c565b61025b5760015f5f8581526020019081526020015f205f015f8473ffffffffffffffffffffffffffffffffffffffff1673ffffffffffffffffffffffffffffffffffffffff1681526020019081526020015f205f6101000a81548160ff0219169083151502179055506101f86102c860201b60201c565b73ffffffffffffffffffffffffffffffffffffffff168273ffffffffffffffffffffffffffffffffffffffff16847f2f8788117e7eff1d82e926ec794901d17c78024a50270940304540a733656f0d60405160405180910390a46001905061025f565b5f90505b92915050565b5f5f5f8481526020019081526020015f205f015f8373ffffffffffffffffffffffffffffffffffffffff1673ffffffffffffffffffffffffffffffffffffffff1681526020019081526020015f205f9054906101000a900460ff16905092915050565b5f33905090565b5f5ffd5b5f73ffffffffffffffffffffffffffffffffffffffff82169050919050565b5f6102fc826102d3565b9050919050565b61030c816102f2565b8114610316575f5ffd5b50565b5f8151905061032781610303565b92915050565b5f5f60408385031215610343576103426102cf565b5b5f61035085828601610319565b925050602061036185828601610319565b9150509250929050565b5f82825260208201905092915050565b7f496e76616c6964204e46542061646472657373000000000000000000000000005f82015250565b5f6103af60138361036b565b91506103ba8261037b565b602082019050919050565b5f6020820190508181035f8301526103dc816103a3565b9050919050565b6131e6806103f05f395ff3fe608060405234801561000f575f5ffd5b50600436106101a7575f3560e01c806343859632116100f7578063a217fddf11610095578063d547741f1161006f578063d547741f146104eb578063da35c66414610507578063ef00ef4314610525578063fe0d94c114610541576101a7565b8063a217fddf1461047f578063b58131b01461049d578063c7f758a8146104bb576101a7565b80638f61f4f5116100d15780638f61f4f5146103d157806391d14854146103ef57806392298e981461041f578063a07359121461044f576101a7565b8063438596321461036557806345d7046f146103955780634fa76ec9146103b3576101a7565b8063248a9ca31161016457806335680dc21161013e57806335680dc2146102f357806336568abe1461030f5780633932abb11461032b57806340e58ee514610349576101a7565b8063248a9ca31461028957806324ea54f4146102b95780632f2ff15d146102d7576101a7565b8063013cf08b146101ab57806301ffc9a7146101e557806302a251a3146102155780630ebc99e51461023357806311acc1a71461024f57806315373e3d1461026d575b5f5ffd5b6101c560048036038101906101c09190611c29565b61055d565b6040516101dc9b9a99989796959493929190611e1d565b60405180910390f35b6101ff60048036038101906101fa9190611f29565b6106f7565b60405161020c9190611f6e565b60405180910390f35b61021d610770565b60405161022a9190611f87565b60405180910390f35b61024d60048036038101906102489190611fca565b610776565b005b6102576107e7565b6040516102649190611f87565b60405180910390f35b61028760048036038101906102829190612032565b6107ef565b005b6102a3600480360381019061029e91906120a3565b610bc4565b6040516102b091906120dd565b60405180910390f35b6102c1610be0565b6040516102ce91906120dd565b60405180910390f35b6102f160048036038101906102ec91906120f6565b610c04565b005b61030d60048036038101906103089190611c29565b610c26565b005b610329600480360381019061032491906120f6565b610cb8565b005b610333610d33565b6040516103409190611f87565b60405180910390f35b610363600480360381019061035e9190611c29565b610d39565b005b61037f600480360381019061037a9190612134565b610f66565b60405161038c9190611f6e565b60405180910390f35b61039d610fcb565b6040516103aa91906121cd565b60405180910390f35b6103bb610ff0565b6040516103c89190611f87565b60405180910390f35b6103d9610ff6565b6040516103e691906120dd565b60405180910390f35b610409600480360381019061040491906120f6565b61101a565b6040516104169190611f6e565b60405180910390f35b610439600480360381019061043491906123d3565b61107d565b6040516104469190611f87565b60405180910390f35b6104696004803603810190610464919061245b565b6112be565b6040516104769190611f87565b60405180910390f35b6104876112d3565b60405161049491906120dd565b60405180910390f35b6104a56112d9565b6040516104b29190611f87565b60405180910390f35b6104d560048036038101906104d09190611c29565b6112df565b6040516104e291906125e1565b60405180910390f35b610505600480360381019061050091906120f6565b611468565b005b61050f61148a565b60405161051c9190611f87565b60405180910390f35b61053f600480360381019061053a9190611c29565b611490565b005b61055b60048036038101906105569190611c29565b611520565b005b6007602052805f5260405f205f91509050805f015490806001015f9054906101000a900473ffffffffffffffffffffffffffffffffffffffff16908060010160149054906101000a900460ff16908060020180546105ba9061262e565b80601f01602080910402602001604051908101604052809291908181526020018280546105e69061262e565b80156106315780601f1061060857610100808354040283529160200191610631565b820191905f5260205f20905b81548152906001019060200180831161061457829003601f168201915b5050505050908060030180546106469061262e565b80601f01602080910402602001604051908101604052809291908181526020018280546106729061262e565b80156106bd5780601f10610694576101008083540402835291602001916106bd565b820191905f5260205f20905b8154815290600101906020018083116106a057829003601f168201915b505050505090806004015490806005015490806006015490806007015490806008015490806009015f9054906101000a900460ff1690508b565b5f7f7965db0b000000000000000000000000000000000000000000000000000000007bffffffffffffffffffffffffffffffffffffffffffffffffffffffff1916827bffffffffffffffffffffffffffffffffffffffffffffffffffffffff1916148061076957506107688261184e565b5b9050919050565b60035481565b7f55435dd261a4b9b3364963f7738a7a662ad9c84396d64be3365284bb7f0a50416107a0816118b7565b8160085f8573ffffffffffffffffffffffffffffffffffffffff1673ffffffffffffffffffffffffffffffffffffffff1681526020019081526020015f2081905550505050565b5f6064905090565b5f60075f8481526020019081526020015f2090505f815f015403610848576040517f08c379a000000000000000000000000000000000000000000000000000000000815260040161083f906126a8565b60405180910390fd5b806004015443101561088f576040517f08c379a000000000000000000000000000000000000000000000000000000000815260040161088690612710565b60405180910390fd5b80600501544311156108d6576040517f08c379a00000000000000000000000000000000000000000000000000000000081526004016108cd90612778565b60405180910390fd5b80600a015f3373ffffffffffffffffffffffffffffffffffffffff1673ffffffffffffffffffffffffffffffffffffffff1681526020019081526020015f205f9054906101000a900460ff1615610962576040517f08c379a0000000000000000000000000000000000000000000000000000000008152600401610959906127e0565b60405180910390fd5b5f60085f3373ffffffffffffffffffffffffffffffffffffffff1673ffffffffffffffffffffffffffffffffffffffff1681526020019081526020015f2054116109e1576040517f08c379a00000000000000000000000000000000000000000000000000000000081526004016109d890612848565b60405180910390fd5b5f60058111156109f4576109f3611ca2565b5b816009015f9054906101000a900460ff166005811115610a1757610a16611ca2565b5b03610a49576001816009015f6101000a81548160ff02191690836005811115610a4357610a42611ca2565b5b02179055505b5f610a9060085f3373ffffffffffffffffffffffffffffffffffffffff1673ffffffffffffffffffffffffffffffffffffffff1681526020019081526020015f20546118cb565b9050600182600a015f3373ffffffffffffffffffffffffffffffffffffffff1673ffffffffffffffffffffffffffffffffffffffff1681526020019081526020015f205f6101000a81548160ff0219169083151502179055508082600b015f3373ffffffffffffffffffffffffffffffffffffffff1673ffffffffffffffffffffffffffffffffffffffff1681526020019081526020015f20819055508215610b525780826006015f828254610b469190612893565b92505081905550610b6d565b80826007015f828254610b659190612893565b925050819055505b833373ffffffffffffffffffffffffffffffffffffffff167f877856338e13f63d0c36822ff0ef736b80934cd90574a3a5bc9262c39d217c468584604051610bb69291906128c6565b60405180910390a350505050565b5f5f5f8381526020019081526020015f20600101549050919050565b7f55435dd261a4b9b3364963f7738a7a662ad9c84396d64be3365284bb7f0a504181565b610c0d82610bc4565b610c16816118b7565b610c208383611937565b50505050565b5f5f1b610c32816118b7565b6064821115610c76576040517f08c379a0000000000000000000000000000000000000000000000000000000008152600401610c6d90612937565b60405180910390fd5b816006819055507ff18f88786aae85a652aadb99a82462616489a33370c9bcc7b245906812ef7cd182604051610cac9190611f87565b60405180910390a15050565b610cc0611a20565b73ffffffffffffffffffffffffffffffffffffffff168173ffffffffffffffffffffffffffffffffffffffff1614610d24576040517f6697b23200000000000000000000000000000000000000000000000000000000815260040160405180910390fd5b610d2e8282611a27565b505050565b60045481565b5f60075f8381526020019081526020015f2090505f815f015403610d92576040517f08c379a0000000000000000000000000000000000000000000000000000000008152600401610d89906126a8565b60405180910390fd5b806001015f9054906101000a900473ffffffffffffffffffffffffffffffffffffffff1673ffffffffffffffffffffffffffffffffffffffff163373ffffffffffffffffffffffffffffffffffffffff161480610e155750610e147f55435dd261a4b9b3364963f7738a7a662ad9c84396d64be3365284bb7f0a50413361101a565b5b610e54576040517f08c379a0000000000000000000000000000000000000000000000000000000008152600401610e4b9061299f565b60405180910390fd5b5f6005811115610e6757610e66611ca2565b5b816009015f9054906101000a900460ff166005811115610e8a57610e89611ca2565b5b1480610eca575060016005811115610ea557610ea4611ca2565b5b816009015f9054906101000a900460ff166005811115610ec857610ec7611ca2565b5b145b610f09576040517f08c379a0000000000000000000000000000000000000000000000000000000008152600401610f0090612a07565b60405180910390fd5b6005816009015f6101000a81548160ff02191690836005811115610f3057610f2f611ca2565b5b0217905550817f416e669c63d9a3a5e36ee7cc7e2104b8db28ccd286aa18966e98fa230c73b08c60405160405180910390a25050565b5f60075f8481526020019081526020015f20600a015f8373ffffffffffffffffffffffffffffffffffffffff1673ffffffffffffffffffffffffffffffffffffffff1681526020019081526020015f205f9054906101000a900460ff16905092915050565b60015f9054906101000a900473ffffffffffffffffffffffffffffffffffffffff1681565b60065481565b7fb09aa5aeb3702cfd50b6b62bc4532604938f21248a27a1d5ca736082b6819cc181565b5f5f5f8481526020019081526020015f205f015f8373ffffffffffffffffffffffffffffffffffffffff1673ffffffffffffffffffffffffffffffffffffffff1681526020019081526020015f205f9054906101000a900460ff16905092915050565b5f6110a87fb09aa5aeb3702cfd50b6b62bc4532604938f21248a27a1d5ca736082b6819cc13361101a565b806110f2575060055460085f3373ffffffffffffffffffffffffffffffffffffffff1673ffffffffffffffffffffffffffffffffffffffff1681526020019081526020015f205410155b611131576040517f08c379a000000000000000000000000000000000000000000000000000000000815260040161112890612a6f565b60405180910390fd5b60025f815461113f90612a8d565b91905081905590505f60075f8381526020019081526020015f20905081815f018190555033816001015f6101000a81548173ffffffffffffffffffffffffffffffffffffffff021916908373ffffffffffffffffffffffffffffffffffffffff160217905550848160010160146101000a81548160ff021916908360048111156111cc576111cb611ca2565b5b0217905550838160020190816111e29190612c6b565b50828160030190816111f49190612d92565b50600454436112039190612893565b81600401819055506003546004544361121c9190612893565b6112269190612893565b81600501819055505f816009015f6101000a81548160ff0219169083600581111561125457611253611ca2565b5b02179055503373ffffffffffffffffffffffffffffffffffffffff16827f47a2aa5c08b3748005a89b7e0e9fa72c7117a4dc828ffc76e92b275d069317d48787856004015486600501546040516112ae9493929190612e61565b60405180910390a3509392505050565b6008602052805f5260405f205f915090505481565b5f5f1b81565b60055481565b6112e7611b61565b5f60075f8481526020019081526020015f209050604051806101400160405280825f01548152602001826001015f9054906101000a900473ffffffffffffffffffffffffffffffffffffffff1673ffffffffffffffffffffffffffffffffffffffff1681526020018260010160149054906101000a900460ff16600481111561137357611372611ca2565b5b81526020018260020180546113879061262e565b80601f01602080910402602001604051908101604052809291908181526020018280546113b39061262e565b80156113fe5780601f106113d5576101008083540402835291602001916113fe565b820191905f5260205f20905b8154815290600101906020018083116113e157829003601f168201915b505050505081526020018260040154815260200182600501548152602001826006015481526020018260070154815260200182600801548152602001826009015f9054906101000a900460ff16600581111561145d5761145c611ca2565b5b815250915050919050565b61147182610bc4565b61147a816118b7565b6114848383611a27565b50505050565b60025481565b5f5f1b61149c816118b7565b5f82116114de576040517f08c379a00000000000000000000000000000000000000000000000000000000081526004016114d590612ef5565b60405180910390fd5b816003819055507f651c77f42613a075437aa794c44471e3abc3a661956a67aaee165bb7396974aa826040516115149190611f87565b60405180910390a15050565b7f55435dd261a4b9b3364963f7738a7a662ad9c84396d64be3365284bb7f0a504161154a816118b7565b5f60075f8481526020019081526020015f2090505f815f0154036115a3576040517f08c379a000000000000000000000000000000000000000000000000000000000815260040161159a906126a8565b60405180910390fd5b806005015443116115e9576040517f08c379a00000000000000000000000000000000000000000000000000000000081526004016115e090612f5d565b60405180910390fd5b600160058111156115fd576115fc611ca2565b5b816009015f9054906101000a900460ff1660058111156116205761161f611ca2565b5b14611660576040517f08c379a000000000000000000000000000000000000000000000000000000000815260040161165790612fc5565b60405180910390fd5b5f81600801548260070154836006015461167a9190612893565b6116849190612893565b90505f61168f6107e7565b90505f6064600654836116a29190612fe3565b6116ac9190613051565b90508083101580156116c5575083600701548460060154115b15611819576002846009015f6101000a81548160ff021916908360058111156116f1576116f0611ca2565b5b02179055505f8460030180546117069061262e565b905011156117bb575f3073ffffffffffffffffffffffffffffffffffffffff1685600301604051611737919061310b565b5f604051808303815f865af19150503d805f8114611770576040519150601f19603f3d011682016040523d82523d5f602084013e611775565b606091505b50509050806117b9576040517f08c379a00000000000000000000000000000000000000000000000000000000081526004016117b09061316b565b60405180910390fd5b505b6004846009015f6101000a81548160ff021916908360058111156117e2576117e1611ca2565b5b0217905550857f712ae1383f79ac853f8d882153778e0260ef8f03b504e2866e0593e04d2b291f60405160405180910390a2611846565b6003846009015f6101000a81548160ff021916908360058111156118405761183f611ca2565b5b02179055505b505050505050565b5f7f01ffc9a7000000000000000000000000000000000000000000000000000000007bffffffffffffffffffffffffffffffffffffffffffffffffffffffff1916827bffffffffffffffffffffffffffffffffffffffffffffffffffffffff1916149050919050565b6118c8816118c3611a20565b611b10565b50565b5f5f82036118db575f9050611932565b5f60026001846118eb9190612893565b6118f59190613051565b90508291505b818110156119305780915060028182856119159190613051565b61191f9190612893565b6119299190613051565b90506118fb565b505b919050565b5f611942838361101a565b611a165760015f5f8581526020019081526020015f205f015f8473ffffffffffffffffffffffffffffffffffffffff1673ffffffffffffffffffffffffffffffffffffffff1681526020019081526020015f205f6101000a81548160ff0219169083151502179055506119b3611a20565b73ffffffffffffffffffffffffffffffffffffffff168273ffffffffffffffffffffffffffffffffffffffff16847f2f8788117e7eff1d82e926ec794901d17c78024a50270940304540a733656f0d60405160405180910390a460019050611a1a565b5f90505b92915050565b5f33905090565b5f611a32838361101a565b15611b06575f5f5f8581526020019081526020015f205f015f8473ffffffffffffffffffffffffffffffffffffffff1673ffffffffffffffffffffffffffffffffffffffff1681526020019081526020015f205f6101000a81548160ff021916908315150217905550611aa3611a20565b73ffffffffffffffffffffffffffffffffffffffff168273ffffffffffffffffffffffffffffffffffffffff16847ff6391f5c32d9c69d2a47ea670b442974b53935d1edc7fd64eb21e047a839171b60405160405180910390a460019050611b0a565b5f90505b92915050565b611b1a828261101a565b611b5d5780826040517fe2517d3f000000000000000000000000000000000000000000000000000000008152600401611b54929190613189565b60405180910390fd5b5050565b6040518061014001604052805f81526020015f73ffffffffffffffffffffffffffffffffffffffff1681526020015f6004811115611ba257611ba1611ca2565b5b8152602001606081526020015f81526020015f81526020015f81526020015f81526020015f81526020015f6005811115611bdf57611bde611ca2565b5b81525090565b5f604051905090565b5f5ffd5b5f5ffd5b5f819050919050565b611c0881611bf6565b8114611c12575f5ffd5b50565b5f81359050611c2381611bff565b92915050565b5f60208284031215611c3e57611c3d611bee565b5b5f611c4b84828501611c15565b91505092915050565b611c5d81611bf6565b82525050565b5f73ffffffffffffffffffffffffffffffffffffffff82169050919050565b5f611c8c82611c63565b9050919050565b611c9c81611c82565b82525050565b7f4e487b71000000000000000000000000000000000000000000000000000000005f52602160045260245ffd5b60058110611ce057611cdf611ca2565b5b50565b5f819050611cf082611ccf565b919050565b5f611cff82611ce3565b9050919050565b611d0f81611cf5565b82525050565b5f81519050919050565b5f82825260208201905092915050565b8281835e5f83830152505050565b5f601f19601f8301169050919050565b5f611d5782611d15565b611d618185611d1f565b9350611d71818560208601611d2f565b611d7a81611d3d565b840191505092915050565b5f81519050919050565b5f82825260208201905092915050565b5f611da982611d85565b611db38185611d8f565b9350611dc3818560208601611d2f565b611dcc81611d3d565b840191505092915050565b60068110611de857611de7611ca2565b5b50565b5f819050611df882611dd7565b919050565b5f611e0782611deb565b9050919050565b611e1781611dfd565b82525050565b5f61016082019050611e315f83018e611c54565b611e3e602083018d611c93565b611e4b604083018c611d06565b8181036060830152611e5d818b611d4d565b90508181036080830152611e71818a611d9f565b9050611e8060a0830189611c54565b611e8d60c0830188611c54565b611e9a60e0830187611c54565b611ea8610100830186611c54565b611eb6610120830185611c54565b611ec4610140830184611e0e565b9c9b505050505050505050505050565b5f7fffffffff0000000000000000000000000000000000000000000000000000000082169050919050565b611f0881611ed4565b8114611f12575f5ffd5b50565b5f81359050611f2381611eff565b92915050565b5f60208284031215611f3e57611f3d611bee565b5b5f611f4b84828501611f15565b91505092915050565b5f8115159050919050565b611f6881611f54565b82525050565b5f602082019050611f815f830184611f5f565b92915050565b5f602082019050611f9a5f830184611c54565b92915050565b611fa981611c82565b8114611fb3575f5ffd5b50565b5f81359050611fc481611fa0565b92915050565b5f5f60408385031215611fe057611fdf611bee565b5b5f611fed85828601611fb6565b9250506020611ffe85828601611c15565b9150509250929050565b61201181611f54565b811461201b575f5ffd5b50565b5f8135905061202c81612008565b92915050565b5f5f6040838503121561204857612047611bee565b5b5f61205585828601611c15565b92505060206120668582860161201e565b9150509250929050565b5f819050919050565b61208281612070565b811461208c575f5ffd5b50565b5f8135905061209d81612079565b92915050565b5f602082840312156120b8576120b7611bee565b5b5f6120c58482850161208f565b91505092915050565b6120d781612070565b82525050565b5f6020820190506120f05f8301846120ce565b92915050565b5f5f6040838503121561210c5761210b611bee565b5b5f6121198582860161208f565b925050602061212a85828601611fb6565b9150509250929050565b5f5f6040838503121561214a57612149611bee565b5b5f61215785828601611c15565b925050602061216885828601611fb6565b9150509250929050565b5f819050919050565b5f61219561219061218b84611c63565b612172565b611c63565b9050919050565b5f6121a68261217b565b9050919050565b5f6121b78261219c565b9050919050565b6121c7816121ad565b82525050565b5f6020820190506121e05f8301846121be565b92915050565b600581106121f2575f5ffd5b50565b5f81359050612203816121e6565b92915050565b5f5ffd5b5f5ffd5b7f4e487b71000000000000000000000000000000000000000000000000000000005f52604160045260245ffd5b61224782611d3d565b810181811067ffffffffffffffff8211171561226657612265612211565b5b80604052505050565b5f612278611be5565b9050612284828261223e565b919050565b5f67ffffffffffffffff8211156122a3576122a2612211565b5b6122ac82611d3d565b9050602081019050919050565b828183375f83830152505050565b5f6122d96122d484612289565b61226f565b9050828152602081018484840111156122f5576122f461220d565b5b6123008482856122b9565b509392505050565b5f82601f83011261231c5761231b612209565b5b813561232c8482602086016122c7565b91505092915050565b5f67ffffffffffffffff82111561234f5761234e612211565b5b61235882611d3d565b9050602081019050919050565b5f61237761237284612335565b61226f565b9050828152602081018484840111156123935761239261220d565b5b61239e8482856122b9565b509392505050565b5f82601f8301126123ba576123b9612209565b5b81356123ca848260208601612365565b91505092915050565b5f5f5f606084860312156123ea576123e9611bee565b5b5f6123f7868287016121f5565b935050602084013567ffffffffffffffff81111561241857612417611bf2565b5b61242486828701612308565b925050604084013567ffffffffffffffff81111561244557612444611bf2565b5b612451868287016123a6565b9150509250925092565b5f602082840312156124705761246f611bee565b5b5f61247d84828501611fb6565b91505092915050565b61248f81611bf6565b82525050565b61249e81611c82565b82525050565b6124ad81611cf5565b82525050565b5f82825260208201905092915050565b5f6124cd82611d15565b6124d781856124b3565b93506124e7818560208601611d2f565b6124f081611d3d565b840191505092915050565b61250481611dfd565b82525050565b5f61014083015f8301516125205f860182612486565b5060208301516125336020860182612495565b50604083015161254660408601826124a4565b506060830151848203606086015261255e82826124c3565b91505060808301516125736080860182612486565b5060a083015161258660a0860182612486565b5060c083015161259960c0860182612486565b5060e08301516125ac60e0860182612486565b506101008301516125c1610100860182612486565b506101208301516125d66101208601826124fb565b508091505092915050565b5f6020820190508181035f8301526125f9818461250a565b905092915050565b7f4e487b71000000000000000000000000000000000000000000000000000000005f52602260045260245ffd5b5f600282049050600182168061264557607f821691505b60208210810361265857612657612601565b5b50919050565b7f50726f706f73616c20646f6573206e6f742065786973740000000000000000005f82015250565b5f612692601783611d1f565b915061269d8261265e565b602082019050919050565b5f6020820190508181035f8301526126bf81612686565b9050919050565b7f566f74696e67206e6f74207374617274656400000000000000000000000000005f82015250565b5f6126fa601283611d1f565b9150612705826126c6565b602082019050919050565b5f6020820190508181035f830152612727816126ee565b9050919050565b7f566f74696e6720656e64656400000000000000000000000000000000000000005f82015250565b5f612762600c83611d1f565b915061276d8261272e565b602082019050919050565b5f6020820190508181035f83015261278f81612756565b9050919050565b7f416c726561647920766f746564000000000000000000000000000000000000005f82015250565b5f6127ca600d83611d1f565b91506127d582612796565b602082019050919050565b5f6020820190508181035f8301526127f7816127be565b9050919050565b7f4e6f20766f74696e6720706f77657200000000000000000000000000000000005f82015250565b5f612832600f83611d1f565b915061283d826127fe565b602082019050919050565b5f6020820190508181035f83015261285f81612826565b9050919050565b7f4e487b71000000000000000000000000000000000000000000000000000000005f52601160045260245ffd5b5f61289d82611bf6565b91506128a883611bf6565b92508282019050808211156128c0576128bf612866565b5b92915050565b5f6040820190506128d95f830185611f5f565b6128e66020830184611c54565b9392505050565b7f496e76616c69642071756f72756d0000000000000000000000000000000000005f82015250565b5f612921600e83611d1f565b915061292c826128ed565b602082019050919050565b5f6020820190508181035f83015261294e81612915565b9050919050565b7f4e6f7420617574686f72697a656420746f2063616e63656c00000000000000005f82015250565b5f612989601883611d1f565b915061299482612955565b602082019050919050565b5f6020820190508181035f8301526129b68161297d565b9050919050565b7f43616e6e6f742063616e63656c000000000000000000000000000000000000005f82015250565b5f6129f1600d83611d1f565b91506129fc826129bd565b602082019050919050565b5f6020820190508181035f830152612a1e816129e5565b9050919050565b7f496e73756666696369656e74204e46547320746f2070726f706f7365000000005f82015250565b5f612a59601c83611d1f565b9150612a6482612a25565b602082019050919050565b5f6020820190508181035f830152612a8681612a4d565b9050919050565b5f612a9782611bf6565b91507fffffffffffffffffffffffffffffffffffffffffffffffffffffffffffffffff8203612ac957612ac8612866565b5b600182019050919050565b5f819050815f5260205f209050919050565b5f6020601f8301049050919050565b5f82821b905092915050565b5f60088302612b307fffffffffffffffffffffffffffffffffffffffffffffffffffffffffffffffff82612af5565b612b3a8683612af5565b95508019841693508086168417925050509392505050565b5f612b6c612b67612b6284611bf6565b612172565b611bf6565b9050919050565b5f819050919050565b612b8583612b52565b612b99612b9182612b73565b848454612b01565b825550505050565b5f5f905090565b612bb0612ba1565b612bbb818484612b7c565b505050565b5b81811015612bde57612bd35f82612ba8565b600181019050612bc1565b5050565b601f821115612c2357612bf481612ad4565b612bfd84612ae6565b81016020851015612c0c578190505b612c20612c1885612ae6565b830182612bc0565b50505b505050565b5f82821c905092915050565b5f612c435f1984600802612c28565b1980831691505092915050565b5f612c5b8383612c34565b9150826002028217905092915050565b612c7482611d15565b67ffffffffffffffff811115612c8d57612c8c612211565b5b612c97825461262e565b612ca2828285612be2565b5f60209050601f831160018114612cd3575f8415612cc1578287015190505b612ccb8582612c50565b865550612d32565b601f198416612ce186612ad4565b5f5b82811015612d0857848901518255600182019150602085019450602081019050612ce3565b86831015612d255784890151612d21601f891682612c34565b8355505b6001600288020188555050505b505050505050565b5f819050815f5260205f209050919050565b601f821115612d8d57612d5e81612d3a565b612d6784612ae6565b81016020851015612d76578190505b612d8a612d8285612ae6565b830182612bc0565b50505b505050565b612d9b82611d85565b67ffffffffffffffff811115612db457612db3612211565b5b612dbe825461262e565b612dc9828285612d4c565b5f60209050601f831160018114612dfa575f8415612de8578287015190505b612df28582612c50565b865550612e59565b601f198416612e0886612d3a565b5f5b82811015612e2f57848901518255600182019150602085019450602081019050612e0a565b86831015612e4c5784890151612e48601f891682612c34565b8355505b6001600288020188555050505b505050505050565b5f608082019050612e745f830187611d06565b8181036020830152612e868186611d4d565b9050612e956040830185611c54565b612ea26060830184611c54565b95945050505050565b7f496e76616c696420706572696f640000000000000000000000000000000000005f82015250565b5f612edf600e83611d1f565b9150612eea82612eab565b602082019050919050565b5f6020820190508181035f830152612f0c81612ed3565b9050919050565b7f566f74696e67206e6f7420656e646564000000000000000000000000000000005f82015250565b5f612f47601083611d1f565b9150612f5282612f13565b602082019050919050565b5f6020820190508181035f830152612f7481612f3b565b9050919050565b7f50726f706f73616c206e6f7420616374697665000000000000000000000000005f82015250565b5f612faf601383611d1f565b9150612fba82612f7b565b602082019050919050565b5f6020820190508181035f830152612fdc81612fa3565b9050919050565b5f612fed82611bf6565b9150612ff883611bf6565b925082820261300681611bf6565b9150828204841483151761301d5761301c612866565b5b5092915050565b7f4e487b71000000000000000000000000000000000000000000000000000000005f52601260045260245ffd5b5f61305b82611bf6565b915061306683611bf6565b92508261307657613075613024565b5b828204905092915050565b5f81905092915050565b5f81546130978161262e565b6130a18186613081565b9450600182165f81146130bb57600181146130d057613102565b60ff1983168652811515820286019350613102565b6130d985612d3a565b5f5b838110156130fa578154818901526001820191506020810190506130db565b838801955050505b50505092915050565b5f613116828461308b565b915081905092915050565b7f50726f706f73616c20657865637574696f6e206661696c6564000000000000005f82015250565b5f613155601983611d1f565b915061316082613121565b602082019050919050565b5f6020820190508181035f83015261318281613149565b9050919050565b5f60408201905061319c5f830185611c93565b6131a960208301846120ce565b939250505056fea2646970667358221220c08f37fc247e38686c55ed0cffed8f5b091d0f962def2ce140421a270825917d64736f6c634300081e0033","linkReferences":{}},"methodIdentifiers":{"DEFAULT_ADMIN_ROLE()":"a217fddf","GUARDIAN_ROLE()":"24ea54f4","PROPOSER_ROLE()":"8f61f4f5","cancel(uint256)":"40e58ee5","castVote(uint256,bool)":"15373e3d","execute(uint256)":"fe0d94c1","getProposal(uint256)":"c7f758a8","getRoleAdmin(bytes32)":"248a9ca3","getTotalVotingPower()":"11acc1a7","grantRole(bytes32,address)":"2f2ff15d","hasRole(bytes32,address)":"91d14854","hasVoted(uint256,address)":"43859632","nftHoldings(address)":"a0735912","nodeNFT()":"45d7046f","proposalCount()":"da35c664","proposalThreshold()":"b58131b0","proposals(uint256)":"013cf08b","propose(uint8,string,bytes)":"92298e98","quorumPercentage()":"4fa76ec9","renounceRole(bytes32,address)":"36568abe","revokeRole(bytes32,address)":"d547741f","supportsInterface(bytes4)":"01ffc9a7","updateNFTHoldings(address,uint256)":"0ebc99e5","updateQuorum(uint256)":"35680dc2","updateVotingPeriod(uint256)":"ef00ef43","votingDelay()":"3932abb1","votingPeriod()":"02a251a3"},"id":38}