{"abi":[{"type":"constructor","inputs":[{"name":"_nodeNFT","type":"address","internalType":"address"},{"name":"admin","type":"address","internalType":"address"}],"stateMutability":"nonpayable"},{"type":"function","name":"DEFAULT_ADMIN_ROLE","inputs":[],"outputs":[{"name":"","type":"bytes32","internalType":"bytes32"}],"stateMutability":"view"},{"type":"function","name":"GUARDIAN_ROLE","inputs":[],"outputs":[{"name":"","type":"bytes32","internalType":"bytes32"}],"stateMutability":"view"},{"type":"function","name":"PROPOSER_ROLE","inputs":[],"outputs":[{"name":"","type":"bytes32","internalType":"bytes32"}],"stateMutability":"view"},{"type":"function","name":"cancel","inputs":[{"name":"proposalId","type":"uint256","internalType":"uint256"}],"outputs":[],"stateMutability":"nonpayable"},{"type":"function","name":"castVote","inputs":[{"name":"proposalId","type":"uint256","internalType":"uint256"},{"name":"support","type":"bool","internalType":"bool"}],"outputs":[],"stateMutability":"nonpayable"},{"type":"function","name":"execute","inputs":[{"name":"proposalId","type":"uint256","internalType":"uint256"}],"outputs":[],"stateMutability":"nonpayable"},{"type":"function","name":"getProposal","inputs":[{"name":"proposalId","type":"uint256","internalType":"uint256"}],"outputs":[{"name":"info","type":"tuple","internalType":"struct GovernanceVoting.ProposalInfo","components":[{"name":"id","type":"uint256","internalType":"uint256"},{"name":"proposer","type":"address","internalType":"address"},{"name":"proposalType","type":"uint8","internalType":"enum GovernanceVoting.ProposalType"},{"name":"description","type":"string","internalType":"string"},{"name":"startBlock","type":"uint256","internalType":"uint256"},{"name":"endBlock","type":"uint256","internalType":"uint256"},{"name":"forVotes","type":"uint256","internalType":"uint256"},{"name":"againstVotes","type":"uint256","internalType":"uint256"},{"name":"abstainVotes","type":"uint256","internalType":"uint256"},{"name":"status","type":"uint8","internalType":"enum GovernanceVoting.ProposalStatus"}]}],"stateMutability":"view"},{"type":"function","name":"getRoleAdmin","inputs":[{"name":"role","type":"bytes32","internalType":"bytes32"}],"outputs":[{"name":"","type":"bytes32","internalType":"bytes32"}],"stateMutability":"view"},{"type":"function","name":"getTotalVotingPower","inputs":[],"outputs":[{"name":"","type":"uint256","internalType":"uint256"}],"stateMutability":"view"},{"type":"function","name":"grantRole","inputs":[{"name":"role","type":"bytes32","internalType":"bytes32"},{"name":"account","type":"address","internalType":"address"}],"outputs":[],"stateMutability":"nonpayable"},{"type":"function","name":"hasRole","inputs":[{"name":"role","type":"bytes32","internalType":"bytes32"},{"name":"account","type":"address","internalType":"address"}],"outputs":[{"name":"","type":"bool","internalType":"bool"}],"stateMutability":"view"},{"type":"function","name":"hasVoted","inputs":[{"name":"proposalId","type":"uint256","internalType":"uint256"},{"name":"voter","type":"address","internalType":"address"}],"outputs":[{"name":"","type":"bool","internalType":"bool"}],"stateMutability":"view"},{"type":"function","name":"nftHoldings","inputs":[{"name":"","type":"address","internalType":"address"}],"outputs":[{"name":"","type":"uint256","internalType":"uint256"}],"stateMutability":"view"},{"type":"function","name":"nodeNFT","inputs":[],"outputs":[{"name":"","type":"address","internalType":"contract IERC721"}],"stateMutability":"view"},{"type":"function","name":"proposalCount","inputs":[],"outputs":[{"name":"","type":"uint256","internalType":"uint256"}],"stateMutability":"view"},{"type":"function","name":"proposalThreshold","inputs":[],"outputs":[{"name":"","type":"uint256","internalType":"uint256"}],"stateMutability":"view"},{"type":"function","name":"proposals","inputs":[{"name":"","type":"uint256","internalType":"uint256"}],"outputs":[{"name":"id","type":"uint256","internalType":"uint256"},{"name":"proposer","type":"address","internalType":"address"},{"name":"proposalType","type":"uint8","internalType":"enum GovernanceVoting.ProposalType"},{"name":"description","type":"string","internalType":"string"},{"name":"callData","type":"bytes","internalType":"bytes"},{"name":"startBlock","type":"uint256","internalType":"uint256"},{"name":"endBlock","type":"uint256","internalType":"uint256"},{"name":"forVotes","type":"uint256","internalType":"uint256"},{"name":"againstVotes","type":"uint256","internalType":"uint256"},{"name":"abstainVotes","type":"uint256","internalType":"uint256"},{"name":"status","type":"uint8","internalType":"enum GovernanceVoting.ProposalStatus"}],"stateMutability":"view"},{"type":"function","name":"propose","inputs":[{"name":"proposalType","type":"uint8","internalType":"enum GovernanceVoting.ProposalType"},{"name":"description","type":"string","internalType":"string"},{"name":"callData","type":"bytes","internalType":"bytes"}],"outputs":[{"name":"proposalId","type":"uint256","internalType":"uint256"}],"stateMutability":"nonpayable"},{"type":"function","name":"quorumPercentage","inputs":[],"outputs":[{"name":"","type":"uint256","internalType":"uint256"}],"stateMutability":"view"},{"type":"function","name":"renounceRole","inputs":[{"name":"role","type":"bytes32","internalType":"bytes32"},{"name":"callerConfirmation","type":"address","internalType":"address"}],"outputs":[],"stateMutability":"nonpayable"},{"type":"function","name":"revokeRole","inputs":[{"name":"role","type":"bytes32","internalType":"bytes32"},{"name":"account","type":"address","internalType":"address"}],"outputs":[],"stateMutability":"nonpayable"},{"type":"function","name":"supportsInterface","inputs":[{"name":"interfaceId","type":"bytes4","internalType":"bytes4"}],"outputs":[{"name":"","type":"bool","internalType":"bool"}],"stateMutability":"view"},{"type":"function","name":"updateNFTHoldings","inputs":[{"name":"voter","type":"address","internalType":"address"},{"name":"amount","type":"uint256","internalType":"uint256"}],"outputs":[],"stateMutability":"nonpayable"},{"type":"function","name":"updateQuorum","inputs":[{"name":"newQuorum","type":"uint256","internalType":"uint256"}],"outputs":[],"stateMutability":"nonpayable"},{"type":"function","name":"updateVotingPeriod","inputs":[{"name":"newPeriod","type":"uint256","internalType":"uint256"}],"outputs":[],"stateMutability":"nonpayable"},{"type":"function","name":"votingDelay","inputs":[],"outputs":[{"name":"","type":"uint256","internalType":"uint256"}],"stateMutability":"view"},{"type":"function","name":"votingPeriod","inputs":[],"outputs":[{"name":"","type":"uint256","internalType":"uint256"}],"stateMutability":"view"},{"type":"event","name":"ProposalCancelled","inputs":[{"name":"proposalId","type":"uint256","indexed":true,"internalType":"uint256"}],"anonymous":false},{"type":"event","name":"ProposalCreated","inputs":[{"name":"proposalId","type":"uint256","indexed":true,"internalType":"uint256"},{"name":"proposer","type":"address","indexed":true,"internalType":"address"},{"name":"proposalType","type":"uint8","indexed":false,"internalType":"enum GovernanceVoting.ProposalType"},{"name":"description","type":"string","indexed":false,"internalType":"string"},{"name":"startBlock","type":"uint256","indexed":false,"internalType":"uint256"},{"name":"endBlock","type":"uint256","indexed":false,"internalType":"uint256"}],"anonymous":false},{"type":"event","name":"ProposalExecuted","inputs":[{"name":"proposalId","type":"uint256","indexed":true,"internalType":"uint256"}],"anonymous":false},{"type":"event","name":"QuorumUpdated","inputs":[{"name":"newQuorum","type":"uint256","indexed":false,"internalType":"uint256"}],"anonymous":false},{"type":"event","name":"RoleAdminChanged","inputs":[{"name":"role","type":"bytes32","indexed":true,"internalType":"bytes32"},{"name":"previousAdminRole","type":"bytes32","indexed":true,"internalType":"bytes32"},{"name":"newAdminRole","type":"bytes32","indexed":true,"internalType":"bytes32"}],"anonymous":false},{"type":"event","name":"RoleGranted","inputs":[{"name":"role","type":"bytes32","indexed":true,"internalType":"bytes32"},{"name":"account","type":"address","indexed":true,"internalType":"address"},{"name":"sender","type":"address","indexed":true,"internalType":"address"}],"anonymous":false},{"type":"event","name":"RoleRevoked","inputs":[{"name":"role","type":"bytes32","indexed":true,"internalType":"bytes32"},{"name":"account","type":"address","indexed":true,"internalType":"address"},{"name":"sender","type":"address","indexed":true,"internalType":"address"}],"anonymous":false},{"type":"event","name":"VoteCast","inputs":[{"name":"voter","type":"address","indexed":true,"internalType":"address"},{"name":"proposalId","type":"uint256","indexed":true,"internalType":"uint256"},{"name":"support","type":"bool","indexed":false,"internalType":"bool"},{"name":"weight","type":"uint256","indexed":false,"internalType":"uint256"}],"anonymous":false},{"type":"event","name":"VotingPeriodUpdated","inputs":[{"name":"newPeriod","type":"uint256","indexed":false,"internalType":"uint256"}],"anonymous":false},{"type":"error","name":"AccessControlBadConfirmation","inputs":[]},{"type":"error","name":"AccessControlUnauthorizedAccount","inputs":[{"name":"account","type":"address","internalType":"address"},{"name":"neededRole","type":"bytes32","internalType":"bytes32"}]}],"bytecode":{"object":"0x608060405261c4e060035560016004556001600555602860065534801562000025575f80fd5b50604051620036173803806200361783398181016040528101906200004b919062000349565b5f73ffffffffffffffffffffffffffffffffffffffff168273ffffffffffffffffffffffffffffffffffffffff1603620000bc576040517f08c379a0000000000000000000000000000000000000000000000000000000008152600401620000b390620003ec565b60405180910390fd5b8160015f6101000a81548173ffffffffffffffffffffffffffffffffffffffff021916908373ffffffffffffffffffffffffffffffffffffffff160217905550620001105f801b826200017f60201b60201c565b50620001437f55435dd261a4b9b3364963f7738a7a662ad9c84396d64be3365284bb7f0a5041826200017f60201b60201c565b50620001767fb09aa5aeb3702cfd50b6b62bc4532604938f21248a27a1d5ca736082b6819cc1826200017f60201b60201c565b5050506200040c565b5f6200019283836200027a60201b60201c565b620002705760015f808581526020019081526020015f205f015f8473ffffffffffffffffffffffffffffffffffffffff1673ffffffffffffffffffffffffffffffffffffffff1681526020019081526020015f205f6101000a81548160ff0219169083151502179055506200020c620002dd60201b60201c565b73ffffffffffffffffffffffffffffffffffffffff168273ffffffffffffffffffffffffffffffffffffffff16847f2f8788117e7eff1d82e926ec794901d17c78024a50270940304540a733656f0d60405160405180910390a46001905062000274565b5f90505b92915050565b5f805f8481526020019081526020015f205f015f8373ffffffffffffffffffffffffffffffffffffffff1673ffffffffffffffffffffffffffffffffffffffff1681526020019081526020015f205f9054906101000a900460ff16905092915050565b5f33905090565b5f80fd5b5f73ffffffffffffffffffffffffffffffffffffffff82169050919050565b5f6200031382620002e8565b9050919050565b620003258162000307565b811462000330575f80fd5b50565b5f8151905062000343816200031a565b92915050565b5f8060408385031215620003625762000361620002e4565b5b5f620003718582860162000333565b9250506020620003848582860162000333565b9150509250929050565b5f82825260208201905092915050565b7f496e76616c6964204e46542061646472657373000000000000000000000000005f82015250565b5f620003d46013836200038e565b9150620003e1826200039e565b602082019050919050565b5f6020820190508181035f8301526200040581620003c6565b9050919050565b6131fd806200041a5f395ff3fe608060405234801561000f575f80fd5b50600436106101a7575f3560e01c806343859632116100f7578063a217fddf11610095578063d547741f1161006f578063d547741f146104eb578063da35c66414610507578063ef00ef4314610525578063fe0d94c114610541576101a7565b8063a217fddf1461047f578063b58131b01461049d578063c7f758a8146104bb576101a7565b80638f61f4f5116100d15780638f61f4f5146103d157806391d14854146103ef57806392298e981461041f578063a07359121461044f576101a7565b8063438596321461036557806345d7046f146103955780634fa76ec9146103b3576101a7565b8063248a9ca31161016457806335680dc21161013e57806335680dc2146102f357806336568abe1461030f5780633932abb11461032b57806340e58ee514610349576101a7565b8063248a9ca31461028957806324ea54f4146102b95780632f2ff15d146102d7576101a7565b8063013cf08b146101ab57806301ffc9a7146101e557806302a251a3146102155780630ebc99e51461023357806311acc1a71461024f57806315373e3d1461026d575b5f80fd5b6101c560048036038101906101c09190611c29565b61055d565b6040516101dc9b9a99989796959493929190611e37565b60405180910390f35b6101ff60048036038101906101fa9190611f43565b6106f7565b60405161020c9190611f88565b60405180910390f35b61021d610770565b60405161022a9190611fa1565b60405180910390f35b61024d60048036038101906102489190611fe4565b610776565b005b6102576107e7565b6040516102649190611fa1565b60405180910390f35b6102876004803603810190610282919061204c565b6107ef565b005b6102a3600480360381019061029e91906120bd565b610bc4565b6040516102b091906120f7565b60405180910390f35b6102c1610be0565b6040516102ce91906120f7565b60405180910390f35b6102f160048036038101906102ec9190612110565b610c04565b005b61030d60048036038101906103089190611c29565b610c26565b005b61032960048036038101906103249190612110565b610cb8565b005b610333610d33565b6040516103409190611fa1565b60405180910390f35b610363600480360381019061035e9190611c29565b610d39565b005b61037f600480360381019061037a919061214e565b610f66565b60405161038c9190611f88565b60405180910390f35b61039d610fcb565b6040516103aa91906121e7565b60405180910390f35b6103bb610ff0565b6040516103c89190611fa1565b60405180910390f35b6103d9610ff6565b6040516103e691906120f7565b60405180910390f35b61040960048036038101906104049190612110565b61101a565b6040516104169190611f88565b60405180910390f35b610439600480360381019061043491906123ed565b61107d565b6040516104469190611fa1565b60405180910390f35b61046960048036038101906104649190612475565b6112be565b6040516104769190611fa1565b60405180910390f35b6104876112d3565b60405161049491906120f7565b60405180910390f35b6104a56112d9565b6040516104b29190611fa1565b60405180910390f35b6104d560048036038101906104d09190611c29565b6112df565b6040516104e291906125fb565b60405180910390f35b61050560048036038101906105009190612110565b611468565b005b61050f61148a565b60405161051c9190611fa1565b60405180910390f35b61053f600480360381019061053a9190611c29565b611490565b005b61055b60048036038101906105569190611c29565b611520565b005b6007602052805f5260405f205f91509050805f015490806001015f9054906101000a900473ffffffffffffffffffffffffffffffffffffffff16908060010160149054906101000a900460ff16908060020180546105ba90612648565b80601f01602080910402602001604051908101604052809291908181526020018280546105e690612648565b80156106315780601f1061060857610100808354040283529160200191610631565b820191905f5260205f20905b81548152906001019060200180831161061457829003601f168201915b50505050509080600301805461064690612648565b80601f016020809104026020016040519081016040528092919081815260200182805461067290612648565b80156106bd5780601f10610694576101008083540402835291602001916106bd565b820191905f5260205f20905b8154815290600101906020018083116106a057829003601f168201915b505050505090806004015490806005015490806006015490806007015490806008015490806009015f9054906101000a900460ff1690508b565b5f7f7965db0b000000000000000000000000000000000000000000000000000000007bffffffffffffffffffffffffffffffffffffffffffffffffffffffff1916827bffffffffffffffffffffffffffffffffffffffffffffffffffffffff1916148061076957506107688261184e565b5b9050919050565b60035481565b7f55435dd261a4b9b3364963f7738a7a662ad9c84396d64be3365284bb7f0a50416107a0816118b7565b8160085f8573ffffffffffffffffffffffffffffffffffffffff1673ffffffffffffffffffffffffffffffffffffffff1681526020019081526020015f2081905550505050565b5f6064905090565b5f60075f8481526020019081526020015f2090505f815f015403610848576040517f08c379a000000000000000000000000000000000000000000000000000000000815260040161083f906126c2565b60405180910390fd5b806004015443101561088f576040517f08c379a00000000000000000000000000000000000000000000000000000000081526004016108869061272a565b60405180910390fd5b80600501544311156108d6576040517f08c379a00000000000000000000000000000000000000000000000000000000081526004016108cd90612792565b60405180910390fd5b80600a015f3373ffffffffffffffffffffffffffffffffffffffff1673ffffffffffffffffffffffffffffffffffffffff1681526020019081526020015f205f9054906101000a900460ff1615610962576040517f08c379a0000000000000000000000000000000000000000000000000000000008152600401610959906127fa565b60405180910390fd5b5f60085f3373ffffffffffffffffffffffffffffffffffffffff1673ffffffffffffffffffffffffffffffffffffffff1681526020019081526020015f2054116109e1576040517f08c379a00000000000000000000000000000000000000000000000000000000081526004016109d890612862565b60405180910390fd5b5f60058111156109f4576109f3611ca2565b5b816009015f9054906101000a900460ff166005811115610a1757610a16611ca2565b5b03610a49576001816009015f6101000a81548160ff02191690836005811115610a4357610a42611ca2565b5b02179055505b5f610a9060085f3373ffffffffffffffffffffffffffffffffffffffff1673ffffffffffffffffffffffffffffffffffffffff1681526020019081526020015f20546118cb565b9050600182600a015f3373ffffffffffffffffffffffffffffffffffffffff1673ffffffffffffffffffffffffffffffffffffffff1681526020019081526020015f205f6101000a81548160ff0219169083151502179055508082600b015f3373ffffffffffffffffffffffffffffffffffffffff1673ffffffffffffffffffffffffffffffffffffffff1681526020019081526020015f20819055508215610b525780826006015f828254610b4691906128ad565b92505081905550610b6d565b80826007015f828254610b6591906128ad565b925050819055505b833373ffffffffffffffffffffffffffffffffffffffff167f877856338e13f63d0c36822ff0ef736b80934cd90574a3a5bc9262c39d217c468584604051610bb69291906128e0565b60405180910390a350505050565b5f805f8381526020019081526020015f20600101549050919050565b7f55435dd261a4b9b3364963f7738a7a662ad9c84396d64be3365284bb7f0a504181565b610c0d82610bc4565b610c16816118b7565b610c208383611937565b50505050565b5f801b610c32816118b7565b6064821115610c76576040517f08c379a0000000000000000000000000000000000000000000000000000000008152600401610c6d90612951565b60405180910390fd5b816006819055507ff18f88786aae85a652aadb99a82462616489a33370c9bcc7b245906812ef7cd182604051610cac9190611fa1565b60405180910390a15050565b610cc0611a20565b73ffffffffffffffffffffffffffffffffffffffff168173ffffffffffffffffffffffffffffffffffffffff1614610d24576040517f6697b23200000000000000000000000000000000000000000000000000000000815260040160405180910390fd5b610d2e8282611a27565b505050565b60045481565b5f60075f8381526020019081526020015f2090505f815f015403610d92576040517f08c379a0000000000000000000000000000000000000000000000000000000008152600401610d89906126c2565b60405180910390fd5b806001015f9054906101000a900473ffffffffffffffffffffffffffffffffffffffff1673ffffffffffffffffffffffffffffffffffffffff163373ffffffffffffffffffffffffffffffffffffffff161480610e155750610e147f55435dd261a4b9b3364963f7738a7a662ad9c84396d64be3365284bb7f0a50413361101a565b5b610e54576040517f08c379a0000000000000000000000000000000000000000000000000000000008152600401610e4b906129b9565b60405180910390fd5b5f6005811115610e6757610e66611ca2565b5b816009015f9054906101000a900460ff166005811115610e8a57610e89611ca2565b5b1480610eca575060016005811115610ea557610ea4611ca2565b5b816009015f9054906101000a900460ff166005811115610ec857610ec7611ca2565b5b145b610f09576040517f08c379a0000000000000000000000000000000000000000000000000000000008152600401610f0090612a21565b60405180910390fd5b6005816009015f6101000a81548160ff02191690836005811115610f3057610f2f611ca2565b5b0217905550817f416e669c63d9a3a5e36ee7cc7e2104b8db28ccd286aa18966e98fa230c73b08c60405160405180910390a25050565b5f60075f8481526020019081526020015f20600a015f8373ffffffffffffffffffffffffffffffffffffffff1673ffffffffffffffffffffffffffffffffffffffff1681526020019081526020015f205f9054906101000a900460ff16905092915050565b60015f9054906101000a900473ffffffffffffffffffffffffffffffffffffffff1681565b60065481565b7fb09aa5aeb3702cfd50b6b62bc4532604938f21248a27a1d5ca736082b6819cc181565b5f805f8481526020019081526020015f205f015f8373ffffffffffffffffffffffffffffffffffffffff1673ffffffffffffffffffffffffffffffffffffffff1681526020019081526020015f205f9054906101000a900460ff16905092915050565b5f6110a87fb09aa5aeb3702cfd50b6b62bc4532604938f21248a27a1d5ca736082b6819cc13361101a565b806110f2575060055460085f3373ffffffffffffffffffffffffffffffffffffffff1673ffffffffffffffffffffffffffffffffffffffff1681526020019081526020015f205410155b611131576040517f08c379a000000000000000000000000000000000000000000000000000000000815260040161112890612a89565b60405180910390fd5b60025f815461113f90612aa7565b91905081905590505f60075f8381526020019081526020015f20905081815f018190555033816001015f6101000a81548173ffffffffffffffffffffffffffffffffffffffff021916908373ffffffffffffffffffffffffffffffffffffffff160217905550848160010160146101000a81548160ff021916908360048111156111cc576111cb611ca2565b5b0217905550838160020190816111e29190612c82565b50828160030190816111f49190612da9565b506004544361120391906128ad565b81600401819055506003546004544361121c91906128ad565b61122691906128ad565b81600501819055505f816009015f6101000a81548160ff0219169083600581111561125457611253611ca2565b5b02179055503373ffffffffffffffffffffffffffffffffffffffff16827f47a2aa5c08b3748005a89b7e0e9fa72c7117a4dc828ffc76e92b275d069317d48787856004015486600501546040516112ae9493929190612e78565b60405180910390a3509392505050565b6008602052805f5260405f205f915090505481565b5f801b81565b60055481565b6112e7611b61565b5f60075f8481526020019081526020015f209050604051806101400160405280825f01548152602001826001015f9054906101000a900473ffffffffffffffffffffffffffffffffffffffff1673ffffffffffffffffffffffffffffffffffffffff1681526020018260010160149054906101000a900460ff16600481111561137357611372611ca2565b5b815260200182600201805461138790612648565b80601f01602080910402602001604051908101604052809291908181526020018280546113b390612648565b80156113fe5780601f106113d5576101008083540402835291602001916113fe565b820191905f5260205f20905b8154815290600101906020018083116113e157829003601f168201915b505050505081526020018260040154815260200182600501548152602001826006015481526020018260070154815260200182600801548152602001826009015f9054906101000a900460ff16600581111561145d5761145c611ca2565b5b815250915050919050565b61147182610bc4565b61147a816118b7565b6114848383611a27565b50505050565b60025481565b5f801b61149c816118b7565b5f82116114de576040517f08c379a00000000000000000000000000000000000000000000000000000000081526004016114d590612f0c565b60405180910390fd5b816003819055507f651c77f42613a075437aa794c44471e3abc3a661956a67aaee165bb7396974aa826040516115149190611fa1565b60405180910390a15050565b7f55435dd261a4b9b3364963f7738a7a662ad9c84396d64be3365284bb7f0a504161154a816118b7565b5f60075f8481526020019081526020015f2090505f815f0154036115a3576040517f08c379a000000000000000000000000000000000000000000000000000000000815260040161159a906126c2565b60405180910390fd5b806005015443116115e9576040517f08c379a00000000000000000000000000000000000000000000000000000000081526004016115e090612f74565b60405180910390fd5b600160058111156115fd576115fc611ca2565b5b816009015f9054906101000a900460ff1660058111156116205761161f611ca2565b5b14611660576040517f08c379a000000000000000000000000000000000000000000000000000000000815260040161165790612fdc565b60405180910390fd5b5f81600801548260070154836006015461167a91906128ad565b61168491906128ad565b90505f61168f6107e7565b90505f6064600654836116a29190612ffa565b6116ac9190613068565b90508083101580156116c5575083600701548460060154115b15611819576002846009015f6101000a81548160ff021916908360058111156116f1576116f0611ca2565b5b02179055505f84600301805461170690612648565b905011156117bb575f3073ffffffffffffffffffffffffffffffffffffffff16856003016040516117379190613122565b5f604051808303815f865af19150503d805f8114611770576040519150601f19603f3d011682016040523d82523d5f602084013e611775565b606091505b50509050806117b9576040517f08c379a00000000000000000000000000000000000000000000000000000000081526004016117b090613182565b60405180910390fd5b505b6004846009015f6101000a81548160ff021916908360058111156117e2576117e1611ca2565b5b0217905550857f712ae1383f79ac853f8d882153778e0260ef8f03b504e2866e0593e04d2b291f60405160405180910390a2611846565b6003846009015f6101000a81548160ff021916908360058111156118405761183f611ca2565b5b02179055505b505050505050565b5f7f01ffc9a7000000000000000000000000000000000000000000000000000000007bffffffffffffffffffffffffffffffffffffffffffffffffffffffff1916827bffffffffffffffffffffffffffffffffffffffffffffffffffffffff1916149050919050565b6118c8816118c3611a20565b611b10565b50565b5f8082036118db575f9050611932565b5f60026001846118eb91906128ad565b6118f59190613068565b90508291505b818110156119305780915060028182856119159190613068565b61191f91906128ad565b6119299190613068565b90506118fb565b505b919050565b5f611942838361101a565b611a165760015f808581526020019081526020015f205f015f8473ffffffffffffffffffffffffffffffffffffffff1673ffffffffffffffffffffffffffffffffffffffff1681526020019081526020015f205f6101000a81548160ff0219169083151502179055506119b3611a20565b73ffffffffffffffffffffffffffffffffffffffff168273ffffffffffffffffffffffffffffffffffffffff16847f2f8788117e7eff1d82e926ec794901d17c78024a50270940304540a733656f0d60405160405180910390a460019050611a1a565b5f90505b92915050565b5f33905090565b5f611a32838361101a565b15611b06575f805f8581526020019081526020015f205f015f8473ffffffffffffffffffffffffffffffffffffffff1673ffffffffffffffffffffffffffffffffffffffff1681526020019081526020015f205f6101000a81548160ff021916908315150217905550611aa3611a20565b73ffffffffffffffffffffffffffffffffffffffff168273ffffffffffffffffffffffffffffffffffffffff16847ff6391f5c32d9c69d2a47ea670b442974b53935d1edc7fd64eb21e047a839171b60405160405180910390a460019050611b0a565b5f90505b92915050565b611b1a828261101a565b611b5d5780826040517fe2517d3f000000000000000000000000000000000000000000000000000000008152600401611b549291906131a0565b60405180910390fd5b5050565b6040518061014001604052805f81526020015f73ffffffffffffffffffffffffffffffffffffffff1681526020015f6004811115611ba257611ba1611ca2565b5b8152602001606081526020015f81526020015f81526020015f81526020015f81526020015f81526020015f6005811115611bdf57611bde611ca2565b5b81525090565b5f604051905090565b5f80fd5b5f80fd5b5f819050919050565b611c0881611bf6565b8114611c12575f80fd5b50565b5f81359050611c2381611bff565b92915050565b5f60208284031215611c3e57611c3d611bee565b5b5f611c4b84828501611c15565b91505092915050565b611c5d81611bf6565b82525050565b5f73ffffffffffffffffffffffffffffffffffffffff82169050919050565b5f611c8c82611c63565b9050919050565b611c9c81611c82565b82525050565b7f4e487b71000000000000000000000000000000000000000000000000000000005f52602160045260245ffd5b60058110611ce057611cdf611ca2565b5b50565b5f819050611cf082611ccf565b919050565b5f611cff82611ce3565b9050919050565b611d0f81611cf5565b82525050565b5f81519050919050565b5f82825260208201905092915050565b5f5b83811015611d4c578082015181840152602081019050611d31565b5f8484015250505050565b5f601f19601f8301169050919050565b5f611d7182611d15565b611d7b8185611d1f565b9350611d8b818560208601611d2f565b611d9481611d57565b840191505092915050565b5f81519050919050565b5f82825260208201905092915050565b5f611dc382611d9f565b611dcd8185611da9565b9350611ddd818560208601611d2f565b611de681611d57565b840191505092915050565b60068110611e0257611e01611ca2565b5b50565b5f819050611e1282611df1565b919050565b5f611e2182611e05565b9050919050565b611e3181611e17565b82525050565b5f61016082019050611e4b5f83018e611c54565b611e58602083018d611c93565b611e65604083018c611d06565b8181036060830152611e77818b611d67565b90508181036080830152611e8b818a611db9565b9050611e9a60a0830189611c54565b611ea760c0830188611c54565b611eb460e0830187611c54565b611ec2610100830186611c54565b611ed0610120830185611c54565b611ede610140830184611e28565b9c9b505050505050505050505050565b5f7fffffffff0000000000000000000000000000000000000000000000000000000082169050919050565b611f2281611eee565b8114611f2c575f80fd5b50565b5f81359050611f3d81611f19565b92915050565b5f60208284031215611f5857611f57611bee565b5b5f611f6584828501611f2f565b91505092915050565b5f8115159050919050565b611f8281611f6e565b82525050565b5f602082019050611f9b5f830184611f79565b92915050565b5f602082019050611fb45f830184611c54565b92915050565b611fc381611c82565b8114611fcd575f80fd5b50565b5f81359050611fde81611fba565b92915050565b5f8060408385031215611ffa57611ff9611bee565b5b5f61200785828601611fd0565b925050602061201885828601611c15565b9150509250929050565b61202b81611f6e565b8114612035575f80fd5b50565b5f8135905061204681612022565b92915050565b5f806040838503121561206257612061611bee565b5b5f61206f85828601611c15565b925050602061208085828601612038565b9150509250929050565b5f819050919050565b61209c8161208a565b81146120a6575f80fd5b50565b5f813590506120b781612093565b92915050565b5f602082840312156120d2576120d1611bee565b5b5f6120df848285016120a9565b91505092915050565b6120f18161208a565b82525050565b5f60208201905061210a5f8301846120e8565b92915050565b5f806040838503121561212657612125611bee565b5b5f612133858286016120a9565b925050602061214485828601611fd0565b9150509250929050565b5f806040838503121561216457612163611bee565b5b5f61217185828601611c15565b925050602061218285828601611fd0565b9150509250929050565b5f819050919050565b5f6121af6121aa6121a584611c63565b61218c565b611c63565b9050919050565b5f6121c082612195565b9050919050565b5f6121d1826121b6565b9050919050565b6121e1816121c7565b82525050565b5f6020820190506121fa5f8301846121d8565b92915050565b6005811061220c575f80fd5b50565b5f8135905061221d81612200565b92915050565b5f80fd5b5f80fd5b7f4e487b71000000000000000000000000000000000000000000000000000000005f52604160045260245ffd5b61226182611d57565b810181811067ffffffffffffffff821117156122805761227f61222b565b5b80604052505050565b5f612292611be5565b905061229e8282612258565b919050565b5f67ffffffffffffffff8211156122bd576122bc61222b565b5b6122c682611d57565b9050602081019050919050565b828183375f83830152505050565b5f6122f36122ee846122a3565b612289565b90508281526020810184848401111561230f5761230e612227565b5b61231a8482856122d3565b509392505050565b5f82601f83011261233657612335612223565b5b81356123468482602086016122e1565b91505092915050565b5f67ffffffffffffffff8211156123695761236861222b565b5b61237282611d57565b9050602081019050919050565b5f61239161238c8461234f565b612289565b9050828152602081018484840111156123ad576123ac612227565b5b6123b88482856122d3565b509392505050565b5f82601f8301126123d4576123d3612223565b5b81356123e484826020860161237f565b91505092915050565b5f805f6060848603121561240457612403611bee565b5b5f6124118682870161220f565b935050602084013567ffffffffffffffff81111561243257612431611bf2565b5b61243e86828701612322565b925050604084013567ffffffffffffffff81111561245f5761245e611bf2565b5b61246b868287016123c0565b9150509250925092565b5f6020828403121561248a57612489611bee565b5b5f61249784828501611fd0565b91505092915050565b6124a981611bf6565b82525050565b6124b881611c82565b82525050565b6124c781611cf5565b82525050565b5f82825260208201905092915050565b5f6124e782611d15565b6124f181856124cd565b9350612501818560208601611d2f565b61250a81611d57565b840191505092915050565b61251e81611e17565b82525050565b5f61014083015f83015161253a5f8601826124a0565b50602083015161254d60208601826124af565b50604083015161256060408601826124be565b506060830151848203606086015261257882826124dd565b915050608083015161258d60808601826124a0565b5060a08301516125a060a08601826124a0565b5060c08301516125b360c08601826124a0565b5060e08301516125c660e08601826124a0565b506101008301516125db6101008601826124a0565b506101208301516125f0610120860182612515565b508091505092915050565b5f6020820190508181035f8301526126138184612524565b905092915050565b7f4e487b71000000000000000000000000000000000000000000000000000000005f52602260045260245ffd5b5f600282049050600182168061265f57607f821691505b6020821081036126725761267161261b565b5b50919050565b7f50726f706f73616c20646f6573206e6f742065786973740000000000000000005f82015250565b5f6126ac601783611d1f565b91506126b782612678565b602082019050919050565b5f6020820190508181035f8301526126d9816126a0565b9050919050565b7f566f74696e67206e6f74207374617274656400000000000000000000000000005f82015250565b5f612714601283611d1f565b915061271f826126e0565b602082019050919050565b5f6020820190508181035f83015261274181612708565b9050919050565b7f566f74696e6720656e64656400000000000000000000000000000000000000005f82015250565b5f61277c600c83611d1f565b915061278782612748565b602082019050919050565b5f6020820190508181035f8301526127a981612770565b9050919050565b7f416c726561647920766f746564000000000000000000000000000000000000005f82015250565b5f6127e4600d83611d1f565b91506127ef826127b0565b602082019050919050565b5f6020820190508181035f830152612811816127d8565b9050919050565b7f4e6f20766f74696e6720706f77657200000000000000000000000000000000005f82015250565b5f61284c600f83611d1f565b915061285782612818565b602082019050919050565b5f6020820190508181035f83015261287981612840565b9050919050565b7f4e487b71000000000000000000000000000000000000000000000000000000005f52601160045260245ffd5b5f6128b782611bf6565b91506128c283611bf6565b92508282019050808211156128da576128d9612880565b5b92915050565b5f6040820190506128f35f830185611f79565b6129006020830184611c54565b9392505050565b7f496e76616c69642071756f72756d0000000000000000000000000000000000005f82015250565b5f61293b600e83611d1f565b915061294682612907565b602082019050919050565b5f6020820190508181035f8301526129688161292f565b9050919050565b7f4e6f7420617574686f72697a656420746f2063616e63656c00000000000000005f82015250565b5f6129a3601883611d1f565b91506129ae8261296f565b602082019050919050565b5f6020820190508181035f8301526129d081612997565b9050919050565b7f43616e6e6f742063616e63656c000000000000000000000000000000000000005f82015250565b5f612a0b600d83611d1f565b9150612a16826129d7565b602082019050919050565b5f6020820190508181035f830152612a38816129ff565b9050919050565b7f496e73756666696369656e74204e46547320746f2070726f706f7365000000005f82015250565b5f612a73601c83611d1f565b9150612a7e82612a3f565b602082019050919050565b5f6020820190508181035f830152612aa081612a67565b9050919050565b5f612ab182611bf6565b91507fffffffffffffffffffffffffffffffffffffffffffffffffffffffffffffffff8203612ae357612ae2612880565b5b600182019050919050565b5f819050815f5260205f209050919050565b5f6020601f8301049050919050565b5f82821b905092915050565b5f60088302612b4a7fffffffffffffffffffffffffffffffffffffffffffffffffffffffffffffffff82612b0f565b612b548683612b0f565b95508019841693508086168417925050509392505050565b5f612b86612b81612b7c84611bf6565b61218c565b611bf6565b9050919050565b5f819050919050565b612b9f83612b6c565b612bb3612bab82612b8d565b848454612b1b565b825550505050565b5f90565b612bc7612bbb565b612bd2818484612b96565b505050565b5b81811015612bf557612bea5f82612bbf565b600181019050612bd8565b5050565b601f821115612c3a57612c0b81612aee565b612c1484612b00565b81016020851015612c23578190505b612c37612c2f85612b00565b830182612bd7565b50505b505050565b5f82821c905092915050565b5f612c5a5f1984600802612c3f565b1980831691505092915050565b5f612c728383612c4b565b9150826002028217905092915050565b612c8b82611d15565b67ffffffffffffffff811115612ca457612ca361222b565b5b612cae8254612648565b612cb9828285612bf9565b5f60209050601f831160018114612cea575f8415612cd8578287015190505b612ce28582612c67565b865550612d49565b601f198416612cf886612aee565b5f5b82811015612d1f57848901518255600182019150602085019450602081019050612cfa565b86831015612d3c5784890151612d38601f891682612c4b565b8355505b6001600288020188555050505b505050505050565b5f819050815f5260205f209050919050565b601f821115612da457612d7581612d51565b612d7e84612b00565b81016020851015612d8d578190505b612da1612d9985612b00565b830182612bd7565b50505b505050565b612db282611d9f565b67ffffffffffffffff811115612dcb57612dca61222b565b5b612dd58254612648565b612de0828285612d63565b5f60209050601f831160018114612e11575f8415612dff578287015190505b612e098582612c67565b865550612e70565b601f198416612e1f86612d51565b5f5b82811015612e4657848901518255600182019150602085019450602081019050612e21565b86831015612e635784890151612e5f601f891682612c4b565b8355505b6001600288020188555050505b505050505050565b5f608082019050612e8b5f830187611d06565b8181036020830152612e9d8186611d67565b9050612eac6040830185611c54565b612eb96060830184611c54565b95945050505050565b7f496e76616c696420706572696f640000000000000000000000000000000000005f82015250565b5f612ef6600e83611d1f565b9150612f0182612ec2565b602082019050919050565b5f6020820190508181035f830152612f2381612eea565b9050919050565b7f566f74696e67206e6f7420656e646564000000000000000000000000000000005f82015250565b5f612f5e601083611d1f565b9150612f6982612f2a565b602082019050919050565b5f6020820190508181035f830152612f8b81612f52565b9050919050565b7f50726f706f73616c206e6f7420616374697665000000000000000000000000005f82015250565b5f612fc6601383611d1f565b9150612fd182612f92565b602082019050919050565b5f6020820190508181035f830152612ff381612fba565b9050919050565b5f61300482611bf6565b915061300f83611bf6565b925082820261301d81611bf6565b9150828204841483151761303457613033612880565b5b5092915050565b7f4e487b71000000000000000000000000000000000000000000000000000000005f52601260045260245ffd5b5f61307282611bf6565b915061307d83611bf6565b92508261308d5761308c61303b565b5b828204905092915050565b5f81905092915050565b5f81546130ae81612648565b6130b88186613098565b9450600182165f81146130d257600181146130e757613119565b60ff1983168652811515820286019350613119565b6130f085612d51565b5f5b83811015613111578154818901526001820191506020810190506130f2565b838801955050505b50505092915050565b5f61312d82846130a2565b915081905092915050565b7f50726f706f73616c20657865637574696f6e206661696c6564000000000000005f82015250565b5f61316c601983611d1f565b915061317782613138565b602082019050919050565b5f6020820190508181035f83015261319981613160565b9050919050565b5f6040820190506131b35f830185611c93565b6131c060208301846120e8565b939250505056fea2646970667358221220f9c8a9806c77ee30157bcdcd99a979dbe54781986e654731bb333cc72f7705b964736f6c63430008180033","linkReferences":{}},"methodIdentifiers":{"DEFAULT_ADMIN_ROLE()":"a217fddf","GUARDIAN_ROLE()":"24ea54f4","PROPOSER_ROLE()":"8f61f4f5","cancel(uint256)":"40e58ee5","castVote(uint256,bool)":"15373e3d","execute(uint256)":"fe0d94c1","getProposal(uint256)":"c7f758a8","getRoleAdmin(bytes32)":"248a9ca3","getTotalVotingPower()":"11acc1a7","grantRole(bytes32,address)":"2f2ff15d","hasRole(bytes32,address)":"91d14854","hasVoted(uint256,address)":"43859632","nftHoldings(address)":"a0735912","nodeNFT()":"45d7046f","proposalCount()":"da35c664","proposalThreshold()":"b58131b0","proposals(uint256)":"013cf08b","propose(uint8,string,bytes)":"92298e98","quorumPercentage()":"4fa76ec9","renounceRole(bytes32,address)":"36568abe","revokeRole(bytes32,address)":"d547741f","supportsInterface(bytes4)":"01ffc9a7","updateNFTHoldings(address,uint256)":"0ebc99e5","updateQuorum(uint256)":"35680dc2","updateVotingPeriod(uint256)":"ef00ef43","votingDelay()":"3932abb1","votingPeriod()":"02a251a3"},"id":52}